{
  "contractName": "GovernedSmartContractFactory",
  "abi": [
    {
      "constant": false,
      "inputs": [],
      "name": "buyToken",
      "outputs": [
        {
          "name": "",
          "type": "uint256"
        }
      ],
      "payable": false,
      "stateMutability": "nonpayable",
      "type": "function"
    },
    {
      "constant": true,
      "inputs": [],
      "name": "oracleAddress",
      "outputs": [
        {
          "name": "",
          "type": "address"
        }
      ],
      "payable": false,
      "stateMutability": "view",
      "type": "function"
    },
    {
      "constant": true,
      "inputs": [
        {
          "name": "",
          "type": "bytes32"
        }
      ],
      "name": "contracts",
      "outputs": [
        {
          "name": "",
          "type": "address"
        }
      ],
      "payable": false,
      "stateMutability": "view",
      "type": "function"
    }
  ],
  "bytecode": "0x6060604052341561000f57600080fd5b6101dd8061001e6000396000f300606060405260043610610057576000357c0100000000000000000000000000000000000000000000000000000000900463ffffffff168063a48217191461005c578063a89ae4ba14610085578063ec56a373146100da575b600080fd5b341561006757600080fd5b61006f610141565b6040518082815260200191505060405180910390f35b341561009057600080fd5b610098610158565b604051808273ffffffffffffffffffffffffffffffffffffffff1673ffffffffffffffffffffffffffffffffffffffff16815260200191505060405180910390f35b34156100e557600080fd5b6100ff60048080356000191690602001909190505061017e565b604051808273ffffffffffffffffffffffffffffffffffffffff1673ffffffffffffffffffffffffffffffffffffffff16815260200191505060405180910390f35b600080600081548092919060010191905055905090565b600160009054906101000a900473ffffffffffffffffffffffffffffffffffffffff1681565b60026020528060005260406000206000915054906101000a900473ffffffffffffffffffffffffffffffffffffffff16815600a165627a7a7230582063c47014477314bb9acf7fb041db720a6a61d46c7805145048d51a7d8634ac390029",
  "source": "pragma solidity ^0.4.17;\r\n\r\ncontract GovernedSmartContractFactory {\r\n    uint nextTokenNumber;\r\n    address public oracleAddress;\r\n    mapping(bytes32 => address) public contracts;\r\n    \r\n    modifier onlyOracle() {\r\n        require(msg.sender == oracleAddress);\r\n        _;\r\n    }\r\n    \r\n    modifier onlyContractOwner(string guid) {\r\n        require(msg.sender == contracts[keccak256(guid)]);\r\n        _;\r\n    }\r\n\r\n    function buyToken() public returns (uint) {\r\n        return nextTokenNumber++;\r\n    }\r\n}\r\n",
  "sourcePath": "c:\\Code\\BlockChain\\privy\\SmartContracts\\contracts\\GovernedSmartContractFactory.sol",
  "compiler": {
    "name": "solc",
    "version": "0.4.18+commit.9cf6e910.Emscripten.clang"
  },
  "schemaVersion": "1.0.1",
  "updatedAt": "2018-04-20T04:39:20.056Z"
}