{
  "contractName": "MarketplaceDirectory",
  "abi": [
    {
      "constant": true,
      "inputs": [],
      "name": "consortiumNameHash",
      "outputs": [
        {
          "name": "",
          "type": "bytes32"
        }
      ],
      "payable": false,
      "stateMutability": "view",
      "type": "function"
    },
    {
      "constant": true,
      "inputs": [
        {
          "name": "participantName",
          "type": "string"
        }
      ],
      "name": "participant",
      "outputs": [
        {
          "name": "parent",
          "type": "bytes32"
        },
        {
          "name": "effectiveDate",
          "type": "uint256"
        },
        {
          "name": "terminationDate",
          "type": "uint256"
        },
        {
          "name": "name",
          "type": "string"
        },
        {
          "name": "walletAddress",
          "type": "address"
        }
      ],
      "payable": false,
      "stateMutability": "view",
      "type": "function"
    },
    {
      "constant": true,
      "inputs": [
        {
          "name": "",
          "type": "bytes32"
        }
      ],
      "name": "participants",
      "outputs": [
        {
          "name": "parent",
          "type": "bytes32"
        },
        {
          "name": "effectiveDate",
          "type": "uint256"
        },
        {
          "name": "terminationDate",
          "type": "uint256"
        },
        {
          "name": "name",
          "type": "string"
        },
        {
          "name": "walletAddress",
          "type": "address"
        }
      ],
      "payable": false,
      "stateMutability": "view",
      "type": "function"
    },
    {
      "constant": true,
      "inputs": [
        {
          "name": "",
          "type": "address"
        }
      ],
      "name": "participantNames",
      "outputs": [
        {
          "name": "",
          "type": "bytes32"
        }
      ],
      "payable": false,
      "stateMutability": "view",
      "type": "function"
    },
    {
      "constant": false,
      "inputs": [
        {
          "name": "effectiveDate",
          "type": "uint256"
        },
        {
          "name": "terminationDate",
          "type": "uint256"
        },
        {
          "name": "participantName",
          "type": "string"
        },
        {
          "name": "participantWalletAddress",
          "type": "address"
        }
      ],
      "name": "updateParticipant",
      "outputs": [],
      "payable": false,
      "stateMutability": "nonpayable",
      "type": "function"
    },
    {
      "constant": true,
      "inputs": [],
      "name": "consortiumAddress",
      "outputs": [
        {
          "name": "",
          "type": "address"
        }
      ],
      "payable": false,
      "stateMutability": "view",
      "type": "function"
    },
    {
      "constant": true,
      "inputs": [],
      "name": "callerName",
      "outputs": [
        {
          "name": "",
          "type": "bytes32"
        }
      ],
      "payable": false,
      "stateMutability": "view",
      "type": "function"
    },
    {
      "inputs": [],
      "payable": false,
      "stateMutability": "nonpayable",
      "type": "constructor"
    },
    {
      "anonymous": false,
      "inputs": [
        {
          "indexed": true,
          "name": "nameHash",
          "type": "bytes32"
        },
        {
          "indexed": false,
          "name": "name",
          "type": "string"
        },
        {
          "indexed": false,
          "name": "effectiveDate",
          "type": "uint256"
        },
        {
          "indexed": false,
          "name": "terminationDate",
          "type": "uint256"
        }
      ],
      "name": "ParticipantUpdated",
      "type": "event"
    }
  ],
  "bytecode": "0x606060405260405180807f466f7263654669656c64204554524d205265676973747279000000000000000081525060180190506040518091039020600190600019169055341561004e57600080fd5b336000806101000a81548173ffffffffffffffffffffffffffffffffffffffff021916908373ffffffffffffffffffffffffffffffffffffffff160217905550600154600260003373ffffffffffffffffffffffffffffffffffffffff1673ffffffffffffffffffffffffffffffffffffffff1681526020019081526020016000208160001916905550610c5e806100e76000396000f300606060405260043610610083576000357c0100000000000000000000000000000000000000000000000000000000900463ffffffff168063598093201461008857806361328a2c146100b9578063653e0f7f146101df57806367dee271146102ec5780639b7b4fa614610341578063b3c9a0b6146103cf578063ce6ec80714610424575b600080fd5b341561009357600080fd5b61009b610455565b60405180826000191660001916815260200191505060405180910390f35b34156100c457600080fd5b610114600480803590602001908201803590602001908080601f0160208091040260200160405190810160405280939291908181526020018383808284378201915050505050509190505061045b565b604051808660001916600019168152602001858152602001848152602001806020018373ffffffffffffffffffffffffffffffffffffffff1673ffffffffffffffffffffffffffffffffffffffff168152602001828103825284818151815260200191508051906020019080838360005b838110156101a0578082015181840152602081019050610185565b50505050905090810190601f1680156101cd5780820380516001836020036101000a031916815260200191505b50965050505050505060405180910390f35b34156101ea57600080fd5b6102046004808035600019169060200190919050506105d2565b604051808660001916600019168152602001858152602001848152602001806020018373ffffffffffffffffffffffffffffffffffffffff1673ffffffffffffffffffffffffffffffffffffffff1681526020018281038252848181546001816001161561010002031660029004815260200191508054600181600116156101000203166002900480156102d95780601f106102ae576101008083540402835291602001916102d9565b820191906000526020600020905b8154815290600101906020018083116102bc57829003601f168201915b5050965050505050505060405180910390f35b34156102f757600080fd5b610323600480803573ffffffffffffffffffffffffffffffffffffffff16906020019091905050610627565b60405180826000191660001916815260200191505060405180910390f35b341561034c57600080fd5b6103cd600480803590602001909190803590602001909190803590602001908201803590602001908080601f0160208091040260200160405190810160405280939291908181526020018383808284378201915050505050509190803573ffffffffffffffffffffffffffffffffffffffff1690602001909190505061063f565b005b34156103da57600080fd5b6103e2610b0d565b604051808273ffffffffffffffffffffffffffffffffffffffff1673ffffffffffffffffffffffffffffffffffffffff16815260200191505060405180910390f35b341561042f57600080fd5b610437610b32565b60405180826000191660001916815260200191505060405180910390f35b60015481565b6000806000610468610b79565b60008060036000886040518082805190602001908083835b6020831015156104a55780518252602082019150602081019050602083039250610480565b6001836020036101000a0380198251168184511680821785525050505050509050019150506040518091039020600019166000191681526020019081526020016000209050806000015481600101548260020154836003018460040160009054906101000a900473ffffffffffffffffffffffffffffffffffffffff16818054600181600116156101000203166002900480601f0160208091040260200160405190810160405280929190818152602001828054600181600116156101000203166002900480156105b75780601f1061058c576101008083540402835291602001916105b7565b820191906000526020600020905b81548152906001019060200180831161059a57829003601f168201915b50505050509150955095509550955095505091939590929450565b600360205280600052604060002060009150905080600001549080600101549080600201549080600301908060040160009054906101000a900473ffffffffffffffffffffffffffffffffffffffff16905085565b60026020528060005260406000206000915090505481565b6000806000846000600102610652610b32565b600019161415151561066357600080fd5b600060010260036000836040518082805190602001908083835b6020831015156106a2578051825260208201915060208101905060208303925061067d565b6001836020036101000a038019825116818451168082178552505050505050905001915050604051809103902060001916600019168152602001908152602001600020600001546000191614806107bf5750600260003373ffffffffffffffffffffffffffffffffffffffff1673ffffffffffffffffffffffffffffffffffffffff168152602001908152602001600020546000191660036000836040518082805190602001908083835b602083101515610772578051825260208201915060208101905060208303925061074d565b6001836020036101000a0380198251168184511680821785525050505050509050019150506040518091039020600019166000191681526020019081526020016000206000015460001916145b15156107ca57600080fd5b6000881115156107d957600080fd5b6000871115156107e857600080fd5b60008573ffffffffffffffffffffffffffffffffffffffff161415151561080e57600080fd5b610816610b32565b9350856040518082805190602001908083835b60208310151561084e5780518252602082019150602081019050602083039250610829565b6001836020036101000a0380198251168184511680821785525050505050509050019150506040518091039020925060036000846000191660001916815260200190815260200160002060040160009054906101000a900473ffffffffffffffffffffffffffffffffffffffff16915060008273ffffffffffffffffffffffffffffffffffffffff1614151561092257600260008673ffffffffffffffffffffffffffffffffffffffff1673ffffffffffffffffffffffffffffffffffffffff168152602001908152602001600020600090555b82600260008773ffffffffffffffffffffffffffffffffffffffff1673ffffffffffffffffffffffffffffffffffffffff168152602001908152602001600020816000191690555060a060405190810160405280856000191681526020018981526020018881526020018781526020018673ffffffffffffffffffffffffffffffffffffffff168152506003600085600019166000191681526020019081526020016000206000820151816000019060001916905560208201518160010155604082015181600201556060820151816003019080519060200190610a07929190610b8d565b5060808201518160040160006101000a81548173ffffffffffffffffffffffffffffffffffffffff021916908373ffffffffffffffffffffffffffffffffffffffff16021790555090505082600019167fc83935e2d6c5bebd94c8c1a7eb2daeb221e908c09e602c10ce428689518c19ee878a8a6040518080602001848152602001838152602001828103825285818151815260200191508051906020019080838360005b83811015610ac7578082015181840152602081019050610aac565b50505050905090810190601f168015610af45780820380516001836020036101000a031916815260200191505b5094505050505060405180910390a25050505050505050565b6000809054906101000a900473ffffffffffffffffffffffffffffffffffffffff1681565b6000600260003373ffffffffffffffffffffffffffffffffffffffff1673ffffffffffffffffffffffffffffffffffffffff16815260200190815260200160002054905090565b602060405190810160405280600081525090565b828054600181600116156101000203166002900490600052602060002090601f016020900481019282601f10610bce57805160ff1916838001178555610bfc565b82800160010185558215610bfc579182015b82811115610bfb578251825591602001919060010190610be0565b5b509050610c099190610c0d565b5090565b610c2f91905b80821115610c2b576000816000905550600101610c13565b5090565b905600a165627a7a72305820328323b9552ccee0b4799671295fc514812413b42b290729997ac9e0de5516a60029",
  "source": "pragma solidity ^0.4.17;\r\n\r\nimport \"./MarketplaceDirectoryInterface.sol\";\r\n\r\ncontract MarketplaceDirectory is MarketplaceDirectoryInterface {\r\n    address public consortiumAddress;\r\n    bytes32 public consortiumNameHash = keccak256(\"ForceField ETRM Registry\");\r\n    \r\n    struct Participant {\r\n        bytes32 parent;\r\n        uint effectiveDate;\r\n        uint terminationDate;\r\n        string name;\r\n        address walletAddress;\r\n    }\r\n    \r\n    mapping(address => bytes32) public participantNames;\r\n    mapping(bytes32 => Participant) public participants;\r\n    \r\n    modifier onlyConsortium() {\r\n        require(msg.sender == consortiumAddress);\r\n        _;\r\n    }\r\n    \r\n    modifier onlyParent(string participantName) {\r\n        require(callerName() != 0);\r\n        require(participants[keccak256(participantName)].parent == 0 || participants[keccak256(participantName)].parent == participantNames[msg.sender]);\r\n        _;\r\n    }\r\n    \r\n    function MarketplaceDirectory() public {\r\n        consortiumAddress = msg.sender;\r\n        participantNames[msg.sender] = consortiumNameHash;\r\n    }\r\n    \r\n    function callerName() public constant returns (bytes32) {\r\n        return participantNames[msg.sender];\r\n    }\r\n    \r\n    function participant(string participantName) public constant returns (bytes32 parent, uint effectiveDate , uint terminationDate, string name, address walletAddress) {\r\n        var p = participants[keccak256(participantName)];\r\n        return (p.parent, p.effectiveDate, p.terminationDate, p.name, p.walletAddress);\r\n    }\r\n    \r\n    function updateParticipant(uint effectiveDate, uint terminationDate, string participantName, address participantWalletAddress) public onlyParent(participantName) {\r\n        require(effectiveDate > 0);\r\n        require(terminationDate > 0);\r\n        require(participantWalletAddress != 0);\r\n\r\n        // TODO support multiple entries for a participant under different companies\r\n        // TODO avoid name collision by creating hierarchy of name\r\n        var parent = callerName();\r\n        var name = keccak256(participantName); // name = parent + keccak256(participantName);\r\n\r\n        var oldAddress = participants[name].walletAddress;\r\n        if (address(oldAddress) != 0) { \r\n            delete participantNames[participantWalletAddress];\r\n        }\r\n\r\n        participantNames[participantWalletAddress] = name;\r\n        participants[name] = Participant(\r\n            {parent: parent, effectiveDate : effectiveDate, terminationDate: terminationDate, name: participantName, walletAddress: participantWalletAddress});\r\n\r\n        ParticipantUpdated(name, participantName, effectiveDate, terminationDate);\r\n    } \r\n\r\n    event ParticipantUpdated(bytes32 indexed nameHash, string name, uint effectiveDate , uint terminationDate);\r\n}\r\n",
  "sourcePath": "C:\\Forcefield\\privy\\SmartContracts\\contracts\\MarketplaceDirectory.sol",
  "compiler": {
    "name": "solc",
    "version": "0.4.18+commit.9cf6e910.Emscripten.clang"
  },
  "schemaVersion": "1.0.1",
  "updatedAt": "2018-04-15T02:08:35.423Z"
}