{
  "contractName": "MarketplaceDirectory",
  "abi": [
    {
      "constant": true,
      "inputs": [
        {
          "name": "participantWalletAddress",
          "type": "address"
        }
      ],
      "name": "participant",
      "outputs": [
        {
          "name": "parent",
          "type": "bytes32"
        },
        {
          "name": "effectiveDate",
          "type": "uint256"
        },
        {
          "name": "terminationDate",
          "type": "uint256"
        },
        {
          "name": "name",
          "type": "string"
        },
        {
          "name": "walletAddress",
          "type": "address"
        }
      ],
      "payable": false,
      "stateMutability": "view",
      "type": "function"
    },
    {
      "constant": true,
      "inputs": [
        {
          "name": "participantWalletAddress",
          "type": "address"
        },
        {
          "name": "asofDate",
          "type": "uint256"
        }
      ],
      "name": "isParticipantActive",
      "outputs": [
        {
          "name": "",
          "type": "bool"
        }
      ],
      "payable": false,
      "stateMutability": "view",
      "type": "function"
    },
    {
      "constant": true,
      "inputs": [
        {
          "name": "participantName",
          "type": "string"
        },
        {
          "name": "parentName",
          "type": "string"
        }
      ],
      "name": "participant",
      "outputs": [
        {
          "name": "parent",
          "type": "bytes32"
        },
        {
          "name": "effectiveDate",
          "type": "uint256"
        },
        {
          "name": "terminationDate",
          "type": "uint256"
        },
        {
          "name": "name",
          "type": "string"
        },
        {
          "name": "walletAddress",
          "type": "address"
        }
      ],
      "payable": false,
      "stateMutability": "view",
      "type": "function"
    },
    {
      "constant": true,
      "inputs": [],
      "name": "consortiumNameHash",
      "outputs": [
        {
          "name": "",
          "type": "bytes32"
        }
      ],
      "payable": false,
      "stateMutability": "view",
      "type": "function"
    },
    {
      "constant": true,
      "inputs": [
        {
          "name": "",
          "type": "bytes32"
        }
      ],
      "name": "participants",
      "outputs": [
        {
          "name": "parent",
          "type": "bytes32"
        },
        {
          "name": "parentName",
          "type": "string"
        },
        {
          "name": "effectiveDate",
          "type": "uint256"
        },
        {
          "name": "terminationDate",
          "type": "uint256"
        },
        {
          "name": "name",
          "type": "string"
        },
        {
          "name": "walletAddress",
          "type": "address"
        }
      ],
      "payable": false,
      "stateMutability": "view",
      "type": "function"
    },
    {
      "constant": true,
      "inputs": [
        {
          "name": "",
          "type": "address"
        }
      ],
      "name": "participantNames",
      "outputs": [
        {
          "name": "",
          "type": "bytes32"
        }
      ],
      "payable": false,
      "stateMutability": "view",
      "type": "function"
    },
    {
      "constant": false,
      "inputs": [
        {
          "name": "effectiveDate",
          "type": "uint256"
        },
        {
          "name": "terminationDate",
          "type": "uint256"
        },
        {
          "name": "participantName",
          "type": "string"
        },
        {
          "name": "participantWalletAddress",
          "type": "address"
        }
      ],
      "name": "updateParticipant",
      "outputs": [],
      "payable": false,
      "stateMutability": "nonpayable",
      "type": "function"
    },
    {
      "constant": true,
      "inputs": [],
      "name": "consortiumAddress",
      "outputs": [
        {
          "name": "",
          "type": "address"
        }
      ],
      "payable": false,
      "stateMutability": "view",
      "type": "function"
    },
    {
      "constant": true,
      "inputs": [],
      "name": "callerName",
      "outputs": [
        {
          "name": "",
          "type": "bytes32"
        }
      ],
      "payable": false,
      "stateMutability": "view",
      "type": "function"
    },
    {
      "constant": true,
      "inputs": [
        {
          "name": "participantName",
          "type": "string"
        },
        {
          "name": "parentName",
          "type": "string"
        },
        {
          "name": "asofDate",
          "type": "uint256"
        }
      ],
      "name": "isParticipantActive",
      "outputs": [
        {
          "name": "",
          "type": "bool"
        }
      ],
      "payable": false,
      "stateMutability": "view",
      "type": "function"
    },
    {
      "inputs": [],
      "payable": false,
      "stateMutability": "nonpayable",
      "type": "constructor"
    },
    {
      "anonymous": false,
      "inputs": [
        {
          "indexed": true,
          "name": "keyHash",
          "type": "bytes32"
        },
        {
          "indexed": false,
          "name": "name",
          "type": "string"
        },
        {
          "indexed": false,
          "name": "parentName",
          "type": "string"
        },
        {
          "indexed": false,
          "name": "effectiveDate",
          "type": "uint256"
        },
        {
          "indexed": false,
          "name": "terminationDate",
          "type": "uint256"
        }
      ],
      "name": "ParticipantUpdated",
      "type": "event"
    }
  ],
  "bytecode": "0x606060405260405180807f4a616e7573205265676973747279000000000000000000000000000000000000815250600e0190506040518091039020600190600019169055341561004e57600080fd5b336000806101000a81548173ffffffffffffffffffffffffffffffffffffffff021916908373ffffffffffffffffffffffffffffffffffffffff160217905550600154600260003373ffffffffffffffffffffffffffffffffffffffff1673ffffffffffffffffffffffffffffffffffffffff1681526020019081526020016000208160001916905550611abc806100e76000396000f3006060604052600436106100a4576000357c0100000000000000000000000000000000000000000000000000000000900463ffffffff1680632605b3c7146100a9578063281e97a6146101ab5780632aeb69aa14610205578063598093201461036e578063653e0f7f1461039f57806367dee271146105355780639b7b4fa61461058a578063b3c9a0b614610618578063ce6ec8071461066d578063ff10f6bf1461069e575b600080fd5b34156100b457600080fd5b6100e0600480803573ffffffffffffffffffffffffffffffffffffffff1690602001909190505061075f565b604051808660001916600019168152602001858152602001848152602001806020018373ffffffffffffffffffffffffffffffffffffffff1673ffffffffffffffffffffffffffffffffffffffff168152602001828103825284818151815260200191508051906020019080838360005b8381101561016c578082015181840152602081019050610151565b50505050905090810190601f1680156101995780820380516001836020036101000a031916815260200191505b50965050505050505060405180910390f35b34156101b657600080fd5b6101eb600480803573ffffffffffffffffffffffffffffffffffffffff169060200190919080359060200190919050506108b3565b604051808215151515815260200191505060405180910390f35b341561021057600080fd5b6102a3600480803590602001908201803590602001908080601f0160208091040260200160405190810160405280939291908181526020018383808284378201915050505050509190803590602001908201803590602001908080601f01602080910402602001604051908101604052809392919081815260200183838082843782019150505050505091905050610951565b604051808660001916600019168152602001858152602001848152602001806020018373ffffffffffffffffffffffffffffffffffffffff1673ffffffffffffffffffffffffffffffffffffffff168152602001828103825284818151815260200191508051906020019080838360005b8381101561032f578082015181840152602081019050610314565b50505050905090810190601f16801561035c5780820380516001836020036101000a031916815260200191505b50965050505050505060405180910390f35b341561037957600080fd5b610381610b63565b60405180826000191660001916815260200191505060405180910390f35b34156103aa57600080fd5b6103c4600480803560001916906020019091905050610b69565b60405180876000191660001916815260200180602001868152602001858152602001806020018473ffffffffffffffffffffffffffffffffffffffff1673ffffffffffffffffffffffffffffffffffffffff16815260200183810383528881815460018160011615610100020316600290048152602001915080546001816001161561010002031660029004801561049d5780601f106104725761010080835404028352916020019161049d565b820191906000526020600020905b81548152906001019060200180831161048057829003601f168201915b50508381038252858181546001816001161561010002031660029004815260200191508054600181600116156101000203166002900480156105205780601f106104f557610100808354040283529160200191610520565b820191906000526020600020905b81548152906001019060200180831161050357829003601f168201915b50509850505050505050505060405180910390f35b341561054057600080fd5b61056c600480803573ffffffffffffffffffffffffffffffffffffffff16906020019091905050610bc3565b60405180826000191660001916815260200191505060405180910390f35b341561059557600080fd5b610616600480803590602001909190803590602001909190803590602001908201803590602001908080601f0160208091040260200160405190810160405280939291908181526020018383808284378201915050505050509190803573ffffffffffffffffffffffffffffffffffffffff16906020019091905050610bdb565b005b341561062357600080fd5b61062b6117c7565b604051808273ffffffffffffffffffffffffffffffffffffffff1673ffffffffffffffffffffffffffffffffffffffff16815260200191505060405180910390f35b341561067857600080fd5b6106806117ec565b60405180826000191660001916815260200191505060405180910390f35b34156106a957600080fd5b610745600480803590602001908201803590602001908080601f0160208091040260200160405190810160405280939291908181526020018383808284378201915050505050509190803590602001908201803590602001908080601f01602080910402602001604051908101604052809392919081815260200183838082843782019150505050505091908035906020019091905050611833565b604051808215151515815260200191505060405180910390f35b600080600061076c61198f565b60008060036000600260008a73ffffffffffffffffffffffffffffffffffffffff1673ffffffffffffffffffffffffffffffffffffffff16815260200190815260200160002054600019166000191681526020019081526020016000209050806000015481600201548260030154836004018460050160009054906101000a900473ffffffffffffffffffffffffffffffffffffffff16818054600181600116156101000203166002900480601f0160208091040260200160405190810160405280929190818152602001828054600181600116156101000203166002900480156108985780601f1061086d57610100808354040283529160200191610898565b820191906000526020600020905b81548152906001019060200180831161087b57829003601f168201915b50505050509150955095509550955095505091939590929450565b60008060036000600260008773ffffffffffffffffffffffffffffffffffffffff1673ffffffffffffffffffffffffffffffffffffffff16815260200190815260200160002054600019166000191681526020019081526020016000209050600081600201541480610929575082816002015411155b80156109485750600081600301541480610947575082816003015410155b5b91505092915050565b600080600061095e61198f565b600080600080886040518082805190602001908083835b60208310151561099a5780518252602082019150602081019050602083039250610975565b6001836020036101000a03801982511681845116808217855250505050505090500191505060405180910390209250896040518082805190602001908083835b6020831015156109ff57805182526020820191506020810190506020830392506109da565b6001836020036101000a038019825116818451168082178552505050505050905001915050604051809103902091506003600084846040518083600019166000191681526020018260001916600019168152602001925050506040518091039020600019166000191681526020019081526020016000209050806000015481600201548260030154836004018460050160009054906101000a900473ffffffffffffffffffffffffffffffffffffffff16818054600181600116156101000203166002900480601f016020809104026020016040519081016040528092919081815260200182805460018160011615610100020316600290048015610b455780601f10610b1a57610100808354040283529160200191610b45565b820191906000526020600020905b815481529060010190602001808311610b2857829003601f168201915b50505050509150975097509750975097505050509295509295909350565b60015481565b6003602052806000526040600020600091509050806000015490806001019080600201549080600301549080600401908060050160009054906101000a900473ffffffffffffffffffffffffffffffffffffffff16905086565b60026020528060005260406000206000915090505481565b600080600080600086600080610bef6117ec565b91506000600102826000191614151515610c0857600080fd5b818360405180836000191660001916815260200182805190602001908083835b602083101515610c4d5780518252602082019150602081019050602083039250610c28565b6001836020036101000a0380198251168184511680821785525050505050509050019250505060405180910390209050600060010260036000836000191660001916815260200190815260200160002060000154600019161480610cd6575081600019166003600083600019166000191681526020019081526020016000206000015460001916145b1515610ce157600080fd5b60008973ffffffffffffffffffffffffffffffffffffffff1614151515610d0757600080fd5b610d0f6117ec565b9750896040518082805190602001908083835b602083101515610d475780518252602082019150602081019050602083039250610d22565b6001836020036101000a0380198251168184511680821785525050505050509050019150506040518091039020965087876040518083600019166000191681526020018260001916600019168152602001925050506040518091039020955088604051808273ffffffffffffffffffffffffffffffffffffffff1673ffffffffffffffffffffffffffffffffffffffff166c010000000000000000000000000281526014019150506040518091039020945060036000876000191660001916815260200190815260200160002060050160009054906101000a900473ffffffffffffffffffffffffffffffffffffffff16935060008473ffffffffffffffffffffffffffffffffffffffff1614156112285785600260008b73ffffffffffffffffffffffffffffffffffffffff1673ffffffffffffffffffffffffffffffffffffffff168152602001908152602001600020816000191690555060c06040519081016040528089600019168152602001600360008b600019166000191681526020019081526020016000206004018054600181600116156101000203166002900480601f016020809104026020016040519081016040528092919081815260200182805460018160011615610100020316600290048015610f695780601f10610f3e57610100808354040283529160200191610f69565b820191906000526020600020905b815481529060010190602001808311610f4c57829003601f168201915b505050505081526020018d81526020018c81526020018b81526020018a73ffffffffffffffffffffffffffffffffffffffff16815250600360008860001916600019168152602001908152602001600020600082015181600001906000191690556020820151816001019080519060200190610fe69291906119a3565b50604082015181600201556060820151816003015560808201518160040190805190602001906110179291906119a3565b5060a08201518160050160006101000a81548173ffffffffffffffffffffffffffffffffffffffff021916908373ffffffffffffffffffffffffffffffffffffffff16021790555090505060c06040519081016040528089600019168152602001600360008b600019166000191681526020019081526020016000206004018054600181600116156101000203166002900480601f01602080910402602001604051908101604052809291908181526020018280546001816001161561010002031660029004801561112a5780601f106110ff5761010080835404028352916020019161112a565b820191906000526020600020905b81548152906001019060200180831161110d57829003601f168201915b505050505081526020018d81526020018c81526020018b81526020018a73ffffffffffffffffffffffffffffffffffffffff168152506003600087600019166000191681526020019081526020016000206000820151816000019060001916905560208201518160010190805190602001906111a79291906119a3565b50604082015181600201556060820151816003015560808201518160040190805190602001906111d89291906119a3565b5060a08201518160050160006101000a81548173ffffffffffffffffffffffffffffffffffffffff021916908373ffffffffffffffffffffffffffffffffffffffff160217905550905050611661565b8873ffffffffffffffffffffffffffffffffffffffff168473ffffffffffffffffffffffffffffffffffffffff161415156115d457600260008573ffffffffffffffffffffffffffffffffffffffff1673ffffffffffffffffffffffffffffffffffffffff1681526020019081526020016000206000905585600260008b73ffffffffffffffffffffffffffffffffffffffff1673ffffffffffffffffffffffffffffffffffffffff16815260200190815260200160002081600019169055508860036000886000191660001916815260200190815260200160002060050160006101000a81548173ffffffffffffffffffffffffffffffffffffffff021916908373ffffffffffffffffffffffffffffffffffffffff1602179055506003600085604051808273ffffffffffffffffffffffffffffffffffffffff1673ffffffffffffffffffffffffffffffffffffffff166c010000000000000000000000000281526014019150506040518091039020600019166000191681526020019081526020016000206000808201600090556001820160006113c99190611a23565b600282016000905560038201600090556004820160006113e99190611a23565b6005820160006101000a81549073ffffffffffffffffffffffffffffffffffffffff0219169055505060c06040519081016040528089600019168152602001600360008b600019166000191681526020019081526020016000206004018054600181600116156101000203166002900480601f0160208091040260200160405190810160405280929190818152602001828054600181600116156101000203166002900480156114da5780601f106114af576101008083540402835291602001916114da565b820191906000526020600020905b8154815290600101906020018083116114bd57829003601f168201915b505050505081526020018d81526020018c81526020018b81526020018a73ffffffffffffffffffffffffffffffffffffffff168152506003600087600019166000191681526020019081526020016000206000820151816000019060001916905560208201518160010190805190602001906115579291906119a3565b50604082015181600201556060820151816003015560808201518160040190805190602001906115889291906119a3565b5060a08201518160050160006101000a81548173ffffffffffffffffffffffffffffffffffffffff021916908373ffffffffffffffffffffffffffffffffffffffff1602179055509050505b8b600360008860001916600019168152602001908152602001600020600201819055508a600360008860001916600019168152602001908152602001600020600301819055508b600360008760001916600019168152602001908152602001600020600201819055508a600360008760001916600019168152602001908152602001600020600301819055505b85600019167f5afbb161e58638c8c297dbc20300c354cf7826e910ad578575372e1a38ca180c8b600360008c600019166000191681526020019081526020016000206004018f8f604051808060200180602001858152602001848152602001838103835287818151815260200191508051906020019080838360005b838110156116f85780820151818401526020810190506116dd565b50505050905090810190601f1680156117255780820380516001836020036101000a031916815260200191505b508381038252868181546001816001161561010002031660029004815260200191508054600181600116156101000203166002900480156117a75780601f1061177c576101008083540402835291602001916117a7565b820191906000526020600020905b81548152906001019060200180831161178a57829003601f168201915b5050965050505050505060405180910390a2505050505050505050505050565b6000809054906101000a900473ffffffffffffffffffffffffffffffffffffffff1681565b6000600260003373ffffffffffffffffffffffffffffffffffffffff1673ffffffffffffffffffffffffffffffffffffffff16815260200190815260200160002054905090565b600080600080856040518082805190602001908083835b60208310151561186f578051825260208201915060208101905060208303925061184a565b6001836020036101000a03801982511681845116808217855250505050505090500191505060405180910390209250866040518082805190602001908083835b6020831015156118d457805182526020820191506020810190506020830392506118af565b6001836020036101000a038019825116818451168082178552505050505050905001915050604051809103902091506003600084846040518083600019166000191681526020018260001916600019168152602001925050506040518091039020600019166000191681526020019081526020016000209050600081600201541480611964575084816002015411155b80156119835750600081600301541480611982575084816003015410155b5b93505050509392505050565b602060405190810160405280600081525090565b828054600181600116156101000203166002900490600052602060002090601f016020900481019282601f106119e457805160ff1916838001178555611a12565b82800160010185558215611a12579182015b82811115611a115782518255916020019190600101906119f6565b5b509050611a1f9190611a6b565b5090565b50805460018160011615610100020316600290046000825580601f10611a495750611a68565b601f016020900490600052602060002090810190611a679190611a6b565b5b50565b611a8d91905b80821115611a89576000816000905550600101611a71565b5090565b905600a165627a7a723058209183b4d9466982fd9cc32d57e04b1f551640e4dd467a5d959d3460c847208e100029",
  "source": "pragma solidity ^0.4.17;\r\n\r\nimport \"./MarketplaceDirectoryInterface.sol\";\r\n\r\ncontract MarketplaceDirectory is MarketplaceDirectoryInterface {\r\n    address public consortiumAddress;\r\n    bytes32 public consortiumNameHash = keccak256(\"Janus Registry\");\r\n    \r\n    struct Participant {\r\n        bytes32 parent;\r\n        string parentName;\r\n        uint effectiveDate;\r\n        uint terminationDate;\r\n        string name;\r\n        address walletAddress;\r\n    }\r\n    \r\n    mapping(address => bytes32) public participantNames;\r\n    mapping(bytes32 => Participant) public participants;\r\n    \r\n    modifier onlyConsortium() {\r\n        require(msg.sender == consortiumAddress);\r\n        _;\r\n    }\r\n    \r\n    modifier onlyParent(string participantName) {\r\n        bytes32 parentHash = callerName();\r\n        require(parentHash != 0);\r\n        bytes32 nameHash = keccak256(parentHash, participantName);\r\n        require(participants[nameHash].parent == 0 || participants[nameHash].parent == parentHash);\r\n        _;\r\n    }\r\n    \r\n    function MarketplaceDirectory() public {\r\n        consortiumAddress = msg.sender;\r\n        participantNames[msg.sender] = consortiumNameHash;\r\n    }\r\n    \r\n    function callerName() public constant returns (bytes32) {\r\n        return participantNames[msg.sender];\r\n    }\r\n    \r\n    function participant(string participantName, string parentName) public constant returns (bytes32 parent, uint effectiveDate , uint terminationDate, string name, address walletAddress) {\r\n        bytes32 parentHash = keccak256(parentName);\r\n        bytes32 nameHash = keccak256(participantName);\r\n        Participant p = participants[keccak256(parentHash, nameHash)];\r\n        return (p.parent, p.effectiveDate, p.terminationDate, p.name, p.walletAddress);\r\n    }\r\n    \r\n    function participant(address participantWalletAddress) public constant returns (bytes32 parent, uint effectiveDate , uint terminationDate, string name, address walletAddress) {\r\n        Participant p = participants[participantNames[participantWalletAddress]];\r\n        return (p.parent, p.effectiveDate, p.terminationDate, p.name, p.walletAddress);\r\n    }\r\n    \r\n    function isParticipantActive(string participantName, string parentName, uint asofDate) public constant returns (bool) {\r\n        bytes32 parentHash = keccak256(parentName);\r\n        bytes32 nameHash = keccak256(participantName);\r\n        Participant p = participants[keccak256(parentHash, nameHash)];\r\n        return ((p.effectiveDate == 0 || p.effectiveDate <= asofDate) && (p.terminationDate == 0 || p.terminationDate >= asofDate));\r\n    }\r\n    \r\n    function isParticipantActive(address participantWalletAddress, uint asofDate) public constant returns (bool) {\r\n        Participant p = participants[participantNames[participantWalletAddress]];\r\n        return ((p.effectiveDate == 0 || p.effectiveDate <= asofDate) && (p.terminationDate == 0 || p.terminationDate >= asofDate));\r\n    }\r\n\r\n    function updateParticipant(uint effectiveDate, uint terminationDate, string participantName, address participantWalletAddress) public onlyParent(participantName) {\r\n        //require(effectiveDate > 0);\r\n        //require(terminationDate > 0);\r\n        require(participantWalletAddress != 0);\r\n\r\n        // TODO support multiple entries for a participant under different companies\r\n        // TODO avoid name collision by creating hierarchy of name\r\n        bytes32 parentHash = callerName();\r\n        bytes32 nameHash = keccak256(participantName);\r\n        bytes32 keyHash = keccak256(parentHash, nameHash);\r\n        bytes32 accountHash = keccak256(participantWalletAddress);\r\n\r\n        address oldAddress = participants[keyHash].walletAddress;\r\n        if (address(oldAddress) == 0) { \r\n            participantNames[participantWalletAddress] = keyHash;\r\n            participants[keyHash] = Participant(\r\n                {parent: parentHash, parentName: participants[parentHash].name, effectiveDate : effectiveDate, terminationDate: terminationDate, name: participantName, walletAddress: participantWalletAddress});\r\n            participants[accountHash] = Participant(\r\n                {parent: parentHash, parentName: participants[parentHash].name, effectiveDate : effectiveDate, terminationDate: terminationDate, name: participantName, walletAddress: participantWalletAddress});\r\n        } else {\r\n            if (address(oldAddress) != participantWalletAddress) {\r\n                delete participantNames[oldAddress];\r\n                participantNames[participantWalletAddress] = keyHash;\r\n                participants[keyHash].walletAddress = participantWalletAddress;\r\n                delete participants[keccak256(oldAddress)];\r\n                participants[accountHash] = Participant(\r\n                    {parent: parentHash, parentName: participants[parentHash].name, effectiveDate : effectiveDate, terminationDate: terminationDate, name: participantName, walletAddress: participantWalletAddress});\r\n            }\r\n            participants[keyHash].effectiveDate = effectiveDate;\r\n            participants[keyHash].terminationDate = terminationDate;\r\n            participants[accountHash].effectiveDate = effectiveDate;\r\n            participants[accountHash].terminationDate = terminationDate;\r\n        }\r\n\r\n        ParticipantUpdated(keyHash, participantName, participants[parentHash].name, effectiveDate, terminationDate);\r\n    } \r\n\r\n    event ParticipantUpdated(bytes32 indexed keyHash, string name, string parentName, uint effectiveDate , uint terminationDate);\r\n}\r\n",
  "sourcePath": "c:\\Code\\BlockChain\\privy\\SmartContracts\\contracts\\MarketplaceDirectory.sol",
  "compiler": {
    "name": "solc",
    "version": "0.4.18+commit.9cf6e910.Emscripten.clang"
  },
  "schemaVersion": "1.0.1",
  "updatedAt": "2018-04-24T05:06:44.392Z"
}