{
  "contractName": "Trade",
  "abi": [
    {
      "constant": false,
      "inputs": [
        {
          "name": "pFactory",
          "type": "address"
        },
        {
          "name": "pGuid",
          "type": "string"
        },
        {
          "name": "pOracleAddress",
          "type": "address"
        },
        {
          "name": "pTradeNumber",
          "type": "uint256"
        }
      ],
      "name": "initialize",
      "outputs": [],
      "payable": false,
      "stateMutability": "nonpayable",
      "type": "function"
    },
    {
      "constant": true,
      "inputs": [],
      "name": "guid",
      "outputs": [
        {
          "name": "",
          "type": "string"
        }
      ],
      "payable": false,
      "stateMutability": "view",
      "type": "function"
    },
    {
      "constant": false,
      "inputs": [
        {
          "name": "observerPartyIndex",
          "type": "uint8"
        },
        {
          "name": "partyAddress",
          "type": "address"
        },
        {
          "name": "companyName",
          "type": "string"
        },
        {
          "name": "pSymKey1",
          "type": "string"
        },
        {
          "name": "pSymKey2",
          "type": "string"
        }
      ],
      "name": "updateParty",
      "outputs": [],
      "payable": false,
      "stateMutability": "nonpayable",
      "type": "function"
    },
    {
      "constant": true,
      "inputs": [
        {
          "name": "",
          "type": "uint256"
        }
      ],
      "name": "fields",
      "outputs": [
        {
          "name": "lastUpdated",
          "type": "uint256"
        },
        {
          "name": "value",
          "type": "string"
        }
      ],
      "payable": false,
      "stateMutability": "view",
      "type": "function"
    },
    {
      "constant": false,
      "inputs": [
        {
          "name": "pPaymentFieldsSymKeyHash",
          "type": "bytes32"
        },
        {
          "name": "pPaymentTerm",
          "type": "string"
        }
      ],
      "name": "updatePaymentInfo",
      "outputs": [],
      "payable": false,
      "stateMutability": "nonpayable",
      "type": "function"
    },
    {
      "constant": false,
      "inputs": [
        {
          "name": "symmetricKeyHash",
          "type": "bytes32"
        },
        {
          "name": "signerKey",
          "type": "string"
        }
      ],
      "name": "acceptInternal",
      "outputs": [],
      "payable": false,
      "stateMutability": "nonpayable",
      "type": "function"
    },
    {
      "constant": true,
      "inputs": [
        {
          "name": "",
          "type": "address"
        }
      ],
      "name": "accessibleSymmetricKeysByUser",
      "outputs": [
        {
          "name": "signature",
          "type": "string"
        }
      ],
      "payable": false,
      "stateMutability": "view",
      "type": "function"
    },
    {
      "constant": false,
      "inputs": [
        {
          "name": "pCommonFieldsSymKeyHash",
          "type": "bytes32"
        },
        {
          "name": "pTradeDate",
          "type": "string"
        },
        {
          "name": "pProduct",
          "type": "string"
        },
        {
          "name": "pQty",
          "type": "string"
        },
        {
          "name": "pPrice",
          "type": "string"
        }
      ],
      "name": "updateData",
      "outputs": [],
      "payable": false,
      "stateMutability": "nonpayable",
      "type": "function"
    },
    {
      "constant": true,
      "inputs": [],
      "name": "getGuid",
      "outputs": [
        {
          "name": "",
          "type": "string"
        }
      ],
      "payable": false,
      "stateMutability": "view",
      "type": "function"
    },
    {
      "constant": true,
      "inputs": [],
      "name": "tradeIsActive",
      "outputs": [
        {
          "name": "",
          "type": "uint256"
        }
      ],
      "payable": false,
      "stateMutability": "view",
      "type": "function"
    },
    {
      "constant": false,
      "inputs": [
        {
          "name": "symmetricKeyHash",
          "type": "bytes32"
        },
        {
          "name": "signerKey",
          "type": "string"
        }
      ],
      "name": "accept",
      "outputs": [],
      "payable": false,
      "stateMutability": "nonpayable",
      "type": "function"
    },
    {
      "constant": true,
      "inputs": [
        {
          "name": "",
          "type": "bytes32"
        },
        {
          "name": "",
          "type": "address"
        }
      ],
      "name": "signer",
      "outputs": [
        {
          "name": "",
          "type": "string"
        }
      ],
      "payable": false,
      "stateMutability": "view",
      "type": "function"
    },
    {
      "constant": true,
      "inputs": [],
      "name": "createdOn",
      "outputs": [
        {
          "name": "",
          "type": "uint256"
        }
      ],
      "payable": false,
      "stateMutability": "view",
      "type": "function"
    },
    {
      "constant": true,
      "inputs": [
        {
          "name": "symmetricKeyHash",
          "type": "bytes32"
        },
        {
          "name": "fieldEnumIndex",
          "type": "uint8"
        }
      ],
      "name": "canEditField",
      "outputs": [
        {
          "name": "",
          "type": "bool"
        }
      ],
      "payable": false,
      "stateMutability": "view",
      "type": "function"
    },
    {
      "constant": true,
      "inputs": [
        {
          "name": "",
          "type": "uint256"
        }
      ],
      "name": "partyOTAddresses",
      "outputs": [
        {
          "name": "",
          "type": "address"
        }
      ],
      "payable": false,
      "stateMutability": "view",
      "type": "function"
    },
    {
      "constant": true,
      "inputs": [],
      "name": "oracleAddress",
      "outputs": [
        {
          "name": "",
          "type": "address"
        }
      ],
      "payable": false,
      "stateMutability": "view",
      "type": "function"
    },
    {
      "constant": true,
      "inputs": [
        {
          "name": "",
          "type": "uint256"
        },
        {
          "name": "",
          "type": "uint256"
        }
      ],
      "name": "SYMKEY_LIST",
      "outputs": [
        {
          "name": "",
          "type": "uint8"
        }
      ],
      "payable": false,
      "stateMutability": "view",
      "type": "function"
    },
    {
      "constant": true,
      "inputs": [
        {
          "name": "",
          "type": "bytes32"
        },
        {
          "name": "",
          "type": "uint256"
        }
      ],
      "name": "accessibleFieldsBySymKey",
      "outputs": [
        {
          "name": "",
          "type": "uint8"
        }
      ],
      "payable": false,
      "stateMutability": "view",
      "type": "function"
    },
    {
      "constant": false,
      "inputs": [
        {
          "name": "symmetricKeyHash",
          "type": "bytes32"
        }
      ],
      "name": "cancel",
      "outputs": [],
      "payable": false,
      "stateMutability": "nonpayable",
      "type": "function"
    },
    {
      "constant": true,
      "inputs": [
        {
          "name": "pFieldName",
          "type": "uint8"
        }
      ],
      "name": "getFieldValues",
      "outputs": [
        {
          "name": "lastUpdated",
          "type": "uint256"
        },
        {
          "name": "value",
          "type": "string"
        }
      ],
      "payable": false,
      "stateMutability": "view",
      "type": "function"
    },
    {
      "constant": true,
      "inputs": [
        {
          "name": "requiredParties",
          "type": "uint8[]"
        }
      ],
      "name": "hasAllPartiesSigned",
      "outputs": [
        {
          "name": "",
          "type": "bool"
        }
      ],
      "payable": false,
      "stateMutability": "view",
      "type": "function"
    },
    {
      "constant": true,
      "inputs": [
        {
          "name": "partyAddress",
          "type": "address"
        },
        {
          "name": "symKeyIndex",
          "type": "uint256"
        }
      ],
      "name": "getAccessibleSymmetricKeyForParty",
      "outputs": [
        {
          "name": "",
          "type": "string"
        }
      ],
      "payable": false,
      "stateMutability": "view",
      "type": "function"
    },
    {
      "constant": true,
      "inputs": [
        {
          "name": "",
          "type": "bytes32"
        },
        {
          "name": "",
          "type": "address"
        }
      ],
      "name": "signatures",
      "outputs": [
        {
          "name": "",
          "type": "uint256"
        }
      ],
      "payable": false,
      "stateMutability": "view",
      "type": "function"
    },
    {
      "constant": true,
      "inputs": [],
      "name": "tradeNumber",
      "outputs": [
        {
          "name": "",
          "type": "uint256"
        }
      ],
      "payable": false,
      "stateMutability": "view",
      "type": "function"
    },
    {
      "constant": true,
      "inputs": [],
      "name": "tradeFactory",
      "outputs": [
        {
          "name": "",
          "type": "address"
        }
      ],
      "payable": false,
      "stateMutability": "view",
      "type": "function"
    },
    {
      "inputs": [],
      "payable": false,
      "stateMutability": "nonpayable",
      "type": "constructor"
    }
  ],
  "bytecode": "0x606060405261010060405190810160405280600060088111156200001f57fe5b60ff1660ff168152602001600160088111156200003857fe5b60ff1660ff168152602001600260088111156200005157fe5b60ff1660ff168152602001600360088111156200006a57fe5b60ff1660ff168152602001600460088111156200008357fe5b60ff1660ff168152602001600560088111156200009c57fe5b60ff1660ff16815260200160066008811115620000b557fe5b60ff1660ff16815260200160076008811115620000ce57fe5b60ff1660ff16815250600b906008620000e992919062000197565b506040805190810160405280600060088111156200010357fe5b60ff1660ff1681526020016008808111156200011b57fe5b60ff1660ff16815250600c9060026200013692919062000245565b506040805190810160405280600160038111156200015057fe5b60ff1660ff168152602001600260038111156200016957fe5b60ff1660ff16815250600d9060026200018492919062000245565b5034156200019157600080fd5b62000326565b82805482825590600052602060002090601f01602090048101928215620002325791602002820160005b838211156200020157835183826101000a81548160ff021916908360ff1602179055509260200192600101602081600001049283019260010302620001c1565b8015620002305782816101000a81549060ff021916905560010160208160000104928301926001030262000201565b505b509050620002419190620002f3565b5090565b82805482825590600052602060002090601f01602090048101928215620002e05791602002820160005b83821115620002af57835183826101000a81548160ff021916908360ff16021790555092602001926001016020816000010492830192600103026200026f565b8015620002de5782816101000a81549060ff0219169055600101602081600001049283019260010302620002af565b505b509050620002ef9190620002f3565b5090565b6200032391905b808211156200031f57600081816101000a81549060ff021916905550600101620002fa565b5090565b90565b61310180620003366000396000f300606060405260043610610149576000357c0100000000000000000000000000000000000000000000000000000000900463ffffffff168063021a44051461014e5780630ae6d46b146101f25780630d83d05314610280578063191378561461038e57806336f253eb1461044e5780634806be80146104b85780634c520cde146105225780636fdd82cf146105f157806373eba75f14610724578063740d1634146107b257806383751cfd146107db5780638a3646e3146108455780639f2ce59414610904578063a34b2fb51461092d578063a4f923e014610978578063a89ae4ba146109db578063b06ad1f214610a30578063b50dde3414610a76578063c4d252f514610ac0578063ca75d5da14610ae7578063cb3deec014610b8d578063d17a7c1a14610bff578063dc18fa9514610cba578063de5480ce14610d14578063e5e19b4a14610d3d575b600080fd5b341561015957600080fd5b6101f0600480803573ffffffffffffffffffffffffffffffffffffffff1690602001909190803590602001908201803590602001908080601f0160208091040260200160405190810160405280939291908181526020018383808284378201915050505050509190803573ffffffffffffffffffffffffffffffffffffffff16906020019091908035906020019091905050610d92565b005b34156101fd57600080fd5b610205610f7c565b6040518080602001828103825283818151815260200191508051906020019080838360005b8381101561024557808201518184015260208101905061022a565b50505050905090810190601f1680156102725780820380516001836020036101000a031916815260200191505b509250505060405180910390f35b341561028b57600080fd5b61038c600480803560ff1690602001909190803573ffffffffffffffffffffffffffffffffffffffff1690602001909190803590602001908201803590602001908080601f0160208091040260200160405190810160405280939291908181526020018383808284378201915050505050509190803590602001908201803590602001908080601f0160208091040260200160405190810160405280939291908181526020018383808284378201915050505050509190803590602001908201803590602001908080601f0160208091040260200160405190810160405280939291908181526020018383808284378201915050505050509190505061101a565b005b341561039957600080fd5b6103af6004808035906020019091905050611605565b604051808381526020018060200182810382528381815460018160011615610100020316600290048152602001915080546001816001161561010002031660029004801561043e5780601f106104135761010080835404028352916020019161043e565b820191906000526020600020905b81548152906001019060200180831161042157829003601f168201915b5050935050505060405180910390f35b341561045957600080fd5b6104b660048080356000191690602001909190803590602001908201803590602001908080601f01602080910402602001604051908101604052809392919081815260200183838082843782019150505050505091905050611628565b005b34156104c357600080fd5b61052060048080356000191690602001909190803590602001908201803590602001908080601f01602080910402602001604051908101604052809392919081815260200183838082843782019150505050505091905050611895565b005b341561052d57600080fd5b610559600480803573ffffffffffffffffffffffffffffffffffffffff16906020019091905050611a6c565b60405180806020018281038252838181546001816001161561010002031660029004815260200191508054600181600116156101000203166002900480156105e25780601f106105b7576101008083540402835291602001916105e2565b820191906000526020600020905b8154815290600101906020018083116105c557829003601f168201915b50509250505060405180910390f35b34156105fc57600080fd5b61072260048080356000191690602001909190803590602001908201803590602001908080601f0160208091040260200160405190810160405280939291908181526020018383808284378201915050505050509190803590602001908201803590602001908080601f0160208091040260200160405190810160405280939291908181526020018383808284378201915050505050509190803590602001908201803590602001908080601f0160208091040260200160405190810160405280939291908181526020018383808284378201915050505050509190803590602001908201803590602001908080601f01602080910402602001604051908101604052809392919081815260200183838082843782019150505050505091905050611a89565b005b341561072f57600080fd5b610737611d3f565b6040518080602001828103825283818151815260200191508051906020019080838360005b8381101561077757808201518184015260208101905061075c565b50505050905090810190601f1680156107a45780820380516001836020036101000a031916815260200191505b509250505060405180910390f35b34156107bd57600080fd5b6107c5611de7565b6040518082815260200191505060405180910390f35b34156107e657600080fd5b61084360048080356000191690602001909190803590602001908201803590602001908080601f01602080910402602001604051908101604052809392919081815260200183838082843782019150505050505091905050611ded565b005b341561085057600080fd5b61088960048080356000191690602001909190803573ffffffffffffffffffffffffffffffffffffffff16906020019091905050612046565b6040518080602001828103825283818151815260200191508051906020019080838360005b838110156108c95780820151818401526020810190506108ae565b50505050905090810190601f1680156108f65780820380516001836020036101000a031916815260200191505b509250505060405180910390f35b341561090f57600080fd5b610917612103565b6040518082815260200191505060405180910390f35b341561093857600080fd5b61095e60048080356000191690602001909190803560ff16906020019091905050612109565b604051808215151515815260200191505060405180910390f35b341561098357600080fd5b61099960048080359060200190919050506121a0565b604051808273ffffffffffffffffffffffffffffffffffffffff1673ffffffffffffffffffffffffffffffffffffffff16815260200191505060405180910390f35b34156109e657600080fd5b6109ee6121d3565b604051808273ffffffffffffffffffffffffffffffffffffffff1673ffffffffffffffffffffffffffffffffffffffff16815260200191505060405180910390f35b3415610a3b57600080fd5b610a5a60048080359060200190919080359060200190919050506121f9565b604051808260ff1660ff16815260200191505060405180910390f35b3415610a8157600080fd5b610aa460048080356000191690602001909190803590602001909190505061223b565b604051808260ff1660ff16815260200191505060405180910390f35b3415610acb57600080fd5b610ae560048080356000191690602001909190505061227d565b005b3415610af257600080fd5b610b0b600480803560ff1690602001909190505061254e565b6040518083815260200180602001828103825283818151815260200191508051906020019080838360005b83811015610b51578082015181840152602081019050610b36565b50505050905090810190601f168015610b7e5780820380516001836020036101000a031916815260200191505b50935050505060405180910390f35b3415610b9857600080fd5b610be5600480803590602001908201803590602001908080602002602001604051908101604052809392919081815260200183836020028082843782019150505050505091905050612632565b604051808215151515815260200191505060405180910390f35b3415610c0a57600080fd5b610c3f600480803573ffffffffffffffffffffffffffffffffffffffff169060200190919080359060200190919050506127df565b6040518080602001828103825283818151815260200191508051906020019080838360005b83811015610c7f578082015181840152602081019050610c64565b50505050905090810190601f168015610cac5780820380516001836020036101000a031916815260200191505b509250505060405180910390f35b3415610cc557600080fd5b610cfe60048080356000191690602001909190803573ffffffffffffffffffffffffffffffffffffffff169060200190919050506128e2565b6040518082815260200191505060405180910390f35b3415610d1f57600080fd5b610d27612907565b6040518082815260200191505060405180910390f35b3415610d4857600080fd5b610d5061290d565b604051808273ffffffffffffffffffffffffffffffffffffffff1673ffffffffffffffffffffffffffffffffffffffff16815260200191505060405180910390f35b6000600854141515610da357600080fd5b8260069080519060200190610db9929190612dc4565b5080600a819055504260088190555083600e60006101000a81548173ffffffffffffffffffffffffffffffffffffffff021916908373ffffffffffffffffffffffffffffffffffffffff16021790555081600760006101000a81548173ffffffffffffffffffffffffffffffffffffffff021916908373ffffffffffffffffffffffffffffffffffffffff1602179055506001600f81905550604080519081016040528060016002811115610e6a57fe5b60ff1660ff168152602001600280811115610e8157fe5b60ff1660ff168152506009600060016003811115610e9b57fe5b60ff168152602001908152602001600020906002610eba929190612e44565b50604080519081016040528060016002811115610ed357fe5b60ff1660ff168152602001600280811115610eea57fe5b60ff1660ff168152506009600060026003811115610f0457fe5b60ff168152602001908152602001600020906002610f23929190612e44565b5060206040519081016040528060016002811115610f3d57fe5b60ff1660ff1681525060096000600380811115610f5657fe5b60ff168152602001908152602001600020906001610f75929190612eeb565b5050505050565b60068054600181600116156101000203166002900480601f0160208091040260200160405190810160405280929190818152602001828054600181600116156101000203166002900480156110125780601f10610fe757610100808354040283529160200191611012565b820191906000526020600020905b815481529060010190602001808311610ff557829003601f168201915b505050505081565b6001600f5414151561102b57600080fd5b6110358585612933565b6001600960008760ff16815260200190815260200160002080549050101580156110d95750604051806000019050604051809103902060001916826040518082805190602001908083835b6020831015156110a55780518252602082019150602081019050602083039250611080565b6001836020036101000a03801982511681845116808217855250505050505090500191505060405180910390206000191614155b15611176576110f584600160028111156110ef57fe5b8461298c565b61117582600b80548060200260200160405190810160405280929190818152602001828054801561116b57602002820191906000526020600020906000905b82829054906101000a900460ff1660ff16815260200190600101906020826000010492830192600103820291508084116111345790505b5050505050612a30565b5b6002600960008760ff168152602001908152602001600020805490501015801561121a5750604051806000019050604051809103902060001916816040518082805190602001908083835b6020831015156111e657805182526020820191506020810190506020830392506111c1565b6001836020036101000a03801982511681845116808217855250505050505090500191505060405180910390206000191614155b156112b6576112358460028081111561122f57fe5b8361298c565b6112b581600c8054806020026020016040519081016040528092919081815260200182805480156112ab57602002820191906000526020600020906000905b82829054906101000a900460ff1660ff16815260200190600101906020826000010492830192600103820291508084116112745790505b5050505050612a30565b5b600160038111156112c357fe5b60ff168560ff1614156113375782600080600560088111156112e157fe5b60ff1681526020019081526020016000206001019080519060200190611308929190612dc4565b50426000806005600881111561131a57fe5b60ff16815260200190815260200160002060000181905550611436565b6002600381111561134457fe5b60ff168560ff1614156113b857826000806006600881111561136257fe5b60ff1681526020019081526020016000206001019080519060200190611389929190612dc4565b50426000806006600881111561139b57fe5b60ff16815260200190815260200160002060000181905550611435565b6003808111156113c457fe5b60ff168560ff1614156114345782600080600760088111156113e257fe5b60ff1681526020019081526020016000206001019080519060200190611409929190612dc4565b50426000806007600881111561141b57fe5b60ff168152602001908152602001600020600001819055505b5b5b600e60009054906101000a900473ffffffffffffffffffffffffffffffffffffffff1673ffffffffffffffffffffffffffffffffffffffff163373ffffffffffffffffffffffffffffffffffffffff161415156115fe57600e60009054906101000a900473ffffffffffffffffffffffffffffffffffffffff1673ffffffffffffffffffffffffffffffffffffffff1663d8b96f78600a54600688886040518563ffffffff167c010000000000000000000000000000000000000000000000000000000002815260040180858152602001806020018460ff1681526020018373ffffffffffffffffffffffffffffffffffffffff1673ffffffffffffffffffffffffffffffffffffffff1681526020018281038252858181546001816001161561010002031660029004815260200191508054600181600116156101000203166002900480156115c75780601f1061159c576101008083540402835291602001916115c7565b820191906000526020600020905b8154815290600101906020018083116115aa57829003601f168201915b505095505050505050600060405180830381600087803b15156115e957600080fd5b6102c65a03f115156115fa57600080fd5b5050505b5050505050565b600060205280600052604060002060009150905080600001549080600101905082565b816000806000600260003373ffffffffffffffffffffffffffffffffffffffff1673ffffffffffffffffffffffffffffffffffffffff168152602001908152602001600020600001925060009150600090505b828054905081101561172d57828181548110151561169557fe5b906000526020600020900160405180828054600181600116156101000203166002900480156116fb5780601f106116d95761010080835404028352918201916116fb565b820191906000526020600020905b8154815290600101906020018083116116e7575b505091505060405180910390206000191684600019161415611720576001915061172d565b808060010191505061167b565b6001600f5414151561173e57600080fd5b6117548660088081111561174e57fe5b87612bb5565b61175c612c14565b600e60009054906101000a900473ffffffffffffffffffffffffffffffffffffffff1673ffffffffffffffffffffffffffffffffffffffff16633364283d600a5460066040518363ffffffff167c010000000000000000000000000000000000000000000000000000000002815260040180838152602001806020018281038252838181546001816001161561010002031660029004815260200191508054600181600116156101000203166002900480156118595780601f1061182e57610100808354040283529160200191611859565b820191906000526020600020905b81548152906001019060200180831161183c57829003601f168201915b50509350505050600060405180830381600087803b151561187957600080fd5b6102c65a03f1151561188a57600080fd5b505050505050505050565b816000806000600260003373ffffffffffffffffffffffffffffffffffffffff1673ffffffffffffffffffffffffffffffffffffffff168152602001908152602001600020600001925060009150600090505b828054905081101561199a57828181548110151561190257fe5b906000526020600020900160405180828054600181600116156101000203166002900480156119685780601f10611946576101008083540402835291820191611968565b820191906000526020600020905b815481529060010190602001808311611954575b50509150506040518091039020600019168460001916141561198d576001915061199a565b80806001019150506118e8565b4260036000886000191660001916815260200190815260200160002060003373ffffffffffffffffffffffffffffffffffffffff1673ffffffffffffffffffffffffffffffffffffffff168152602001908152602001600020819055508460046000886000191660001916815260200190815260200160002060003373ffffffffffffffffffffffffffffffffffffffff1673ffffffffffffffffffffffffffffffffffffffff1681526020019081526020016000209080519060200190611a63929190612dc4565b50505050505050565b600260205280600052604060002060009150905080600101905081565b846000806000600260003373ffffffffffffffffffffffffffffffffffffffff1673ffffffffffffffffffffffffffffffffffffffff168152602001908152602001600020600001925060009150600090505b8280549050811015611b8e578281815481101515611af657fe5b90600052602060002090016040518082805460018160011615610100020316600290048015611b5c5780601f10611b3a576101008083540402835291820191611b5c565b820191906000526020600020905b815481529060010190602001808311611b48575b505091505060405180910390206000191684600019161415611b815760019150611b8e565b8080600101915050611adc565b6001600f54141515611b9f57600080fd5b611bb68960016008811115611bb057fe5b8a612bb5565b611bcd8960026008811115611bc757fe5b89612bb5565b611be48960036008811115611bde57fe5b88612bb5565b611bfb8960046008811115611bf557fe5b87612bb5565b611c03612c14565b600e60009054906101000a900473ffffffffffffffffffffffffffffffffffffffff1673ffffffffffffffffffffffffffffffffffffffff16633364283d600a5460066040518363ffffffff167c01000000000000000000000000000000000000000000000000000000000281526004018083815260200180602001828103825283818154600181600116156101000203166002900481526020019150805460018160011615610100020316600290048015611d005780601f10611cd557610100808354040283529160200191611d00565b820191906000526020600020905b815481529060010190602001808311611ce357829003601f168201915b50509350505050600060405180830381600087803b1515611d2057600080fd5b6102c65a03f11515611d3157600080fd5b505050505050505050505050565b611d47612f92565b60068054600181600116156101000203166002900480601f016020809104026020016040519081016040528092919081815260200182805460018160011615610100020316600290048015611ddd5780601f10611db257610100808354040283529160200191611ddd565b820191906000526020600020905b815481529060010190602001808311611dc057829003601f168201915b5050505050905090565b600f5481565b816000806000600260003373ffffffffffffffffffffffffffffffffffffffff1673ffffffffffffffffffffffffffffffffffffffff168152602001908152602001600020600001925060009150600090505b8280549050811015611ef2578281815481101515611e5a57fe5b90600052602060002090016040518082805460018160011615610100020316600290048015611ec05780601f10611e9e576101008083540402835291820191611ec0565b820191906000526020600020905b815481529060010190602001808311611eac575b505091505060405180910390206000191684600019161415611ee55760019150611ef2565b8080600101915050611e40565b6001600f54141515611f0357600080fd5b611f0d8686611895565b600e60009054906101000a900473ffffffffffffffffffffffffffffffffffffffff1673ffffffffffffffffffffffffffffffffffffffff16633364283d600a5460066040518363ffffffff167c0100000000000000000000000000000000000000000000000000000000028152600401808381526020018060200182810382528381815460018160011615610100020316600290048152602001915080546001816001161561010002031660029004801561200a5780601f10611fdf5761010080835404028352916020019161200a565b820191906000526020600020905b815481529060010190602001808311611fed57829003601f168201915b50509350505050600060405180830381600087803b151561202a57600080fd5b6102c65a03f1151561203b57600080fd5b505050505050505050565b6004602052816000526040600020602052806000526040600020600091509150508054600181600116156101000203166002900480601f0160208091040260200160405190810160405280929190818152602001828054600181600116156101000203166002900480156120fb5780601f106120d0576101008083540402835291602001916120fb565b820191906000526020600020905b8154815290600101906020018083116120de57829003601f168201915b505050505081565b60085481565b60008060006005600086600019166000191681526020019081526020016000209150600090505b81805490508160ff16101561219357818160ff1681548110151561215057fe5b90600052602060002090602091828204019190069054906101000a900460ff1660ff168460ff1614156121865760019250612198565b8080600101915050612130565b600092505b505092915050565b60016020528060005260406000206000915054906101000a900473ffffffffffffffffffffffffffffffffffffffff1681565b600760009054906101000a900473ffffffffffffffffffffffffffffffffffffffff1681565b60096020528160005260406000208181548110151561221457fe5b9060005260206000209060209182820401919006915091509054906101000a900460ff1681565b60056020528160005260406000208181548110151561225657fe5b9060005260206000209060209182820401919006915091509054906101000a900460ff1681565b6000816000806000600260003373ffffffffffffffffffffffffffffffffffffffff1673ffffffffffffffffffffffffffffffffffffffff168152602001908152602001600020600001925060009150600090505b82805490508110156123845782818154811015156122ec57fe5b906000526020600020900160405180828054600181600116156101000203166002900480156123525780601f10612330576101008083540402835291820191612352565b820191906000526020600020905b81548152906001019060200180831161233e575b5050915050604051809103902060001916846000191614156123775760019150612384565b80806001019150506122d2565b612403600d8054806020026020016040519081016040528092919081815260200182805480156123f957602002820191906000526020600020906000905b82829054906101000a900460ff1660ff16815260200190600101906020826000010492830192600103820291508084116123c25790505b5050505050612632565b9450841515612546576000600f81905550600e60009054906101000a900473ffffffffffffffffffffffffffffffffffffffff1673ffffffffffffffffffffffffffffffffffffffff16633364283d600a5460066040518363ffffffff167c010000000000000000000000000000000000000000000000000000000002815260040180838152602001806020018281038252838181546001816001161561010002031660029004815260200191508054600181600116156101000203166002900480156125115780601f106124e657610100808354040283529160200191612511565b820191906000526020600020905b8154815290600101906020018083116124f457829003601f168201915b50509350505050600060405180830381600087803b151561253157600080fd5b6102c65a03f1151561254257600080fd5b5050505b505050505050565b6000612558612f92565b6000808460ff168152602001908152602001600020600001546000808560ff168152602001908152602001600020600101808054600181600116156101000203166002900480601f01602080910402602001604051908101604052809291908181526020018280546001816001161561010002031660029004801561261e5780601f106125f35761010080835404028352916020019161261e565b820191906000526020600020905b81548152906001019060200180831161260157829003601f168201915b505050505090508092508193505050915091565b600080600080600092505b84518310156127d25760016000868581518110151561265857fe5b9060200190602002015160ff16815260200190815260200160002060009054906101000a900473ffffffffffffffffffffffffffffffffffffffff169150600260008373ffffffffffffffffffffffffffffffffffffffff1673ffffffffffffffffffffffffffffffffffffffff16815260200190815260200160002060000190506000600360008360008154811015156126ef57fe5b906000526020600020900160405180828054600181600116156101000203166002900480156127555780601f10612733576101008083540402835291820191612755565b820191906000526020600020905b815481529060010190602001808311612741575b505091505060405180910390206000191660001916815260200190815260200160002060008473ffffffffffffffffffffffffffffffffffffffff1673ffffffffffffffffffffffffffffffffffffffff1681526020019081526020016000205414156127c557600093506127d7565b828060010193505061263d565b600193505b505050919050565b6127e7612f92565b600260008473ffffffffffffffffffffffffffffffffffffffff1673ffffffffffffffffffffffffffffffffffffffff1681526020019081526020016000206000018281548110151561283657fe5b90600052602060002090018054600181600116156101000203166002900480601f0160208091040260200160405190810160405280929190818152602001828054600181600116156101000203166002900480156128d55780601f106128aa576101008083540402835291602001916128d5565b820191906000526020600020905b8154815290600101906020018083116128b857829003601f168201915b5050505050905092915050565b6003602052816000526040600020602052806000526040600020600091509150505481565b600a5481565b600e60009054906101000a900473ffffffffffffffffffffffffffffffffffffffff1681565b80600160008460ff16815260200190815260200160002060006101000a81548173ffffffffffffffffffffffffffffffffffffffff021916908373ffffffffffffffffffffffffffffffffffffffff1602179055505050565b6000600260008573ffffffffffffffffffffffffffffffffffffffff1673ffffffffffffffffffffffffffffffffffffffff16815260200190815260200160002060000190506001830160ff16818054905010156129f9576001830160ff1681816129f79190612fa6565b505b81818460ff16815481101515612a0b57fe5b90600052602060002090019080519060200190612a29929190612dc4565b5050505050565b6000600182510360056000856040518082805190602001908083835b602083101515612a715780518252602082019150602081019050602083039250612a4c565b6001836020036101000a038019825116818451168082178552505050505050905001915050604051809103902060001916600019168152602001908152602001600020805490501015612bb057600190505b8151811015612baf5760056000846040518082805190602001908083835b602083101515612b065780518252602082019150602081019050602083039250612ae1565b6001836020036101000a0380198251168184511680821785525050505050509050019150506040518091039020600019166000191681526020019081526020016000208054806001018281612b5b9190612fd2565b91600052602060002090602091828204019190068484815181101515612b7d57fe5b90602001906020020151909190916101000a81548160ff021916908360ff160217905550508080600101915050612ac3565b5b505050565b612bbf8383612109565b15612c0f57426000808460ff16815260200190815260200160002060000181905550806000808460ff1681526020019081526020016000206001019080519060200190612c0d929190612dc4565b505b505050565b612c2960016003811115612c2457fe5b612c40565b612c3e60026003811115612c3957fe5b612c40565b565b6000806000600160008560ff16815260200190815260200160002060009054906101000a900473ffffffffffffffffffffffffffffffffffffffff169250600260008473ffffffffffffffffffffffffffffffffffffffff1673ffffffffffffffffffffffffffffffffffffffff1681526020019081526020016000206000019150600090505b8180549050811015612dbe576000600360008484815481101515612ce757fe5b90600052602060002090016040518082805460018160011615610100020316600290048015612d4d5780601f10612d2b576101008083540402835291820191612d4d565b820191906000526020600020905b815481529060010190602001808311612d39575b505091505060405180910390206000191660001916815260200190815260200160002060008573ffffffffffffffffffffffffffffffffffffffff1673ffffffffffffffffffffffffffffffffffffffff168152602001908152602001600020819055508080600101915050612cc7565b50505050565b828054600181600116156101000203166002900490600052602060002090601f016020900481019282601f10612e0557805160ff1916838001178555612e33565b82800160010185558215612e33579182015b82811115612e32578251825591602001919060010190612e17565b5b509050612e40919061300c565b5090565b82805482825590600052602060002090601f01602090048101928215612eda5791602002820160005b83821115612eab57835183826101000a81548160ff021916908360ff1602179055509260200192600101602081600001049283019260010302612e6d565b8015612ed85782816101000a81549060ff0219169055600101602081600001049283019260010302612eab565b505b509050612ee79190613031565b5090565b82805482825590600052602060002090601f01602090048101928215612f815791602002820160005b83821115612f5257835183826101000a81548160ff021916908360ff1602179055509260200192600101602081600001049283019260010302612f14565b8015612f7f5782816101000a81549060ff0219169055600101602081600001049283019260010302612f52565b505b509050612f8e9190613031565b5090565b602060405190810160405280600081525090565b815481835581811511612fcd57818360005260206000209182019101612fcc9190613061565b5b505050565b81548183558181151161300757601f016020900481601f01602090048360005260206000209182019101613006919061300c565b5b505050565b61302e91905b8082111561302a576000816000905550600101613012565b5090565b90565b61305e91905b8082111561305a57600081816101000a81549060ff021916905550600101613037565b5090565b90565b61308a91905b80821115613086576000818161307d919061308d565b50600101613067565b5090565b90565b50805460018160011615610100020316600290046000825580601f106130b357506130d2565b601f0160209004906000526020600020908101906130d1919061300c565b5b505600a165627a7a723058209bb9dfa072fd8b836de4cdf7fd01f8f0aa8b7a742d1b33fe9c0ad79f436165110029",
  "source": "pragma solidity ^0.4.17;\r\n\r\nimport \"./GovernedSmartContract.sol\";\r\nimport \"./TradeInterface.sol\";\r\nimport \"./FactoryInterface.sol\";\r\n\r\ncontract Trade is GovernedSmartContract, TradeInterface {\r\n    \r\n    uint8[] COMMON_FIELDS = [uint8(Field.unassigned), uint8(Field.tradeDate), uint8(Field.product), uint8(Field.qty), \r\n        uint8(Field.price), uint8(Field.buyer), uint8(Field.seller), uint8(Field.broker)];\r\n\r\n    uint8[] PAYMENT_FIELDS = [uint8(Field.unassigned), uint8(Field.paymentTerm)];\r\n    \r\n    uint8[] signatureRequiredParties = [uint8(Party.Buyer), uint8(Party.Seller)];\r\n    \r\n    //uint public tradeNumber;\r\n    FactoryInterface public tradeFactory;\r\n\r\n\tuint public tradeIsActive;\r\n\r\n\tmodifier onlyIfTradeIsActive() {\r\n\t\trequire(tradeIsActive == 1);\r\n\r\n\t\t_;\r\n\t}\r\n\r\n    function Trade() public {\r\n    }\r\n    \r\n    function initialize(FactoryInterface pFactory, string pGuid,\r\n            address pOracleAddress, uint pTradeNumber) public {\r\n        require(createdOn == 0);\r\n\t\tguid = pGuid;\r\n        tradeNumber = pTradeNumber;\r\n        createdOn = now;\r\n        tradeFactory = pFactory;\r\n        oracleAddress = pOracleAddress;\r\n\t\ttradeIsActive = 1;\r\n\t\tSYMKEY_LIST[uint8(Party.Buyer)] = [uint8(SymKey.commonFields), uint8(SymKey.paymentTerms)];\r\n\t\tSYMKEY_LIST[uint8(Party.Seller)] = [uint8(SymKey.commonFields), uint8(SymKey.paymentTerms)];\r\n\t\tSYMKEY_LIST[uint8(Party.Broker)] = [uint8(SymKey.commonFields)];\r\n    }\r\n    \r\n    function updateData(bytes32 pCommonFieldsSymKeyHash, string pTradeDate, string pProduct, \r\n            string pQty, string pPrice) public onlyByPartiesToTheTransaction(pCommonFieldsSymKeyHash) onlyIfTradeIsActive { //\r\n        updateField(pCommonFieldsSymKeyHash, uint8(Field.tradeDate), pTradeDate);\r\n        updateField(pCommonFieldsSymKeyHash, uint8(Field.product), pProduct);\r\n        updateField(pCommonFieldsSymKeyHash, uint8(Field.qty), pQty);\r\n        updateField(pCommonFieldsSymKeyHash, uint8(Field.price), pPrice);\r\n        resetSignatures();\r\n        tradeFactory.raiseContractFieldUpdated(tradeNumber, guid);\r\n    }\r\n    \r\n    function updatePaymentInfo(bytes32 pPaymentFieldsSymKeyHash, string pPaymentTerm) public onlyByPartiesToTheTransaction(pPaymentFieldsSymKeyHash) onlyIfTradeIsActive { //\r\n        updateField(pPaymentFieldsSymKeyHash, uint8(Field.paymentTerm), pPaymentTerm);\r\n        resetSignatures();\r\n        tradeFactory.raiseContractFieldUpdated(tradeNumber, guid);\r\n    }\r\n    \r\n    function updateParty(uint8 observerPartyIndex, address partyAddress, string companyName, string pSymKey1, string pSymKey2) public onlyIfTradeIsActive { //onlyOracle\r\n        assignOTAddressToParty(observerPartyIndex, partyAddress);\r\n        if(SYMKEY_LIST[observerPartyIndex].length >= 1 && keccak256(pSymKey1) != keccak256(\"\")) {\r\n            grantSymmetricKeyAccessToParty(partyAddress, uint8(SymKey.commonFields), pSymKey1);\r\n            grantFieldAccessToSymmetricKey(pSymKey1, COMMON_FIELDS);\r\n        }\r\n        if(SYMKEY_LIST[observerPartyIndex].length >= 2 && keccak256(pSymKey2) != keccak256(\"\")) {\r\n            grantSymmetricKeyAccessToParty(partyAddress, uint8(SymKey.paymentTerms), pSymKey2);\r\n            grantFieldAccessToSymmetricKey(pSymKey2, PAYMENT_FIELDS);\r\n        }\r\n        if(observerPartyIndex == uint8(Party.Buyer)) {\r\n            //fields[uint8(Field.buyer)].field[keccak256(Field.buyer)] = EncryptedValue({lastUpdated: now, value: companyName});\r\n            fields[uint8(Field.buyer)].value = companyName;\r\n            fields[uint8(Field.buyer)].lastUpdated = now;\r\n        } else if(observerPartyIndex == uint8(Party.Seller)) {\r\n            //fields[uint8(Field.seller)].field[keccak256(Field.seller)] = EncryptedValue({lastUpdated: now, value: companyName});\r\n            fields[uint8(Field.seller)].value = companyName;\r\n            fields[uint8(Field.seller)].lastUpdated = now;\r\n        } else if(observerPartyIndex == uint8(Party.Broker)) {\r\n            //fields[uint8(Field.broker)].field[keccak256(Field.broker)] = EncryptedValue({lastUpdated: now, value: companyName});\r\n            fields[uint8(Field.broker)].value = companyName;\r\n            fields[uint8(Field.broker)].lastUpdated = now;\r\n        }\r\n        if(msg.sender != address(tradeFactory))\r\n            tradeFactory.raiseContractPartyUpdated(tradeNumber, guid, observerPartyIndex, partyAddress);\r\n    }\r\n    \r\n    function getAccessibleSymmetricKeyForParty(address partyAddress, uint symKeyIndex) view public returns (string) {\r\n        return accessibleSymmetricKeysByUser[partyAddress].accessibleSymmetricKeys[symKeyIndex];\r\n    }\r\n    \r\n    function getGuid() view public returns (string) {\r\n        return guid;\r\n    }\r\n    \r\n    function accept(bytes32 symmetricKeyHash, string signerKey) public onlyByPartiesToTheTransaction(symmetricKeyHash) onlyIfTradeIsActive {\r\n        acceptInternal(symmetricKeyHash, signerKey);\r\n        tradeFactory.raiseContractFieldUpdated(tradeNumber, guid);\r\n    }\r\n\r\n\tfunction cancel(bytes32 symmetricKeyHash) public onlyByPartiesToTheTransaction(symmetricKeyHash) {\r\n\t\t\r\n\t\tbool allSigned = hasAllPartiesSigned(signatureRequiredParties);\r\n\r\n\t\tif(!allSigned){ \r\n\t\t\ttradeIsActive = 0;\r\n\t\t\ttradeFactory.raiseContractFieldUpdated(tradeNumber, guid);\r\n\t\t}\r\n\t}\r\n    \r\n    function resetSignatures() internal {\r\n        resetSignature(uint8(Party.Buyer));\r\n        resetSignature(uint8(Party.Seller));\r\n    }\r\n}\r\n",
  "sourcePath": "c:\\Code\\BlockChain\\privy\\SmartContracts\\contracts\\Trade.sol",
  "compiler": {
    "name": "solc",
    "version": "0.4.18+commit.9cf6e910.Emscripten.clang"
  },
  "schemaVersion": "1.0.1",
  "updatedAt": "2018-04-24T05:06:44.400Z"
}