{
  "contractName": "AnonymizedEncryptedSmartContract",
  "abi": [
    {
      "constant": true,
      "inputs": [],
      "name": "guid",
      "outputs": [
        {
          "name": "",
          "type": "string"
        }
      ],
      "payable": false,
      "stateMutability": "view",
      "type": "function"
    },
    {
      "constant": true,
      "inputs": [
        {
          "name": "",
          "type": "uint256"
        }
      ],
      "name": "fields",
      "outputs": [
        {
          "name": "lastUpdated",
          "type": "uint256"
        },
        {
          "name": "value",
          "type": "string"
        }
      ],
      "payable": false,
      "stateMutability": "view",
      "type": "function"
    },
    {
      "constant": false,
      "inputs": [
        {
          "name": "symmetricKeyHash",
          "type": "bytes32"
        },
        {
          "name": "signerKey",
          "type": "string"
        }
      ],
      "name": "acceptInternal",
      "outputs": [],
      "payable": false,
      "stateMutability": "nonpayable",
      "type": "function"
    },
    {
      "constant": true,
      "inputs": [
        {
          "name": "",
          "type": "address"
        }
      ],
      "name": "accessibleSymmetricKeysByUser",
      "outputs": [
        {
          "name": "signature",
          "type": "string"
        }
      ],
      "payable": false,
      "stateMutability": "view",
      "type": "function"
    },
    {
      "constant": true,
      "inputs": [
        {
          "name": "",
          "type": "bytes32"
        },
        {
          "name": "",
          "type": "address"
        }
      ],
      "name": "signer",
      "outputs": [
        {
          "name": "",
          "type": "string"
        }
      ],
      "payable": false,
      "stateMutability": "view",
      "type": "function"
    },
    {
      "constant": true,
      "inputs": [
        {
          "name": "symmetricKeyHash",
          "type": "bytes32"
        },
        {
          "name": "fieldEnumIndex",
          "type": "uint8"
        }
      ],
      "name": "canEditField",
      "outputs": [
        {
          "name": "",
          "type": "bool"
        }
      ],
      "payable": false,
      "stateMutability": "view",
      "type": "function"
    },
    {
      "constant": true,
      "inputs": [
        {
          "name": "",
          "type": "uint256"
        }
      ],
      "name": "partyOTAddresses",
      "outputs": [
        {
          "name": "",
          "type": "address"
        }
      ],
      "payable": false,
      "stateMutability": "view",
      "type": "function"
    },
    {
      "constant": true,
      "inputs": [
        {
          "name": "",
          "type": "bytes32"
        },
        {
          "name": "",
          "type": "uint256"
        }
      ],
      "name": "accessibleFieldsBySymKey",
      "outputs": [
        {
          "name": "",
          "type": "uint8"
        }
      ],
      "payable": false,
      "stateMutability": "view",
      "type": "function"
    },
    {
      "constant": true,
      "inputs": [
        {
          "name": "pFieldName",
          "type": "uint8"
        }
      ],
      "name": "getFieldValues",
      "outputs": [
        {
          "name": "lastUpdated",
          "type": "uint256"
        },
        {
          "name": "value",
          "type": "string"
        }
      ],
      "payable": false,
      "stateMutability": "view",
      "type": "function"
    },
    {
      "constant": true,
      "inputs": [
        {
          "name": "requiredParties",
          "type": "uint8[]"
        }
      ],
      "name": "hasAllPartiesSigned",
      "outputs": [
        {
          "name": "",
          "type": "bool"
        }
      ],
      "payable": false,
      "stateMutability": "view",
      "type": "function"
    },
    {
      "constant": true,
      "inputs": [
        {
          "name": "",
          "type": "bytes32"
        },
        {
          "name": "",
          "type": "address"
        }
      ],
      "name": "signatures",
      "outputs": [
        {
          "name": "",
          "type": "uint256"
        }
      ],
      "payable": false,
      "stateMutability": "view",
      "type": "function"
    }
  ],
  "bytecode": "0x6060604052341561000f57600080fd5b610e7d8061001e6000396000f3006060604052600436106100af576000357c0100000000000000000000000000000000000000000000000000000000900463ffffffff1680630ae6d46b146100b457806319137856146101425780634806be80146102025780634c520cde1461026c5780638a3646e31461033b578063a34b2fb5146103fa578063a4f923e014610445578063b50dde34146104a8578063ca75d5da146104f2578063cb3deec014610598578063dc18fa951461060a575b600080fd5b34156100bf57600080fd5b6100c7610664565b6040518080602001828103825283818151815260200191508051906020019080838360005b838110156101075780820151818401526020810190506100ec565b50505050905090810190601f1680156101345780820380516001836020036101000a031916815260200191505b509250505060405180910390f35b341561014d57600080fd5b6101636004808035906020019091905050610702565b60405180838152602001806020018281038252838181546001816001161561010002031660029004815260200191508054600181600116156101000203166002900480156101f25780601f106101c7576101008083540402835291602001916101f2565b820191906000526020600020905b8154815290600101906020018083116101d557829003601f168201915b5050935050505060405180910390f35b341561020d57600080fd5b61026a60048080356000191690602001909190803590602001908201803590602001908080601f01602080910402602001604051908101604052809392919081815260200183838082843782019150505050505091905050610725565b005b341561027757600080fd5b6102a3600480803573ffffffffffffffffffffffffffffffffffffffff169060200190919050506108fc565b604051808060200182810382528381815460018160011615610100020316600290048152602001915080546001816001161561010002031660029004801561032c5780601f106103015761010080835404028352916020019161032c565b820191906000526020600020905b81548152906001019060200180831161030f57829003601f168201915b50509250505060405180910390f35b341561034657600080fd5b61037f60048080356000191690602001909190803573ffffffffffffffffffffffffffffffffffffffff16906020019091905050610919565b6040518080602001828103825283818151815260200191508051906020019080838360005b838110156103bf5780820151818401526020810190506103a4565b50505050905090810190601f1680156103ec5780820380516001836020036101000a031916815260200191505b509250505060405180910390f35b341561040557600080fd5b61042b60048080356000191690602001909190803560ff169060200190919050506109d6565b604051808215151515815260200191505060405180910390f35b341561045057600080fd5b6104666004808035906020019091905050610a6d565b604051808273ffffffffffffffffffffffffffffffffffffffff1673ffffffffffffffffffffffffffffffffffffffff16815260200191505060405180910390f35b34156104b357600080fd5b6104d6600480803560001916906020019091908035906020019091905050610aa0565b604051808260ff1660ff16815260200191505060405180910390f35b34156104fd57600080fd5b610516600480803560ff16906020019091905050610ae2565b6040518083815260200180602001828103825283818151815260200191508051906020019080838360005b8381101561055c578082015181840152602081019050610541565b50505050905090810190601f1680156105895780820380516001836020036101000a031916815260200191505b50935050505060405180910390f35b34156105a357600080fd5b6105f0600480803590602001908201803590602001908080602002602001604051908101604052809392919081815260200183836020028082843782019150505050505091905050610bc6565b604051808215151515815260200191505060405180910390f35b341561061557600080fd5b61064e60048080356000191690602001909190803573ffffffffffffffffffffffffffffffffffffffff16906020019091905050610d73565b6040518082815260200191505060405180910390f35b60068054600181600116156101000203166002900480601f0160208091040260200160405190810160405280929190818152602001828054600181600116156101000203166002900480156106fa5780601f106106cf576101008083540402835291602001916106fa565b820191906000526020600020905b8154815290600101906020018083116106dd57829003601f168201915b505050505081565b600060205280600052604060002060009150905080600001549080600101905082565b816000806000600260003373ffffffffffffffffffffffffffffffffffffffff1673ffffffffffffffffffffffffffffffffffffffff168152602001908152602001600020600001925060009150600090505b828054905081101561082a57828181548110151561079257fe5b906000526020600020900160405180828054600181600116156101000203166002900480156107f85780601f106107d65761010080835404028352918201916107f8565b820191906000526020600020905b8154815290600101906020018083116107e4575b50509150506040518091039020600019168460001916141561081d576001915061082a565b8080600101915050610778565b4260036000886000191660001916815260200190815260200160002060003373ffffffffffffffffffffffffffffffffffffffff1673ffffffffffffffffffffffffffffffffffffffff168152602001908152602001600020819055508460046000886000191660001916815260200190815260200160002060003373ffffffffffffffffffffffffffffffffffffffff1673ffffffffffffffffffffffffffffffffffffffff16815260200190815260200160002090805190602001906108f3929190610d98565b50505050505050565b600260205280600052604060002060009150905080600101905081565b6004602052816000526040600020602052806000526040600020600091509150508054600181600116156101000203166002900480601f0160208091040260200160405190810160405280929190818152602001828054600181600116156101000203166002900480156109ce5780601f106109a3576101008083540402835291602001916109ce565b820191906000526020600020905b8154815290600101906020018083116109b157829003601f168201915b505050505081565b60008060006005600086600019166000191681526020019081526020016000209150600090505b81805490508160ff161015610a6057818160ff16815481101515610a1d57fe5b90600052602060002090602091828204019190069054906101000a900460ff1660ff168460ff161415610a535760019250610a65565b80806001019150506109fd565b600092505b505092915050565b60016020528060005260406000206000915054906101000a900473ffffffffffffffffffffffffffffffffffffffff1681565b600560205281600052604060002081815481101515610abb57fe5b9060005260206000209060209182820401919006915091509054906101000a900460ff1681565b6000610aec610e18565b6000808460ff168152602001908152602001600020600001546000808560ff168152602001908152602001600020600101808054600181600116156101000203166002900480601f016020809104026020016040519081016040528092919081815260200182805460018160011615610100020316600290048015610bb25780601f10610b8757610100808354040283529160200191610bb2565b820191906000526020600020905b815481529060010190602001808311610b9557829003601f168201915b505050505090508092508193505050915091565b600080600080600092505b8451831015610d6657600160008685815181101515610bec57fe5b9060200190602002015160ff16815260200190815260200160002060009054906101000a900473ffffffffffffffffffffffffffffffffffffffff169150600260008373ffffffffffffffffffffffffffffffffffffffff1673ffffffffffffffffffffffffffffffffffffffff1681526020019081526020016000206000019050600060036000836000815481101515610c8357fe5b90600052602060002090016040518082805460018160011615610100020316600290048015610ce95780601f10610cc7576101008083540402835291820191610ce9565b820191906000526020600020905b815481529060010190602001808311610cd5575b505091505060405180910390206000191660001916815260200190815260200160002060008473ffffffffffffffffffffffffffffffffffffffff1673ffffffffffffffffffffffffffffffffffffffff168152602001908152602001600020541415610d595760009350610d6b565b8280600101935050610bd1565b600193505b505050919050565b6003602052816000526040600020602052806000526040600020600091509150505481565b828054600181600116156101000203166002900490600052602060002090601f016020900481019282601f10610dd957805160ff1916838001178555610e07565b82800160010185558215610e07579182015b82811115610e06578251825591602001919060010190610deb565b5b509050610e149190610e2c565b5090565b602060405190810160405280600081525090565b610e4e91905b80821115610e4a576000816000905550600101610e32565b5090565b905600a165627a7a7230582045b94abcb4f4f91e57b6a0b9cb70e108a15f37272332dc1f315d325c7936ac350029",
  "source": "pragma solidity ^0.4.17;\r\n\r\ncontract AnonymizedEncryptedSmartContract {\r\n\r\n    // //stores an encrypted value along with timestamp of when it was last updated    \r\n    // struct EncryptedValue {\r\n    //     uint lastUpdated;\r\n    //     string value;\r\n    // }\r\n    \r\n    //Stores several encrypted copies of the same data in a map\r\n    struct EncryptedField {\r\n        uint lastUpdated;\r\n        // //Symmetric key => Value \r\n        // mapping(bytes32=> EncryptedValue) field;\r\n        string value;\r\n    }\r\n    struct PartyInfo {\r\n        string[] accessibleSymmetricKeys;\r\n        string signature;\r\n    }\r\n    \r\n    //Field Index -> Field values\r\n    mapping(uint=>EncryptedField) public fields;\r\n    \r\n    //Party index -> One time addresses\r\n    mapping(uint => address) public partyOTAddresses;\r\n    \r\n    //partyOTAddress -> [symkey1, symkey2, symkey3]\r\n    mapping(address => PartyInfo) public accessibleSymmetricKeysByUser;\r\n    \r\n    //symmetricKey => signerAddress => signature\r\n    mapping(bytes32=>mapping(address=>uint)) public signatures;\r\n    mapping(bytes32=>mapping(address=>string)) public signer;\r\n    \r\n    //symmetric key -> List of fields it has access to\r\n    mapping(bytes32=>uint8[]) public accessibleFieldsBySymKey;\r\n    \r\n    string public guid;\r\n\r\n    modifier onlyByPartiesToTheTransaction(bytes32 symmetricKeyHash) {\r\n        string[] accessibleKeys = accessibleSymmetricKeysByUser[msg.sender].accessibleSymmetricKeys;\r\n        bool hasAccess = false;\r\n        for(uint i=0;i<accessibleKeys.length;i++) {\r\n            if(symmetricKeyHash == keccak256(accessibleKeys[i])) {\r\n                hasAccess = true;\r\n                break;\r\n            }\r\n        }\r\n        if(!hasAccess)\r\n            revert;\r\n            \r\n        _;    \r\n    }\r\n\r\n    function canEditField(bytes32 symmetricKeyHash, uint8 fieldEnumIndex) public view returns (bool) {\r\n        uint8[] accessibleFields = accessibleFieldsBySymKey[symmetricKeyHash];\r\n        for(uint8 i=0;i<accessibleFields.length;i++) {\r\n            if(fieldEnumIndex == accessibleFields[i]) {\r\n                return true;\r\n            }\r\n        }\r\n        return false;\r\n    }\r\n    \r\n    //function getFieldValues(bytes32 symmetricKeyHash, uint8 pFieldName) public view returns (uint lastUpdated, string value) {\r\n    function getFieldValues(uint8 pFieldName) public view returns (uint lastUpdated, string value) {\r\n        //(lastUpdated, value)= (fields[pFieldName].lastUpdated, fields[pFieldName].field[keccak256(pFieldName)].value);\r\n        (lastUpdated, value)= (fields[pFieldName].lastUpdated, fields[pFieldName].value);\r\n    }\r\n\r\n    function updateField(bytes32 symmetricKeyHash, uint8 pFieldName, string pEncryptedValue) internal {\r\n        if(canEditField(symmetricKeyHash, pFieldName)) {\r\n            fields[pFieldName].lastUpdated = now;\r\n            //fields[pFieldName].field[keccak256(pFieldName)] = EncryptedValue({lastUpdated: now, value: pEncryptedValue});\r\n            fields[pFieldName].value = pEncryptedValue;\r\n        }\r\n    }\r\n    \r\n    function assignOTAddressToParty(uint8 partyType, address partyAddress) internal {\r\n        partyOTAddresses[partyType] = partyAddress;\r\n    }\r\n    \r\n    function grantSymmetricKeyAccessToParty(address partyAddress, uint8 symKeyIndex, string accessibleSymKey ) internal {\r\n        string[] symKeys = accessibleSymmetricKeysByUser[partyAddress].accessibleSymmetricKeys;\r\n        if(symKeys.length < symKeyIndex+1)\r\n            symKeys.length = symKeyIndex+1;\r\n        symKeys[symKeyIndex]= accessibleSymKey;\r\n    }\r\n    \r\n    function grantFieldAccessToSymmetricKey(string accessibleSymKey, uint8[] fieldEnumIndices) internal  {\r\n        if(accessibleFieldsBySymKey[keccak256(accessibleSymKey)].length < (fieldEnumIndices.length - 1)) {\r\n            for(uint i=1;i< fieldEnumIndices.length;i++)\r\n                accessibleFieldsBySymKey[keccak256(accessibleSymKey)].push(fieldEnumIndices[i]);\r\n        }\r\n    }\r\n    \r\n    function acceptInternal(bytes32 symmetricKeyHash, string signerKey) public onlyByPartiesToTheTransaction(symmetricKeyHash) {\r\n        signatures[symmetricKeyHash][msg.sender] = now;\r\n        signer[symmetricKeyHash][msg.sender] = signerKey;\r\n    }\r\n\r\n    function hasAllPartiesSigned(uint8[] requiredParties) public view returns (bool) {\r\n        for(uint i=0;i<requiredParties.length;i++) {\r\n            address party = partyOTAddresses[uint(requiredParties[i])];\r\n\t\t\t//get the symmetric key for the Party\r\n\t\t\tvar symKeys = accessibleSymmetricKeysByUser[party].accessibleSymmetricKeys;\r\n\r\n            if(signatures[keccak256(symKeys[0])][party] == 0)\r\n             return false;\r\n        }\r\n        return true;\r\n    }\r\n    \r\n    function resetSignature(uint8 partyEnumIndex) internal {\r\n        address party = partyOTAddresses[partyEnumIndex];\r\n        var symmetricKeys = accessibleSymmetricKeysByUser[party].accessibleSymmetricKeys;\r\n        for(uint i=0;i<symmetricKeys.length;i++) {\r\n            signatures[keccak256(symmetricKeys[i])][party] = 0;\r\n        }\r\n    }\r\n}\r\n\r\n",
  "sourcePath": "c:\\Code\\BlockChain\\privy\\SmartContracts\\contracts\\AnonymizedEncryptedSmartContract.sol",
  "compiler": {
    "name": "solc",
    "version": "0.4.18+commit.9cf6e910.Emscripten.clang"
  },
  "schemaVersion": "1.0.1",
  "updatedAt": "2018-04-24T05:06:44.375Z"
}