{
  "contractName": "GovernedSmartContract",
  "abi": [
    {
      "constant": true,
      "inputs": [],
      "name": "guid",
      "outputs": [
        {
          "name": "",
          "type": "string"
        }
      ],
      "payable": false,
      "stateMutability": "view",
      "type": "function"
    },
    {
      "constant": true,
      "inputs": [
        {
          "name": "",
          "type": "uint256"
        }
      ],
      "name": "fields",
      "outputs": [
        {
          "name": "lastUpdated",
          "type": "uint256"
        },
        {
          "name": "value",
          "type": "string"
        }
      ],
      "payable": false,
      "stateMutability": "view",
      "type": "function"
    },
    {
      "constant": false,
      "inputs": [
        {
          "name": "symmetricKeyHash",
          "type": "bytes32"
        },
        {
          "name": "signerKey",
          "type": "string"
        }
      ],
      "name": "acceptInternal",
      "outputs": [],
      "payable": false,
      "stateMutability": "nonpayable",
      "type": "function"
    },
    {
      "constant": true,
      "inputs": [
        {
          "name": "",
          "type": "address"
        }
      ],
      "name": "accessibleSymmetricKeysByUser",
      "outputs": [
        {
          "name": "signature",
          "type": "string"
        }
      ],
      "payable": false,
      "stateMutability": "view",
      "type": "function"
    },
    {
      "constant": true,
      "inputs": [
        {
          "name": "",
          "type": "bytes32"
        },
        {
          "name": "",
          "type": "address"
        }
      ],
      "name": "signer",
      "outputs": [
        {
          "name": "",
          "type": "string"
        }
      ],
      "payable": false,
      "stateMutability": "view",
      "type": "function"
    },
    {
      "constant": true,
      "inputs": [],
      "name": "createdOn",
      "outputs": [
        {
          "name": "",
          "type": "uint256"
        }
      ],
      "payable": false,
      "stateMutability": "view",
      "type": "function"
    },
    {
      "constant": true,
      "inputs": [
        {
          "name": "symmetricKeyHash",
          "type": "bytes32"
        },
        {
          "name": "fieldEnumIndex",
          "type": "uint8"
        }
      ],
      "name": "canEditField",
      "outputs": [
        {
          "name": "",
          "type": "bool"
        }
      ],
      "payable": false,
      "stateMutability": "view",
      "type": "function"
    },
    {
      "constant": true,
      "inputs": [
        {
          "name": "",
          "type": "uint256"
        }
      ],
      "name": "partyOTAddresses",
      "outputs": [
        {
          "name": "",
          "type": "address"
        }
      ],
      "payable": false,
      "stateMutability": "view",
      "type": "function"
    },
    {
      "constant": true,
      "inputs": [],
      "name": "oracleAddress",
      "outputs": [
        {
          "name": "",
          "type": "address"
        }
      ],
      "payable": false,
      "stateMutability": "view",
      "type": "function"
    },
    {
      "constant": true,
      "inputs": [
        {
          "name": "",
          "type": "bytes32"
        },
        {
          "name": "",
          "type": "uint256"
        }
      ],
      "name": "accessibleFieldsBySymKey",
      "outputs": [
        {
          "name": "",
          "type": "uint8"
        }
      ],
      "payable": false,
      "stateMutability": "view",
      "type": "function"
    },
    {
      "constant": true,
      "inputs": [
        {
          "name": "pFieldName",
          "type": "uint8"
        }
      ],
      "name": "getFieldValues",
      "outputs": [
        {
          "name": "lastUpdated",
          "type": "uint256"
        },
        {
          "name": "value",
          "type": "string"
        }
      ],
      "payable": false,
      "stateMutability": "view",
      "type": "function"
    },
    {
      "constant": true,
      "inputs": [
        {
          "name": "requiredParties",
          "type": "uint8[]"
        }
      ],
      "name": "hasAllPartiesSigned",
      "outputs": [
        {
          "name": "",
          "type": "bool"
        }
      ],
      "payable": false,
      "stateMutability": "view",
      "type": "function"
    },
    {
      "constant": true,
      "inputs": [
        {
          "name": "",
          "type": "bytes32"
        },
        {
          "name": "",
          "type": "address"
        }
      ],
      "name": "signatures",
      "outputs": [
        {
          "name": "",
          "type": "uint256"
        }
      ],
      "payable": false,
      "stateMutability": "view",
      "type": "function"
    }
  ],
  "bytecode": "0x6060604052341561000f57600080fd5b610f3d8061001e6000396000f3006060604052600436106100c5576000357c0100000000000000000000000000000000000000000000000000000000900463ffffffff1680630ae6d46b146100ca57806319137856146101585780634806be80146102185780634c520cde146102825780638a3646e3146103515780639f2ce59414610410578063a34b2fb514610439578063a4f923e014610484578063a89ae4ba146104e7578063b50dde341461053c578063ca75d5da14610586578063cb3deec01461062c578063dc18fa951461069e575b600080fd5b34156100d557600080fd5b6100dd6106f8565b6040518080602001828103825283818151815260200191508051906020019080838360005b8381101561011d578082015181840152602081019050610102565b50505050905090810190601f16801561014a5780820380516001836020036101000a031916815260200191505b509250505060405180910390f35b341561016357600080fd5b6101796004808035906020019091905050610796565b60405180838152602001806020018281038252838181546001816001161561010002031660029004815260200191508054600181600116156101000203166002900480156102085780601f106101dd57610100808354040283529160200191610208565b820191906000526020600020905b8154815290600101906020018083116101eb57829003601f168201915b5050935050505060405180910390f35b341561022357600080fd5b61028060048080356000191690602001909190803590602001908201803590602001908080601f016020809104026020016040519081016040528093929190818152602001838380828437820191505050505050919050506107b9565b005b341561028d57600080fd5b6102b9600480803573ffffffffffffffffffffffffffffffffffffffff16906020019091905050610990565b60405180806020018281038252838181546001816001161561010002031660029004815260200191508054600181600116156101000203166002900480156103425780601f1061031757610100808354040283529160200191610342565b820191906000526020600020905b81548152906001019060200180831161032557829003601f168201915b50509250505060405180910390f35b341561035c57600080fd5b61039560048080356000191690602001909190803573ffffffffffffffffffffffffffffffffffffffff169060200190919050506109ad565b6040518080602001828103825283818151815260200191508051906020019080838360005b838110156103d55780820151818401526020810190506103ba565b50505050905090810190601f1680156104025780820380516001836020036101000a031916815260200191505b509250505060405180910390f35b341561041b57600080fd5b610423610a6a565b6040518082815260200191505060405180910390f35b341561044457600080fd5b61046a60048080356000191690602001909190803560ff16906020019091905050610a70565b604051808215151515815260200191505060405180910390f35b341561048f57600080fd5b6104a56004808035906020019091905050610b07565b604051808273ffffffffffffffffffffffffffffffffffffffff1673ffffffffffffffffffffffffffffffffffffffff16815260200191505060405180910390f35b34156104f257600080fd5b6104fa610b3a565b604051808273ffffffffffffffffffffffffffffffffffffffff1673ffffffffffffffffffffffffffffffffffffffff16815260200191505060405180910390f35b341561054757600080fd5b61056a600480803560001916906020019091908035906020019091905050610b60565b604051808260ff1660ff16815260200191505060405180910390f35b341561059157600080fd5b6105aa600480803560ff16906020019091905050610ba2565b6040518083815260200180602001828103825283818151815260200191508051906020019080838360005b838110156105f05780820151818401526020810190506105d5565b50505050905090810190601f16801561061d5780820380516001836020036101000a031916815260200191505b50935050505060405180910390f35b341561063757600080fd5b610684600480803590602001908201803590602001908080602002602001604051908101604052809392919081815260200183836020028082843782019150505050505091905050610c86565b604051808215151515815260200191505060405180910390f35b34156106a957600080fd5b6106e260048080356000191690602001909190803573ffffffffffffffffffffffffffffffffffffffff16906020019091905050610e33565b6040518082815260200191505060405180910390f35b60068054600181600116156101000203166002900480601f01602080910402602001604051908101604052809291908181526020018280546001816001161561010002031660029004801561078e5780601f106107635761010080835404028352916020019161078e565b820191906000526020600020905b81548152906001019060200180831161077157829003601f168201915b505050505081565b600060205280600052604060002060009150905080600001549080600101905082565b816000806000600260003373ffffffffffffffffffffffffffffffffffffffff1673ffffffffffffffffffffffffffffffffffffffff168152602001908152602001600020600001925060009150600090505b82805490508110156108be57828181548110151561082657fe5b9060005260206000209001604051808280546001816001161561010002031660029004801561088c5780601f1061086a57610100808354040283529182019161088c565b820191906000526020600020905b815481529060010190602001808311610878575b5050915050604051809103902060001916846000191614156108b157600191506108be565b808060010191505061080c565b4260036000886000191660001916815260200190815260200160002060003373ffffffffffffffffffffffffffffffffffffffff1673ffffffffffffffffffffffffffffffffffffffff168152602001908152602001600020819055508460046000886000191660001916815260200190815260200160002060003373ffffffffffffffffffffffffffffffffffffffff1673ffffffffffffffffffffffffffffffffffffffff1681526020019081526020016000209080519060200190610987929190610e58565b50505050505050565b600260205280600052604060002060009150905080600101905081565b6004602052816000526040600020602052806000526040600020600091509150508054600181600116156101000203166002900480601f016020809104026020016040519081016040528092919081815260200182805460018160011615610100020316600290048015610a625780601f10610a3757610100808354040283529160200191610a62565b820191906000526020600020905b815481529060010190602001808311610a4557829003601f168201915b505050505081565b60085481565b60008060006005600086600019166000191681526020019081526020016000209150600090505b81805490508160ff161015610afa57818160ff16815481101515610ab757fe5b90600052602060002090602091828204019190069054906101000a900460ff1660ff168460ff161415610aed5760019250610aff565b8080600101915050610a97565b600092505b505092915050565b60016020528060005260406000206000915054906101000a900473ffffffffffffffffffffffffffffffffffffffff1681565b600760009054906101000a900473ffffffffffffffffffffffffffffffffffffffff1681565b600560205281600052604060002081815481101515610b7b57fe5b9060005260206000209060209182820401919006915091509054906101000a900460ff1681565b6000610bac610ed8565b6000808460ff168152602001908152602001600020600001546000808560ff168152602001908152602001600020600101808054600181600116156101000203166002900480601f016020809104026020016040519081016040528092919081815260200182805460018160011615610100020316600290048015610c725780601f10610c4757610100808354040283529160200191610c72565b820191906000526020600020905b815481529060010190602001808311610c5557829003601f168201915b505050505090508092508193505050915091565b600080600080600092505b8451831015610e2657600160008685815181101515610cac57fe5b9060200190602002015160ff16815260200190815260200160002060009054906101000a900473ffffffffffffffffffffffffffffffffffffffff169150600260008373ffffffffffffffffffffffffffffffffffffffff1673ffffffffffffffffffffffffffffffffffffffff1681526020019081526020016000206000019050600060036000836000815481101515610d4357fe5b90600052602060002090016040518082805460018160011615610100020316600290048015610da95780601f10610d87576101008083540402835291820191610da9565b820191906000526020600020905b815481529060010190602001808311610d95575b505091505060405180910390206000191660001916815260200190815260200160002060008473ffffffffffffffffffffffffffffffffffffffff1673ffffffffffffffffffffffffffffffffffffffff168152602001908152602001600020541415610e195760009350610e2b565b8280600101935050610c91565b600193505b505050919050565b6003602052816000526040600020602052806000526040600020600091509150505481565b828054600181600116156101000203166002900490600052602060002090601f016020900481019282601f10610e9957805160ff1916838001178555610ec7565b82800160010185558215610ec7579182015b82811115610ec6578251825591602001919060010190610eab565b5b509050610ed49190610eec565b5090565b602060405190810160405280600081525090565b610f0e91905b80821115610f0a576000816000905550600101610ef2565b5090565b905600a165627a7a723058203e1b27030514545642ea5f41ea43f901272f046f60be58340fa524abfe6df5c50029",
  "source": "pragma solidity ^0.4.17;\r\n\r\nimport \"./AnonymizedEncryptedSmartContract.sol\";\r\n\r\ncontract GovernedSmartContract is AnonymizedEncryptedSmartContract {\r\n\r\n    address public oracleAddress;\r\n    uint public createdOn;\r\n\r\n    modifier onlyOracle() {\r\n        require(msg.sender == oracleAddress);\r\n        _;\r\n    }\r\n}\r\n",
  "sourcePath": "c:\\Code\\BlockChain\\privy\\SmartContracts\\contracts\\GovernedSmartContract.sol",
  "compiler": {
    "name": "solc",
    "version": "0.4.18+commit.9cf6e910.Emscripten.clang"
  },
  "schemaVersion": "1.0.1",
  "updatedAt": "2018-04-24T05:06:44.371Z"
}