{
  "contractName": "TradeFactory",
  "abi": [
    {
      "constant": false,
      "inputs": [
        {
          "name": "pGuid",
          "type": "string"
        },
        {
          "name": "pParty1Type",
          "type": "uint8"
        },
        {
          "name": "pParty1Address",
          "type": "address"
        },
        {
          "name": "pParty1CompanyName",
          "type": "string"
        },
        {
          "name": "pParty1CommonFieldsSymKey",
          "type": "string"
        },
        {
          "name": "pParty1PaymentFieldsSymKey",
          "type": "string"
        },
        {
          "name": "pParty2Type",
          "type": "uint8"
        },
        {
          "name": "pParty2Address",
          "type": "address"
        },
        {
          "name": "pParty2CompanyName",
          "type": "string"
        },
        {
          "name": "pParty2CommonFieldsSymKey",
          "type": "string"
        },
        {
          "name": "pParty2PaymentFieldsSymKey",
          "type": "string"
        }
      ],
      "name": "createTransaction",
      "outputs": [
        {
          "name": "",
          "type": "uint256"
        }
      ],
      "payable": false,
      "stateMutability": "nonpayable",
      "type": "function"
    },
    {
      "constant": false,
      "inputs": [
        {
          "name": "tokenNumber",
          "type": "uint256"
        },
        {
          "name": "guid",
          "type": "string"
        }
      ],
      "name": "raiseContractFieldUpdated",
      "outputs": [],
      "payable": false,
      "stateMutability": "nonpayable",
      "type": "function"
    },
    {
      "constant": true,
      "inputs": [
        {
          "name": "pGuid",
          "type": "string"
        }
      ],
      "name": "getContract",
      "outputs": [
        {
          "name": "",
          "type": "address"
        }
      ],
      "payable": false,
      "stateMutability": "view",
      "type": "function"
    },
    {
      "constant": true,
      "inputs": [],
      "name": "refTrade",
      "outputs": [
        {
          "name": "",
          "type": "address"
        }
      ],
      "payable": false,
      "stateMutability": "view",
      "type": "function"
    },
    {
      "constant": false,
      "inputs": [],
      "name": "buyToken",
      "outputs": [
        {
          "name": "",
          "type": "uint256"
        }
      ],
      "payable": false,
      "stateMutability": "nonpayable",
      "type": "function"
    },
    {
      "constant": true,
      "inputs": [],
      "name": "oracleAddress",
      "outputs": [
        {
          "name": "",
          "type": "address"
        }
      ],
      "payable": false,
      "stateMutability": "view",
      "type": "function"
    },
    {
      "constant": true,
      "inputs": [],
      "name": "nextTradeNumber",
      "outputs": [
        {
          "name": "",
          "type": "uint256"
        }
      ],
      "payable": false,
      "stateMutability": "view",
      "type": "function"
    },
    {
      "constant": false,
      "inputs": [
        {
          "name": "tokenNumber",
          "type": "uint256"
        },
        {
          "name": "guid",
          "type": "string"
        },
        {
          "name": "partyType",
          "type": "uint256"
        },
        {
          "name": "partyAddress",
          "type": "address"
        }
      ],
      "name": "raiseContractPartyUpdated",
      "outputs": [],
      "payable": false,
      "stateMutability": "nonpayable",
      "type": "function"
    },
    {
      "constant": true,
      "inputs": [
        {
          "name": "",
          "type": "bytes32"
        }
      ],
      "name": "contracts",
      "outputs": [
        {
          "name": "",
          "type": "address"
        }
      ],
      "payable": false,
      "stateMutability": "view",
      "type": "function"
    },
    {
      "inputs": [
        {
          "name": "pRefTrade",
          "type": "address"
        }
      ],
      "payable": false,
      "stateMutability": "nonpayable",
      "type": "constructor"
    },
    {
      "anonymous": false,
      "inputs": [
        {
          "indexed": true,
          "name": "tokenNumber",
          "type": "uint256"
        },
        {
          "indexed": true,
          "name": "guid",
          "type": "string"
        }
      ],
      "name": "ContractCreated",
      "type": "event"
    },
    {
      "anonymous": false,
      "inputs": [
        {
          "indexed": true,
          "name": "tokenNumber",
          "type": "uint256"
        },
        {
          "indexed": true,
          "name": "guid",
          "type": "string"
        }
      ],
      "name": "ContractFieldUpdated",
      "type": "event"
    },
    {
      "anonymous": false,
      "inputs": [
        {
          "indexed": true,
          "name": "tokenNumber",
          "type": "uint256"
        },
        {
          "indexed": true,
          "name": "guid",
          "type": "string"
        },
        {
          "indexed": false,
          "name": "partyType",
          "type": "uint256"
        },
        {
          "indexed": false,
          "name": "partyAddress",
          "type": "address"
        }
      ],
      "name": "ContractPartyUpdated",
      "type": "event"
    }
  ],
  "bytecode": "0x6060604052341561000f57600080fd5b6040516020806115598339810160405280805190602001909190505033600160006101000a81548173ffffffffffffffffffffffffffffffffffffffff021916908373ffffffffffffffffffffffffffffffffffffffff1602179055506103e960008190555080600360006101000a81548173ffffffffffffffffffffffffffffffffffffffff021916908373ffffffffffffffffffffffffffffffffffffffff16021790555050611493806100c66000396000f300606060405260043610610099576000357c0100000000000000000000000000000000000000000000000000000000900463ffffffff1680630472908a1461009e5780633364283d146102f7578063358177731461035d5780638a55c022146103fa578063a48217191461044f578063a89ae4ba14610478578063d0b666df146104cd578063d8b96f78146104f6578063ec56a37314610584575b600080fd5b34156100a957600080fd5b6102e1600480803590602001908201803590602001908080601f0160208091040260200160405190810160405280939291908181526020018383808284378201915050505050509190803560ff1690602001909190803573ffffffffffffffffffffffffffffffffffffffff1690602001909190803590602001908201803590602001908080601f0160208091040260200160405190810160405280939291908181526020018383808284378201915050505050509190803590602001908201803590602001908080601f0160208091040260200160405190810160405280939291908181526020018383808284378201915050505050509190803590602001908201803590602001908080601f0160208091040260200160405190810160405280939291908181526020018383808284378201915050505050509190803560ff1690602001909190803573ffffffffffffffffffffffffffffffffffffffff1690602001909190803590602001908201803590602001908080601f0160208091040260200160405190810160405280939291908181526020018383808284378201915050505050509190803590602001908201803590602001908080601f0160208091040260200160405190810160405280939291908181526020018383808284378201915050505050509190803590602001908201803590602001908080601f016020809104026020016040519081016040528093929190818152602001838380828437820191505050505050919050506105eb565b6040518082815260200191505060405180910390f35b341561030257600080fd5b61035b600480803590602001909190803590602001908201803590602001908080601f01602080910402602001604051908101604052809392919081815260200183838082843782019150505050505091905050610eb4565b005b341561036857600080fd5b6103b8600480803590602001908201803590602001908080601f01602080910402602001604051908101604052809392919081815260200183838082843782019150505050505091905050611021565b604051808273ffffffffffffffffffffffffffffffffffffffff1673ffffffffffffffffffffffffffffffffffffffff16815260200191505060405180910390f35b341561040557600080fd5b61040d6110c8565b604051808273ffffffffffffffffffffffffffffffffffffffff1673ffffffffffffffffffffffffffffffffffffffff16815260200191505060405180910390f35b341561045a57600080fd5b6104626110ee565b6040518082815260200191505060405180910390f35b341561048357600080fd5b61048b611105565b604051808273ffffffffffffffffffffffffffffffffffffffff1673ffffffffffffffffffffffffffffffffffffffff16815260200191505060405180910390f35b34156104d857600080fd5b6104e061112b565b6040518082815260200191505060405180910390f35b341561050157600080fd5b610582600480803590602001909190803590602001908201803590602001908080601f0160208091040260200160405190810160405280939291908181526020018383808284378201915050505050509190803590602001909190803573ffffffffffffffffffffffffffffffffffffffff16906020019091905050611134565b005b341561058f57600080fd5b6105a96004808035600019169060200190919050506112e2565b604051808273ffffffffffffffffffffffffffffffffffffffff1673ffffffffffffffffffffffffffffffffffffffff16815260200191505060405180910390f35b600080600160009054906101000a900473ffffffffffffffffffffffffffffffffffffffff1673ffffffffffffffffffffffffffffffffffffffff163373ffffffffffffffffffffffffffffffffffffffff1614151561064a57600080fd5b600360009054906101000a900473ffffffffffffffffffffffffffffffffffffffff16610675611315565b808273ffffffffffffffffffffffffffffffffffffffff1673ffffffffffffffffffffffffffffffffffffffff168152602001915050604051809103906000f08015156106c157600080fd5b90508073ffffffffffffffffffffffffffffffffffffffff1663021a4405308f600160009054906101000a900473ffffffffffffffffffffffffffffffffffffffff1661070c6110ee565b6040518563ffffffff167c0100000000000000000000000000000000000000000000000000000000028152600401808573ffffffffffffffffffffffffffffffffffffffff1673ffffffffffffffffffffffffffffffffffffffff168152602001806020018473ffffffffffffffffffffffffffffffffffffffff1673ffffffffffffffffffffffffffffffffffffffff168152602001838152602001828103825285818151815260200191508051906020019080838360005b838110156107e15780820151818401526020810190506107c6565b50505050905090810190601f16801561080e5780820380516001836020036101000a031916815260200191505b5095505050505050600060405180830381600087803b151561082f57600080fd5b6102c65a03f1151561084057600080fd5b5050508073ffffffffffffffffffffffffffffffffffffffff16630d83d0538d8d8d8d8d6040518663ffffffff167c0100000000000000000000000000000000000000000000000000000000028152600401808660ff1660ff1681526020018573ffffffffffffffffffffffffffffffffffffffff1673ffffffffffffffffffffffffffffffffffffffff168152602001806020018060200180602001848103845287818151815260200191508051906020019080838360005b838110156109155780820151818401526020810190506108fa565b50505050905090810190601f1680156109425780820380516001836020036101000a031916815260200191505b50848103835286818151815260200191508051906020019080838360005b8381101561097b578082015181840152602081019050610960565b50505050905090810190601f1680156109a85780820380516001836020036101000a031916815260200191505b50848103825285818151815260200191508051906020019080838360005b838110156109e15780820151818401526020810190506109c6565b50505050905090810190601f168015610a0e5780820380516001836020036101000a031916815260200191505b5098505050505050505050600060405180830381600087803b1515610a3257600080fd5b6102c65a03f11515610a4357600080fd5b5050508073ffffffffffffffffffffffffffffffffffffffff16630d83d05388888888886040518663ffffffff167c0100000000000000000000000000000000000000000000000000000000028152600401808660ff1660ff1681526020018573ffffffffffffffffffffffffffffffffffffffff1673ffffffffffffffffffffffffffffffffffffffff168152602001806020018060200180602001848103845287818151815260200191508051906020019080838360005b83811015610b18578082015181840152602081019050610afd565b50505050905090810190601f168015610b455780820380516001836020036101000a031916815260200191505b50848103835286818151815260200191508051906020019080838360005b83811015610b7e578082015181840152602081019050610b63565b50505050905090810190601f168015610bab5780820380516001836020036101000a031916815260200191505b50848103825285818151815260200191508051906020019080838360005b83811015610be4578082015181840152602081019050610bc9565b50505050905090810190601f168015610c115780820380516001836020036101000a031916815260200191505b5098505050505050505050600060405180830381600087803b1515610c3557600080fd5b6102c65a03f11515610c4657600080fd5b50505080600260008f6040518082805190602001908083835b602083101515610c845780518252602082019150602081019050602083039250610c5f565b6001836020036101000a03801982511681845116808217855250505050505090500191505060405180910390206000191660001916815260200190815260200160002060006101000a81548173ffffffffffffffffffffffffffffffffffffffff021916908373ffffffffffffffffffffffffffffffffffffffff1602179055508c6040518082805190602001908083835b602083101515610d3b5780518252602082019150602081019050602083039250610d16565b6001836020036101000a03801982511681845116808217855250505050505090500191505060405180910390208173ffffffffffffffffffffffffffffffffffffffff1663de5480ce6000604051602001526040518163ffffffff167c0100000000000000000000000000000000000000000000000000000000028152600401602060405180830381600087803b1515610dd457600080fd5b6102c65a03f11515610de557600080fd5b505050604051805190507f2e713f1a586e05cd751d02861ccaa0326206d8e6de06e1bdb528016cfa2e5d0960405160405180910390a38073ffffffffffffffffffffffffffffffffffffffff1663de5480ce6000604051602001526040518163ffffffff167c0100000000000000000000000000000000000000000000000000000000028152600401602060405180830381600087803b1515610e8757600080fd5b6102c65a03f11515610e9857600080fd5b505050604051805190509150509b9a5050505050505050505050565b8060026000826040518082805190602001908083835b602083101515610eef5780518252602082019150602081019050602083039250610eca565b6001836020036101000a03801982511681845116808217855250505050505090500191505060405180910390206000191660001916815260200190815260200160002060009054906101000a900473ffffffffffffffffffffffffffffffffffffffff1673ffffffffffffffffffffffffffffffffffffffff163373ffffffffffffffffffffffffffffffffffffffff16141515610f8c57600080fd5b816040518082805190602001908083835b602083101515610fc25780518252602082019150602081019050602083039250610f9d565b6001836020036101000a0380198251168184511680821785525050505050509050019150506040518091039020837fd7346347bc79580299f4b385fc333f5b836bc33d9187ae0eb53924c03f93096960405160405180910390a3505050565b600060026000836040518082805190602001908083835b60208310151561105d5780518252602082019150602081019050602083039250611038565b6001836020036101000a03801982511681845116808217855250505050505090500191505060405180910390206000191660001916815260200190815260200160002060009054906101000a900473ffffffffffffffffffffffffffffffffffffffff169050919050565b600360009054906101000a900473ffffffffffffffffffffffffffffffffffffffff1681565b600080600081548092919060010191905055905090565b600160009054906101000a900473ffffffffffffffffffffffffffffffffffffffff1681565b60008054905090565b8260026000826040518082805190602001908083835b60208310151561116f578051825260208201915060208101905060208303925061114a565b6001836020036101000a03801982511681845116808217855250505050505090500191505060405180910390206000191660001916815260200190815260200160002060009054906101000a900473ffffffffffffffffffffffffffffffffffffffff1673ffffffffffffffffffffffffffffffffffffffff163373ffffffffffffffffffffffffffffffffffffffff1614151561120c57600080fd5b836040518082805190602001908083835b602083101515611242578051825260208201915060208101905060208303925061121d565b6001836020036101000a0380198251168184511680821785525050505050509050019150506040518091039020857fc16db0bf9784a80d19db24bb0a3cf8d82caade86f2b66ac85905f8954647357e8585604051808381526020018273ffffffffffffffffffffffffffffffffffffffff1673ffffffffffffffffffffffffffffffffffffffff1681526020019250505060405180910390a35050505050565b60026020528060005260406000206000915054906101000a900473ffffffffffffffffffffffffffffffffffffffff1681565b604051610142806113268339019056006060604052341561000f57600080fd5b60405160208061014283398101604052808051906020019091905050806000806101000a81548173ffffffffffffffffffffffffffffffffffffffff021916908373ffffffffffffffffffffffffffffffffffffffff1602179055505060c88061007a6000396000f300606060405260606000809054906101000a900473ffffffffffffffffffffffffffffffffffffffff166000368080601f0160208091040260200160405190810160405280939291908181526020018383808284378201915050505050506062565b005b813b60008114606f576074565b600080fd5b50611000806000835160208501866127105a03f480600081146094576096565bfe5b50816000f300a165627a7a72305820f43d255e29700340fe3e30105d58199731e05d183465a74071e4e0470322fc6e0029a165627a7a72305820478b937e81887ccd6373124151d6cbadbeb3385fa15f51cab0faf3818a1172690029",
  "source": "pragma solidity ^0.4.17;\r\n\r\nimport \"./DelegateProxy.sol\";\r\nimport \"./TradeInterface.sol\";\r\nimport \"./GovernedSmartContractFactory.sol\";\r\nimport \"./FactoryInterface.sol\";\r\n\r\ncontract TradeFactory is GovernedSmartContractFactory, FactoryInterface {\r\n    address public refTrade;\r\n    function nextTradeNumber() view public returns (uint) {\r\n        return nextTokenNumber;\r\n    }\r\n    \r\n    // function getContract(uint tokenNumber) view public returns(address) {\r\n    //     return contracts[tokenNumber];\r\n    // }\r\n\r\n    function getContract(string pGuid) view public returns(address) {\r\n        return contracts[keccak256(pGuid)];\r\n    }\r\n\r\n\r\n    function TradeFactory(address pRefTrade) public {\r\n        oracleAddress = msg.sender;\r\n        nextTokenNumber = 1001;\r\n        refTrade = pRefTrade;\r\n    }\r\n    \r\n    function createTransaction(string pGuid, uint8 pParty1Type, address pParty1Address, string pParty1CompanyName, string pParty1CommonFieldsSymKey, string pParty1PaymentFieldsSymKey,\r\n        uint8 pParty2Type, address pParty2Address, string pParty2CompanyName, string pParty2CommonFieldsSymKey, string pParty2PaymentFieldsSymKey\r\n        ) public onlyOracle returns (uint) {\r\n        //var tradeProxy = address(new DelegateProxy(refTrade));\r\n        //var tokenNumber = buyToken();\r\n        TradeInterface trade = TradeInterface(address(new DelegateProxy(refTrade)));\r\n        trade.initialize(this, pGuid, oracleAddress, buyToken());\r\n        trade.updateParty(pParty1Type, pParty1Address, pParty1CompanyName, pParty1CommonFieldsSymKey, pParty1PaymentFieldsSymKey);\r\n        trade.updateParty(pParty2Type, pParty2Address, pParty2CompanyName, pParty2CommonFieldsSymKey, pParty2PaymentFieldsSymKey);\r\n        contracts[keccak256(pGuid)] = address(trade);//tradeProxy;\r\n        ContractCreated(trade.tradeNumber(), pGuid);\r\n        return trade.tradeNumber();\r\n    }\r\n    \r\n    function raiseContractFieldUpdated(uint tokenNumber, string guid) public onlyContractOwner(guid) {\r\n        ContractFieldUpdated(tokenNumber, guid);\r\n    }\r\n\r\n    function raiseContractPartyUpdated(uint tokenNumber, string guid, uint partyType, address partyAddress) public onlyContractOwner(guid) {\r\n        ContractPartyUpdated(tokenNumber,guid,partyType,partyAddress);\r\n    }\r\n    \r\n    event ContractCreated(uint indexed tokenNumber, string indexed guid);\r\n    event ContractFieldUpdated(uint indexed tokenNumber, string indexed guid);\r\n    event ContractPartyUpdated(uint indexed tokenNumber, string indexed guid, uint partyType, address partyAddress);\r\n}\r\n",
  "sourcePath": "c:\\Code\\BlockChain\\privy\\SmartContracts\\contracts\\TradeFactory.sol",
  "compiler": {
    "name": "solc",
    "version": "0.4.18+commit.9cf6e910.Emscripten.clang"
  },
  "schemaVersion": "1.0.1",
  "updatedAt": "2018-04-20T04:39:20.061Z"
}