{
  "contractName": "AnonymizedEncryptedSmartContract",
  "abi": [
    {
      "constant": true,
      "inputs": [
        {
          "name": "",
          "type": "address"
        },
        {
          "name": "",
          "type": "uint256"
        }
      ],
      "name": "accessibleSymmetricKeysByUser",
      "outputs": [
        {
          "name": "",
          "type": "string"
        }
      ],
      "payable": false,
      "stateMutability": "view",
      "type": "function"
    },
    {
      "constant": true,
      "inputs": [
        {
          "name": "",
          "type": "uint256"
        }
      ],
      "name": "fields",
      "outputs": [
        {
          "name": "lastUpdated",
          "type": "uint256"
        }
      ],
      "payable": false,
      "stateMutability": "view",
      "type": "function"
    },
    {
      "constant": true,
      "inputs": [
        {
          "name": "",
          "type": "bytes32"
        },
        {
          "name": "",
          "type": "address"
        }
      ],
      "name": "signer",
      "outputs": [
        {
          "name": "",
          "type": "string"
        }
      ],
      "payable": false,
      "stateMutability": "view",
      "type": "function"
    },
    {
      "constant": false,
      "inputs": [
        {
          "name": "symmetricKeyHash",
          "type": "bytes32"
        },
        {
          "name": "fieldEnumIndex",
          "type": "uint8"
        }
      ],
      "name": "canEditField",
      "outputs": [
        {
          "name": "",
          "type": "bool"
        }
      ],
      "payable": false,
      "stateMutability": "nonpayable",
      "type": "function"
    },
    {
      "constant": true,
      "inputs": [
        {
          "name": "",
          "type": "uint256"
        }
      ],
      "name": "partyOTAddresses",
      "outputs": [
        {
          "name": "",
          "type": "address"
        }
      ],
      "payable": false,
      "stateMutability": "view",
      "type": "function"
    },
    {
      "constant": true,
      "inputs": [
        {
          "name": "",
          "type": "bytes32"
        },
        {
          "name": "",
          "type": "uint256"
        }
      ],
      "name": "accessibleFieldsBySymKey",
      "outputs": [
        {
          "name": "",
          "type": "uint8"
        }
      ],
      "payable": false,
      "stateMutability": "view",
      "type": "function"
    },
    {
      "constant": false,
      "inputs": [
        {
          "name": "requiredParties",
          "type": "uint8[]"
        }
      ],
      "name": "hasAllPartiesSigned",
      "outputs": [
        {
          "name": "",
          "type": "bool"
        }
      ],
      "payable": false,
      "stateMutability": "nonpayable",
      "type": "function"
    },
    {
      "constant": true,
      "inputs": [
        {
          "name": "",
          "type": "bytes32"
        },
        {
          "name": "",
          "type": "address"
        }
      ],
      "name": "signatures",
      "outputs": [
        {
          "name": "",
          "type": "uint256"
        }
      ],
      "payable": false,
      "stateMutability": "view",
      "type": "function"
    },
    {
      "constant": false,
      "inputs": [
        {
          "name": "symmetricKey",
          "type": "string"
        },
        {
          "name": "signerKey",
          "type": "string"
        }
      ],
      "name": "acceptInternal",
      "outputs": [],
      "payable": false,
      "stateMutability": "nonpayable",
      "type": "function"
    },
    {
      "constant": true,
      "inputs": [
        {
          "name": "symmetricKeyHash",
          "type": "bytes32"
        },
        {
          "name": "pFieldName",
          "type": "uint8"
        }
      ],
      "name": "getFieldValues",
      "outputs": [
        {
          "name": "lastUpdated",
          "type": "uint256"
        },
        {
          "name": "value",
          "type": "string"
        }
      ],
      "payable": false,
      "stateMutability": "view",
      "type": "function"
    }
  ],
  "bytecode": "0x6060604052341561000f57600080fd5b610f0e8061001e6000396000f3006060604052600436106100a4576000357c0100000000000000000000000000000000000000000000000000000000900463ffffffff168063085271ea146100a957806319137856146101645780638a3646e31461019b578063a34b2fb51461025a578063a4f923e0146102a5578063b50dde3414610308578063cb3deec014610352578063dc18fa95146103c4578063df02bab21461041e578063fe3b059b146104be575b600080fd5b34156100b457600080fd5b6100e9600480803573ffffffffffffffffffffffffffffffffffffffff16906020019091908035906020019091905050610571565b6040518080602001828103825283818151815260200191508051906020019080838360005b8381101561012957808201518184015260208101905061010e565b50505050905090810190601f1680156101565780820380516001836020036101000a031916815260200191505b509250505060405180910390f35b341561016f57600080fd5b610185600480803590602001909190505061063a565b6040518082815260200191505060405180910390f35b34156101a657600080fd5b6101df60048080356000191690602001909190803573ffffffffffffffffffffffffffffffffffffffff16906020019091905050610658565b6040518080602001828103825283818151815260200191508051906020019080838360005b8381101561021f578082015181840152602081019050610204565b50505050905090810190601f16801561024c5780820380516001836020036101000a031916815260200191505b509250505060405180910390f35b341561026557600080fd5b61028b60048080356000191690602001909190803560ff16906020019091905050610715565b604051808215151515815260200191505060405180910390f35b34156102b057600080fd5b6102c660048080359060200190919050506107ac565b604051808273ffffffffffffffffffffffffffffffffffffffff1673ffffffffffffffffffffffffffffffffffffffff16815260200191505060405180910390f35b341561031357600080fd5b6103366004808035600019169060200190919080359060200190919050506107df565b604051808260ff1660ff16815260200191505060405180910390f35b341561035d57600080fd5b6103aa600480803590602001908201803590602001908080602002602001604051908101604052809392919081815260200183836020028082843782019150505050505091905050610821565b604051808215151515815260200191505060405180910390f35b34156103cf57600080fd5b61040860048080356000191690602001909190803573ffffffffffffffffffffffffffffffffffffffff169060200190919050506109cb565b6040518082815260200191505060405180910390f35b341561042957600080fd5b6104bc600480803590602001908201803590602001908080601f0160208091040260200160405190810160405280939291908181526020018383808284378201915050505050509190803590602001908201803590602001908080601f016020809104026020016040519081016040528093929190818152602001838380828437820191505050505050919050506109f0565b005b34156104c957600080fd5b6104ef60048080356000191690602001909190803560ff16906020019091905050610cea565b6040518083815260200180602001828103825283818151815260200191508051906020019080838360005b8381101561053557808201518184015260208101905061051a565b50505050905090810190601f1680156105625780820380516001836020036101000a031916815260200191505b50935050505060405180910390f35b60026020528160005260406000208181548110151561058c57fe5b9060005260206000209001600091509150508054600181600116156101000203166002900480601f0160208091040260200160405190810160405280929190818152602001828054600181600116156101000203166002900480156106325780601f1061060757610100808354040283529160200191610632565b820191906000526020600020905b81548152906001019060200180831161061557829003601f168201915b505050505081565b60006020528060005260406000206000915090508060000154905081565b6004602052816000526040600020602052806000526040600020600091509150508054600181600116156101000203166002900480601f01602080910402602001604051908101604052809291908181526020018280546001816001161561010002031660029004801561070d5780601f106106e25761010080835404028352916020019161070d565b820191906000526020600020905b8154815290600101906020018083116106f057829003601f168201915b505050505081565b60008060006005600086600019166000191681526020019081526020016000209150600090505b81805490508160ff16101561079f57818160ff1681548110151561075c57fe5b90600052602060002090602091828204019190069054906101000a900460ff1660ff168460ff16141561079257600192506107a4565b808060010191505061073c565b600092505b505092915050565b60016020528060005260406000206000915054906101000a900473ffffffffffffffffffffffffffffffffffffffff1681565b6005602052816000526040600020818154811015156107fa57fe5b9060005260206000209060209182820401919006915091509054906101000a900460ff1681565b600080600080600092505b84518310156109be5760016000868581518110151561084757fe5b9060200190602002015160ff16815260200190815260200160002060009054906101000a900473ffffffffffffffffffffffffffffffffffffffff169150600260008373ffffffffffffffffffffffffffffffffffffffff1673ffffffffffffffffffffffffffffffffffffffff16815260200190815260200160002090506000600360008360008154811015156108db57fe5b906000526020600020900160405180828054600181600116156101000203166002900480156109415780601f1061091f576101008083540402835291820191610941565b820191906000526020600020905b81548152906001019060200180831161092d575b505091505060405180910390206000191660001916815260200190815260200160002060008473ffffffffffffffffffffffffffffffffffffffff1673ffffffffffffffffffffffffffffffffffffffff1681526020019081526020016000205414156109b157600093506109c3565b828060010193505061082c565b600193505b505050919050565b6003602052816000526040600020602052806000526040600020600091509150505481565b816000806000600260003373ffffffffffffffffffffffffffffffffffffffff1673ffffffffffffffffffffffffffffffffffffffff168152602001908152602001600020925060009150600090505b8280549050811015610b54578281815481101515610a5a57fe5b90600052602060002090016040518082805460018160011615610100020316600290048015610ac05780601f10610a9e576101008083540402835291820191610ac0565b820191906000526020600020905b815481529060010190602001808311610aac575b5050915050604051809103902060001916846040518082805190602001908083835b602083101515610b075780518252602082019150602081019050602083039250610ae2565b6001836020036101000a0380198251168184511680821785525050505050509050019150506040518091039020600019161415610b475760019150610b54565b8080600101915050610a40565b4260036000886040518082805190602001908083835b602083101515610b8f5780518252602082019150602081019050602083039250610b6a565b6001836020036101000a03801982511681845116808217855250505050505090500191505060405180910390206000191660001916815260200190815260200160002060003373ffffffffffffffffffffffffffffffffffffffff1673ffffffffffffffffffffffffffffffffffffffff168152602001908152602001600020819055508460046000886040518082805190602001908083835b602083101515610c4e5780518252602082019150602081019050602083039250610c29565b6001836020036101000a03801982511681845116808217855250505050505090500191505060405180910390206000191660001916815260200190815260200160002060003373ffffffffffffffffffffffffffffffffffffffff1673ffffffffffffffffffffffffffffffffffffffff1681526020019081526020016000209080519060200190610ce1929190610e29565b50505050505050565b6000610cf4610ea9565b6000808460ff168152602001908152602001600020600001546000808560ff168152602001908152602001600020600101600085604051808260ff1660ff167f0100000000000000000000000000000000000000000000000000000000000000028152600101915050604051809103902060001916600019168152602001908152602001600020600101808054600181600116156101000203166002900480601f016020809104026020016040519081016040528092919081815260200182805460018160011615610100020316600290048015610e135780601f10610de857610100808354040283529160200191610e13565b820191906000526020600020905b815481529060010190602001808311610df657829003601f168201915b5050505050905080925081935050509250929050565b828054600181600116156101000203166002900490600052602060002090601f016020900481019282601f10610e6a57805160ff1916838001178555610e98565b82800160010185558215610e98579182015b82811115610e97578251825591602001919060010190610e7c565b5b509050610ea59190610ebd565b5090565b602060405190810160405280600081525090565b610edf91905b80821115610edb576000816000905550600101610ec3565b5090565b905600a165627a7a723058200d6514f27d232138f1f7a9e6260a06fe5a5f0b6d975927106dbfb4d493c222330029",
  "source": "pragma solidity ^0.4.17;\r\n\r\ncontract AnonymizedEncryptedSmartContract {\r\n\r\n    //stores an encrypted value along with timestamp of when it was last updated    \r\n    struct EncryptedValue {\r\n        uint lastUpdated;\r\n        string value;\r\n    }\r\n    \r\n    //Stores several encrypted copies of the same data in a map\r\n    struct EncryptedField {\r\n        uint lastUpdated;\r\n        //Symmetric key => Value \r\n        mapping(bytes32=> EncryptedValue) field;\r\n    }\r\n    \r\n    //Field Index -> Field values\r\n    mapping(uint=>EncryptedField) public fields;\r\n    \r\n    //Party index -> One time addresses\r\n    mapping(uint => address) public partyOTAddresses;\r\n    \r\n    //partyOTAddress -> [symkey1, symkey2, symkey3]\r\n    mapping(address => string[]) public accessibleSymmetricKeysByUser;\r\n    \r\n    //symmetricKey => signerAddress => signature\r\n    mapping(bytes32=>mapping(address=>uint)) public signatures;\r\n    mapping(bytes32=>mapping(address=>string)) public signer;\r\n    \r\n    //symmetric key -> List of fields it has access to\r\n    mapping(bytes32=>uint8[]) public accessibleFieldsBySymKey;\r\n\r\n    modifier onlyByPartiesToTheTransaction(string symmetricKey) {\r\n        string[] accessibleKeys = accessibleSymmetricKeysByUser[msg.sender];\r\n        bool hasAccess = false;\r\n        for(uint i=0;i<accessibleKeys.length;i++) {\r\n            if(keccak256(symmetricKey) == keccak256(accessibleKeys[i])) {\r\n                hasAccess = true;\r\n                break;\r\n            }\r\n        }\r\n        if(!hasAccess)\r\n            revert;\r\n            \r\n        _;    \r\n    }\r\n\r\n    function canEditField(bytes32 symmetricKeyHash, uint8 fieldEnumIndex) returns (bool) {\r\n        uint8[] fields = accessibleFieldsBySymKey[symmetricKeyHash];\r\n        for(uint8 i=0;i<fields.length;i++) {\r\n            if(fieldEnumIndex == fields[i]) {\r\n                return true;\r\n            }\r\n        }\r\n        return false;\r\n    }\r\n    \r\n    function getFieldValues(bytes32 symmetricKeyHash, uint8 pFieldName) view returns (uint lastUpdated, string value) {\r\n        (lastUpdated, value)= (fields[pFieldName].lastUpdated, fields[pFieldName].field[keccak256(pFieldName)].value);\r\n    }\r\n\r\n    function updateField(bytes32 symmetricKeyHash, uint8 pFieldName, string pEncryptedValue) internal {\r\n        if(canEditField(symmetricKeyHash, pFieldName)) {\r\n            fields[pFieldName].lastUpdated = now;\r\n            fields[pFieldName].field[keccak256(pFieldName)] = EncryptedValue({lastUpdated: now, value: pEncryptedValue});\r\n        }\r\n    }\r\n    \r\n    function assignOTAddressToParty(uint8 partyType, address partyAddress) internal {\r\n        partyOTAddresses[partyType] = partyAddress;\r\n    }\r\n    \r\n    function grantSymmetricKeyAccessToParty(address partyAddress, string accessibleSymKey ) internal {\r\n        accessibleSymmetricKeysByUser[partyAddress].push(accessibleSymKey);\r\n    }\r\n    \r\n    function grantFieldAccessToSymmetricKey(string accessibleSymKey, uint8[] fieldEnumIndices) internal  {\r\n        if(accessibleFieldsBySymKey[keccak256(accessibleSymKey)].length < (fieldEnumIndices.length - 1)) {\r\n            for(uint i=1;i< fieldEnumIndices.length;i++)\r\n                accessibleFieldsBySymKey[keccak256(accessibleSymKey)].push(fieldEnumIndices[i]);\r\n        }\r\n    }\r\n    \r\n    function acceptInternal(string symmetricKey, string signerKey) onlyByPartiesToTheTransaction(symmetricKey) {\r\n        signatures[keccak256(symmetricKey)][msg.sender] = now;\r\n        signer[keccak256(symmetricKey)][msg.sender] = signerKey;\r\n    }\r\n\r\n    function hasAllPartiesSigned(uint8[] requiredParties) returns (bool) {\r\n        for(uint i=0;i<requiredParties.length;i++) {\r\n            address party = partyOTAddresses[uint(requiredParties[i])];\r\n\t\t\t//get the symmetric key for the Party\r\n\t\t\tvar symKeys = accessibleSymmetricKeysByUser[party];\r\n\r\n            if(signatures[keccak256(symKeys[0])][party] == 0)\r\n             return false;\r\n        }\r\n        return true;\r\n    }\r\n    \r\n    function resetSignature(uint8 partyEnumIndex) internal {\r\n        address party = partyOTAddresses[partyEnumIndex];\r\n        var symmetricKeys = accessibleSymmetricKeysByUser[party];\r\n        for(uint i=0;i<symmetricKeys.length;i++) {\r\n            signatures[keccak256(symmetricKeys[i])][party] = 0;\r\n        }\r\n    }\r\n}\r\n",
  "sourcePath": "C:\\Code\\BlockChain\\privy\\Contracts\\contracts\\AnonymizedEncryptedSmartContract.sol",
  "compiler": {
    "name": "solc",
    "version": "0.4.18+commit.9cf6e910.Emscripten.clang"
  },
  "schemaVersion": "1.0.1",
  "updatedAt": "2018-02-12T19:57:11.695Z"
}