{
  "contractName": "GovernedSmartContract",
  "abi": [
    {
      "constant": true,
      "inputs": [
        {
          "name": "",
          "type": "address"
        },
        {
          "name": "",
          "type": "uint256"
        }
      ],
      "name": "accessibleSymmetricKeysByUser",
      "outputs": [
        {
          "name": "",
          "type": "string"
        }
      ],
      "payable": false,
      "stateMutability": "view",
      "type": "function"
    },
    {
      "constant": true,
      "inputs": [
        {
          "name": "",
          "type": "uint256"
        }
      ],
      "name": "fields",
      "outputs": [
        {
          "name": "lastUpdated",
          "type": "uint256"
        }
      ],
      "payable": false,
      "stateMutability": "view",
      "type": "function"
    },
    {
      "constant": true,
      "inputs": [
        {
          "name": "",
          "type": "bytes32"
        },
        {
          "name": "",
          "type": "address"
        }
      ],
      "name": "signer",
      "outputs": [
        {
          "name": "",
          "type": "string"
        }
      ],
      "payable": false,
      "stateMutability": "view",
      "type": "function"
    },
    {
      "constant": true,
      "inputs": [],
      "name": "createdOn",
      "outputs": [
        {
          "name": "",
          "type": "uint256"
        }
      ],
      "payable": false,
      "stateMutability": "view",
      "type": "function"
    },
    {
      "constant": false,
      "inputs": [
        {
          "name": "symmetricKeyHash",
          "type": "bytes32"
        },
        {
          "name": "fieldEnumIndex",
          "type": "uint8"
        }
      ],
      "name": "canEditField",
      "outputs": [
        {
          "name": "",
          "type": "bool"
        }
      ],
      "payable": false,
      "stateMutability": "nonpayable",
      "type": "function"
    },
    {
      "constant": true,
      "inputs": [
        {
          "name": "",
          "type": "uint256"
        }
      ],
      "name": "partyOTAddresses",
      "outputs": [
        {
          "name": "",
          "type": "address"
        }
      ],
      "payable": false,
      "stateMutability": "view",
      "type": "function"
    },
    {
      "constant": true,
      "inputs": [],
      "name": "oracleAddress",
      "outputs": [
        {
          "name": "",
          "type": "address"
        }
      ],
      "payable": false,
      "stateMutability": "view",
      "type": "function"
    },
    {
      "constant": true,
      "inputs": [
        {
          "name": "",
          "type": "bytes32"
        },
        {
          "name": "",
          "type": "uint256"
        }
      ],
      "name": "accessibleFieldsBySymKey",
      "outputs": [
        {
          "name": "",
          "type": "uint8"
        }
      ],
      "payable": false,
      "stateMutability": "view",
      "type": "function"
    },
    {
      "constant": false,
      "inputs": [
        {
          "name": "requiredParties",
          "type": "uint8[]"
        }
      ],
      "name": "hasAllPartiesSigned",
      "outputs": [
        {
          "name": "",
          "type": "bool"
        }
      ],
      "payable": false,
      "stateMutability": "nonpayable",
      "type": "function"
    },
    {
      "constant": true,
      "inputs": [
        {
          "name": "",
          "type": "bytes32"
        },
        {
          "name": "",
          "type": "address"
        }
      ],
      "name": "signatures",
      "outputs": [
        {
          "name": "",
          "type": "uint256"
        }
      ],
      "payable": false,
      "stateMutability": "view",
      "type": "function"
    },
    {
      "constant": false,
      "inputs": [
        {
          "name": "symmetricKey",
          "type": "string"
        },
        {
          "name": "signerKey",
          "type": "string"
        }
      ],
      "name": "acceptInternal",
      "outputs": [],
      "payable": false,
      "stateMutability": "nonpayable",
      "type": "function"
    },
    {
      "constant": true,
      "inputs": [
        {
          "name": "symmetricKeyHash",
          "type": "bytes32"
        },
        {
          "name": "pFieldName",
          "type": "uint8"
        }
      ],
      "name": "getFieldValues",
      "outputs": [
        {
          "name": "lastUpdated",
          "type": "uint256"
        },
        {
          "name": "value",
          "type": "string"
        }
      ],
      "payable": false,
      "stateMutability": "view",
      "type": "function"
    }
  ],
  "bytecode": "0x6060604052341561000f57600080fd5b610fce8061001e6000396000f3006060604052600436106100ba576000357c0100000000000000000000000000000000000000000000000000000000900463ffffffff168063085271ea146100bf578063191378561461017a5780638a3646e3146101b15780639f2ce59414610270578063a34b2fb514610299578063a4f923e0146102e4578063a89ae4ba14610347578063b50dde341461039c578063cb3deec0146103e6578063dc18fa9514610458578063df02bab2146104b2578063fe3b059b14610552575b600080fd5b34156100ca57600080fd5b6100ff600480803573ffffffffffffffffffffffffffffffffffffffff16906020019091908035906020019091905050610605565b6040518080602001828103825283818151815260200191508051906020019080838360005b8381101561013f578082015181840152602081019050610124565b50505050905090810190601f16801561016c5780820380516001836020036101000a031916815260200191505b509250505060405180910390f35b341561018557600080fd5b61019b60048080359060200190919050506106ce565b6040518082815260200191505060405180910390f35b34156101bc57600080fd5b6101f560048080356000191690602001909190803573ffffffffffffffffffffffffffffffffffffffff169060200190919050506106ec565b6040518080602001828103825283818151815260200191508051906020019080838360005b8381101561023557808201518184015260208101905061021a565b50505050905090810190601f1680156102625780820380516001836020036101000a031916815260200191505b509250505060405180910390f35b341561027b57600080fd5b6102836107a9565b6040518082815260200191505060405180910390f35b34156102a457600080fd5b6102ca60048080356000191690602001909190803560ff169060200190919050506107af565b604051808215151515815260200191505060405180910390f35b34156102ef57600080fd5b6103056004808035906020019091905050610846565b604051808273ffffffffffffffffffffffffffffffffffffffff1673ffffffffffffffffffffffffffffffffffffffff16815260200191505060405180910390f35b341561035257600080fd5b61035a610879565b604051808273ffffffffffffffffffffffffffffffffffffffff1673ffffffffffffffffffffffffffffffffffffffff16815260200191505060405180910390f35b34156103a757600080fd5b6103ca60048080356000191690602001909190803590602001909190505061089f565b604051808260ff1660ff16815260200191505060405180910390f35b34156103f157600080fd5b61043e6004808035906020019082018035906020019080806020026020016040519081016040528093929190818152602001838360200280828437820191505050505050919050506108e1565b604051808215151515815260200191505060405180910390f35b341561046357600080fd5b61049c60048080356000191690602001909190803573ffffffffffffffffffffffffffffffffffffffff16906020019091905050610a8b565b6040518082815260200191505060405180910390f35b34156104bd57600080fd5b610550600480803590602001908201803590602001908080601f0160208091040260200160405190810160405280939291908181526020018383808284378201915050505050509190803590602001908201803590602001908080601f01602080910402602001604051908101604052809392919081815260200183838082843782019150505050505091905050610ab0565b005b341561055d57600080fd5b61058360048080356000191690602001909190803560ff16906020019091905050610daa565b6040518083815260200180602001828103825283818151815260200191508051906020019080838360005b838110156105c95780820151818401526020810190506105ae565b50505050905090810190601f1680156105f65780820380516001836020036101000a031916815260200191505b50935050505060405180910390f35b60026020528160005260406000208181548110151561062057fe5b9060005260206000209001600091509150508054600181600116156101000203166002900480601f0160208091040260200160405190810160405280929190818152602001828054600181600116156101000203166002900480156106c65780601f1061069b576101008083540402835291602001916106c6565b820191906000526020600020905b8154815290600101906020018083116106a957829003601f168201915b505050505081565b60006020528060005260406000206000915090508060000154905081565b6004602052816000526040600020602052806000526040600020600091509150508054600181600116156101000203166002900480601f0160208091040260200160405190810160405280929190818152602001828054600181600116156101000203166002900480156107a15780601f10610776576101008083540402835291602001916107a1565b820191906000526020600020905b81548152906001019060200180831161078457829003601f168201915b505050505081565b60075481565b60008060006005600086600019166000191681526020019081526020016000209150600090505b81805490508160ff16101561083957818160ff168154811015156107f657fe5b90600052602060002090602091828204019190069054906101000a900460ff1660ff168460ff16141561082c576001925061083e565b80806001019150506107d6565b600092505b505092915050565b60016020528060005260406000206000915054906101000a900473ffffffffffffffffffffffffffffffffffffffff1681565b600660009054906101000a900473ffffffffffffffffffffffffffffffffffffffff1681565b6005602052816000526040600020818154811015156108ba57fe5b9060005260206000209060209182820401919006915091509054906101000a900460ff1681565b600080600080600092505b8451831015610a7e5760016000868581518110151561090757fe5b9060200190602002015160ff16815260200190815260200160002060009054906101000a900473ffffffffffffffffffffffffffffffffffffffff169150600260008373ffffffffffffffffffffffffffffffffffffffff1673ffffffffffffffffffffffffffffffffffffffff168152602001908152602001600020905060006003600083600081548110151561099b57fe5b90600052602060002090016040518082805460018160011615610100020316600290048015610a015780601f106109df576101008083540402835291820191610a01565b820191906000526020600020905b8154815290600101906020018083116109ed575b505091505060405180910390206000191660001916815260200190815260200160002060008473ffffffffffffffffffffffffffffffffffffffff1673ffffffffffffffffffffffffffffffffffffffff168152602001908152602001600020541415610a715760009350610a83565b82806001019350506108ec565b600193505b505050919050565b6003602052816000526040600020602052806000526040600020600091509150505481565b816000806000600260003373ffffffffffffffffffffffffffffffffffffffff1673ffffffffffffffffffffffffffffffffffffffff168152602001908152602001600020925060009150600090505b8280549050811015610c14578281815481101515610b1a57fe5b90600052602060002090016040518082805460018160011615610100020316600290048015610b805780601f10610b5e576101008083540402835291820191610b80565b820191906000526020600020905b815481529060010190602001808311610b6c575b5050915050604051809103902060001916846040518082805190602001908083835b602083101515610bc75780518252602082019150602081019050602083039250610ba2565b6001836020036101000a0380198251168184511680821785525050505050509050019150506040518091039020600019161415610c075760019150610c14565b8080600101915050610b00565b4260036000886040518082805190602001908083835b602083101515610c4f5780518252602082019150602081019050602083039250610c2a565b6001836020036101000a03801982511681845116808217855250505050505090500191505060405180910390206000191660001916815260200190815260200160002060003373ffffffffffffffffffffffffffffffffffffffff1673ffffffffffffffffffffffffffffffffffffffff168152602001908152602001600020819055508460046000886040518082805190602001908083835b602083101515610d0e5780518252602082019150602081019050602083039250610ce9565b6001836020036101000a03801982511681845116808217855250505050505090500191505060405180910390206000191660001916815260200190815260200160002060003373ffffffffffffffffffffffffffffffffffffffff1673ffffffffffffffffffffffffffffffffffffffff1681526020019081526020016000209080519060200190610da1929190610ee9565b50505050505050565b6000610db4610f69565b6000808460ff168152602001908152602001600020600001546000808560ff168152602001908152602001600020600101600085604051808260ff1660ff167f0100000000000000000000000000000000000000000000000000000000000000028152600101915050604051809103902060001916600019168152602001908152602001600020600101808054600181600116156101000203166002900480601f016020809104026020016040519081016040528092919081815260200182805460018160011615610100020316600290048015610ed35780601f10610ea857610100808354040283529160200191610ed3565b820191906000526020600020905b815481529060010190602001808311610eb657829003601f168201915b5050505050905080925081935050509250929050565b828054600181600116156101000203166002900490600052602060002090601f016020900481019282601f10610f2a57805160ff1916838001178555610f58565b82800160010185558215610f58579182015b82811115610f57578251825591602001919060010190610f3c565b5b509050610f659190610f7d565b5090565b602060405190810160405280600081525090565b610f9f91905b80821115610f9b576000816000905550600101610f83565b5090565b905600a165627a7a72305820bd25da239f3d4104a5e9015f48d68235c179ff7f830154b50d81c0444926a7b50029",
  "source": "pragma solidity ^0.4.17;\r\n\r\nimport \"./AnonymizedEncryptedSmartContract.sol\";\r\n\r\ncontract GovernedSmartContract is AnonymizedEncryptedSmartContract {\r\n\r\n    address public oracleAddress;\r\n    uint public createdOn;\r\n\r\n    modifier onlyOracle() {\r\n        require(msg.sender == oracleAddress);\r\n        _;\r\n    }\r\n}\r\n",
  "sourcePath": "C:\\Code\\BlockChain\\privy\\Contracts\\contracts\\GovernedSmartContract.sol",
  "compiler": {
    "name": "solc",
    "version": "0.4.18+commit.9cf6e910.Emscripten.clang"
  },
  "schemaVersion": "1.0.1",
  "updatedAt": "2018-02-12T19:57:11.698Z"
}