{
  "contractName": "GovernedSmartContractFactory",
  "abi": [
    {
      "constant": true,
      "inputs": [
        {
          "name": "",
          "type": "uint256"
        }
      ],
      "name": "contracts",
      "outputs": [
        {
          "name": "",
          "type": "address"
        }
      ],
      "payable": false,
      "stateMutability": "view",
      "type": "function"
    },
    {
      "constant": false,
      "inputs": [],
      "name": "buyToken",
      "outputs": [
        {
          "name": "",
          "type": "uint256"
        }
      ],
      "payable": false,
      "stateMutability": "nonpayable",
      "type": "function"
    },
    {
      "constant": true,
      "inputs": [],
      "name": "oracleAddress",
      "outputs": [
        {
          "name": "",
          "type": "address"
        }
      ],
      "payable": false,
      "stateMutability": "view",
      "type": "function"
    }
  ],
  "bytecode": "0x6060604052341561000f57600080fd5b6101d98061001e6000396000f300606060405260043610610057576000357c0100000000000000000000000000000000000000000000000000000000900463ffffffff168063474da79a1461005c578063a4821719146100bf578063a89ae4ba146100e8575b600080fd5b341561006757600080fd5b61007d600480803590602001909190505061013d565b604051808273ffffffffffffffffffffffffffffffffffffffff1673ffffffffffffffffffffffffffffffffffffffff16815260200191505060405180910390f35b34156100ca57600080fd5b6100d2610170565b6040518082815260200191505060405180910390f35b34156100f357600080fd5b6100fb610187565b604051808273ffffffffffffffffffffffffffffffffffffffff1673ffffffffffffffffffffffffffffffffffffffff16815260200191505060405180910390f35b60026020528060005260406000206000915054906101000a900473ffffffffffffffffffffffffffffffffffffffff1681565b600080600081548092919060010191905055905090565b600160009054906101000a900473ffffffffffffffffffffffffffffffffffffffff16815600a165627a7a72305820b157662362b6af37d037f3ecd293b7b1b054680c7edb921d9ed28111d7abc5290029",
  "source": "pragma solidity ^0.4.17;\r\n\r\ncontract GovernedSmartContractFactory {\r\n    uint nextTokenNumber;\r\n    address public oracleAddress;\r\n    mapping(uint => address) public contracts;\r\n    \r\n    modifier onlyOracle() {\r\n        require(msg.sender == oracleAddress);\r\n        _;\r\n    }\r\n    \r\n    modifier onlyContractOwner(uint tokenNumber) {\r\n        require(msg.sender == contracts[tokenNumber]);\r\n        _;\r\n    }\r\n\r\n    function buyToken() returns (uint) {\r\n        return nextTokenNumber++;\r\n    }\r\n}\r\n",
  "sourcePath": "C:\\Code\\BlockChain\\privy\\Contracts\\contracts\\GovernedSmartContractFactory.sol",
  "compiler": {
    "name": "solc",
    "version": "0.4.18+commit.9cf6e910.Emscripten.clang"
  },
  "schemaVersion": "1.0.1",
  "updatedAt": "2018-02-12T19:57:11.698Z"
}