{
  "contractName": "MarketplaceDirectory",
  "abi": [
    {
      "constant": true,
      "inputs": [
        {
          "name": "",
          "type": "address"
        }
      ],
      "name": "participantName",
      "outputs": [
        {
          "name": "",
          "type": "bytes32"
        }
      ],
      "payable": false,
      "stateMutability": "view",
      "type": "function"
    },
    {
      "constant": true,
      "inputs": [],
      "name": "consortiumNameHash",
      "outputs": [
        {
          "name": "",
          "type": "bytes32"
        }
      ],
      "payable": false,
      "stateMutability": "view",
      "type": "function"
    },
    {
      "constant": false,
      "inputs": [
        {
          "name": "pName",
          "type": "string"
        }
      ],
      "name": "participant",
      "outputs": [
        {
          "name": "parent",
          "type": "bytes32"
        },
        {
          "name": "effDate",
          "type": "uint256"
        },
        {
          "name": "termDate",
          "type": "uint256"
        },
        {
          "name": "name",
          "type": "string"
        },
        {
          "name": "walletAddress",
          "type": "address"
        }
      ],
      "payable": false,
      "stateMutability": "nonpayable",
      "type": "function"
    },
    {
      "constant": true,
      "inputs": [
        {
          "name": "",
          "type": "bytes32"
        }
      ],
      "name": "participants",
      "outputs": [
        {
          "name": "parent",
          "type": "bytes32"
        },
        {
          "name": "effDate",
          "type": "uint256"
        },
        {
          "name": "termDate",
          "type": "uint256"
        },
        {
          "name": "name",
          "type": "string"
        },
        {
          "name": "walletAddress",
          "type": "address"
        }
      ],
      "payable": false,
      "stateMutability": "view",
      "type": "function"
    },
    {
      "constant": false,
      "inputs": [
        {
          "name": "pEffDate",
          "type": "uint256"
        },
        {
          "name": "pTermDate",
          "type": "uint256"
        },
        {
          "name": "pName",
          "type": "string"
        },
        {
          "name": "pWalletAddress",
          "type": "address"
        }
      ],
      "name": "updateParticipant",
      "outputs": [],
      "payable": false,
      "stateMutability": "nonpayable",
      "type": "function"
    },
    {
      "constant": true,
      "inputs": [],
      "name": "consortiumAddress",
      "outputs": [
        {
          "name": "",
          "type": "address"
        }
      ],
      "payable": false,
      "stateMutability": "view",
      "type": "function"
    },
    {
      "constant": false,
      "inputs": [],
      "name": "callerName",
      "outputs": [
        {
          "name": "",
          "type": "bytes32"
        }
      ],
      "payable": false,
      "stateMutability": "nonpayable",
      "type": "function"
    },
    {
      "constant": false,
      "inputs": [],
      "name": "marketplaceDirectory",
      "outputs": [],
      "payable": false,
      "stateMutability": "nonpayable",
      "type": "function"
    }
  ],
  "bytecode": "0x606060405260405180807f466f7263654669656c64204554524d205265676973747279000000000000000081525060180190506040518091039020600190600019169055341561004e57600080fd5b610bca8061005d6000396000f30060606040526004361061008e576000357c0100000000000000000000000000000000000000000000000000000000900463ffffffff1680634741043a1461009357806359809320146100e857806361328a2c14610119578063653e0f7f1461023f5780639b7b4fa61461034c578063b3c9a0b6146103da578063ce6ec8071461042f578063e294713314610460575b600080fd5b341561009e57600080fd5b6100ca600480803573ffffffffffffffffffffffffffffffffffffffff16906020019091905050610475565b60405180826000191660001916815260200191505060405180910390f35b34156100f357600080fd5b6100fb61048d565b60405180826000191660001916815260200191505060405180910390f35b341561012457600080fd5b610174600480803590602001908201803590602001908080601f01602080910402602001604051908101604052809392919081815260200183838082843782019150505050505091905050610493565b604051808660001916600019168152602001858152602001848152602001806020018373ffffffffffffffffffffffffffffffffffffffff1673ffffffffffffffffffffffffffffffffffffffff168152602001828103825284818151815260200191508051906020019080838360005b838110156102005780820151818401526020810190506101e5565b50505050905090810190601f16801561022d5780820380516001836020036101000a031916815260200191505b50965050505050505060405180910390f35b341561024a57600080fd5b61026460048080356000191690602001909190505061060a565b604051808660001916600019168152602001858152602001848152602001806020018373ffffffffffffffffffffffffffffffffffffffff1673ffffffffffffffffffffffffffffffffffffffff1681526020018281038252848181546001816001161561010002031660029004815260200191508054600181600116156101000203166002900480156103395780601f1061030e57610100808354040283529160200191610339565b820191906000526020600020905b81548152906001019060200180831161031c57829003601f168201915b5050965050505050505060405180910390f35b341561035757600080fd5b6103d8600480803590602001909190803590602001909190803590602001908201803590602001908080601f0160208091040260200160405190810160405280939291908181526020018383808284378201915050505050509190803573ffffffffffffffffffffffffffffffffffffffff1690602001909190505061065f565b005b34156103e557600080fd5b6103ed6109ed565b604051808273ffffffffffffffffffffffffffffffffffffffff1673ffffffffffffffffffffffffffffffffffffffff16815260200191505060405180910390f35b341561043a57600080fd5b610442610a12565b60405180826000191660001916815260200191505060405180910390f35b341561046b57600080fd5b610473610a59565b005b60026020528060005260406000206000915090505481565b60015481565b60008060006104a0610ae5565b60008060036000886040518082805190602001908083835b6020831015156104dd57805182526020820191506020810190506020830392506104b8565b6001836020036101000a0380198251168184511680821785525050505050509050019150506040518091039020600019166000191681526020019081526020016000209050806000015481600101548260020154836003018460040160009054906101000a900473ffffffffffffffffffffffffffffffffffffffff16818054600181600116156101000203166002900480601f0160208091040260200160405190810160405280929190818152602001828054600181600116156101000203166002900480156105ef5780601f106105c4576101008083540402835291602001916105ef565b820191906000526020600020905b8154815290600101906020018083116105d257829003601f168201915b50505050509150955095509550955095505091939590929450565b600360205280600052604060002060009150905080600001549080600101549080600201549080600301908060040160009054906101000a900473ffffffffffffffffffffffffffffffffffffffff16905085565b600082600060010261066f610a12565b600019161415151561068057600080fd5b600060010260036000836040518082805190602001908083835b6020831015156106bf578051825260208201915060208101905060208303925061069a565b6001836020036101000a038019825116818451168082178552505050505050905001915050604051809103902060001916600019168152602001908152602001600020600001546000191614806107dc5750600260003373ffffffffffffffffffffffffffffffffffffffff1673ffffffffffffffffffffffffffffffffffffffff168152602001908152602001600020546000191660036000836040518082805190602001908083835b60208310151561078f578051825260208201915060208101905060208303925061076a565b6001836020036101000a0380198251168184511680821785525050505050509050019150506040518091039020600019166000191681526020019081526020016000206000015460001916145b15156107e757600080fd5b6107ef610a12565b9150836040518082805190602001908083835b6020831015156108275780518252602082019150602081019050602083039250610802565b6001836020036101000a0380198251168184511680821785525050505050509050019150506040518091039020600260008573ffffffffffffffffffffffffffffffffffffffff1673ffffffffffffffffffffffffffffffffffffffff168152602001908152602001600020816000191690555060a060405190810160405280836000191681526020018781526020018681526020018581526020018473ffffffffffffffffffffffffffffffffffffffff1681525060036000866040518082805190602001908083835b60208310151561091757805182526020820191506020810190506020830392506108f2565b6001836020036101000a038019825116818451168082178552505050505050905001915050604051809103902060001916600019168152602001908152602001600020600082015181600001906000191690556020820151816001015560408201518160020155606082015181600301908051906020019061099a929190610af9565b5060808201518160040160006101000a81548173ffffffffffffffffffffffffffffffffffffffff021916908373ffffffffffffffffffffffffffffffffffffffff160217905550905050505050505050565b6000809054906101000a900473ffffffffffffffffffffffffffffffffffffffff1681565b6000600260003373ffffffffffffffffffffffffffffffffffffffff1673ffffffffffffffffffffffffffffffffffffffff16815260200190815260200160002054905090565b336000806101000a81548173ffffffffffffffffffffffffffffffffffffffff021916908373ffffffffffffffffffffffffffffffffffffffff160217905550600154600260003373ffffffffffffffffffffffffffffffffffffffff1673ffffffffffffffffffffffffffffffffffffffff1681526020019081526020016000208160001916905550565b602060405190810160405280600081525090565b828054600181600116156101000203166002900490600052602060002090601f016020900481019282601f10610b3a57805160ff1916838001178555610b68565b82800160010185558215610b68579182015b82811115610b67578251825591602001919060010190610b4c565b5b509050610b759190610b79565b5090565b610b9b91905b80821115610b97576000816000905550600101610b7f565b5090565b905600a165627a7a723058204b406a2b406abdb62ff73c8cbfa312b74332db2eecb494841254791784e44c790029",
  "source": "pragma solidity ^0.4.17;\r\n\r\ncontract MarketplaceDirectory {\r\n    address public consortiumAddress;\r\n    bytes32 public consortiumNameHash = keccak256(\"ForceField ETRM Registry\");\r\n    \r\n    struct Participant {\r\n        bytes32 parent;\r\n        uint effDate;\r\n        uint termDate;\r\n        string name;\r\n        address walletAddress;\r\n    }\r\n    \r\n    mapping(address => bytes32) public participantName;\r\n    mapping(bytes32 => Participant) public participants;\r\n    \r\n    modifier onlyConsortium() {\r\n        require(msg.sender == consortiumAddress);\r\n        _;\r\n    }\r\n    \r\n    modifier onlyParent(string pName) {\r\n        require(callerName() != 0);\r\n        require(participants[keccak256(pName)].parent == 0 || participants[keccak256(pName)].parent == participantName[msg.sender]);\r\n        _;\r\n    }\r\n    \r\n    function marketplaceDirectory() {\r\n        consortiumAddress = msg.sender;\r\n        participantName[msg.sender] = consortiumNameHash;\r\n    }\r\n    \r\n    function callerName() returns (bytes32) {\r\n        return participantName[msg.sender];\r\n    }\r\n    \r\n    function participant(string pName) returns (bytes32 parent, uint effDate, uint termDate, string name, address walletAddress) {\r\n        var p = participants[keccak256(pName)];\r\n        return (p.parent, p.effDate, p.termDate, p.name, p.walletAddress);\r\n    }\r\n    \r\n    //TODO remove old address\r\n    //TODO avoid name collision by creating hierarchy of name\r\n    //TODO support multiple entries for a participant under different companies\r\n    function updateParticipant(uint pEffDate, uint pTermDate, string pName, address pWalletAddress) onlyParent(pName) {\r\n        bytes32 parent = callerName();\r\n        participantName[pWalletAddress] = keccak256(pName);\r\n        participants[keccak256(pName)] = Participant(\r\n            {parent: parent, effDate: pEffDate, termDate: pTermDate, name: pName, walletAddress: pWalletAddress});\r\n    } \r\n}\r\n",
  "sourcePath": "C:\\Code\\BlockChain\\privy\\Contracts\\contracts\\MarketplaceDirectory.sol",
  "compiler": {
    "name": "solc",
    "version": "0.4.18+commit.9cf6e910.Emscripten.clang"
  },
  "schemaVersion": "1.0.1",
  "updatedAt": "2018-02-12T19:57:11.698Z"
}