{
  "contractName": "TradeFactory",
  "abi": [
    {
      "constant": true,
      "inputs": [
        {
          "name": "tradeNumber",
          "type": "uint256"
        }
      ],
      "name": "trades",
      "outputs": [
        {
          "name": "",
          "type": "address"
        }
      ],
      "payable": false,
      "stateMutability": "view",
      "type": "function"
    },
    {
      "constant": true,
      "inputs": [
        {
          "name": "",
          "type": "uint256"
        }
      ],
      "name": "contracts",
      "outputs": [
        {
          "name": "",
          "type": "address"
        }
      ],
      "payable": false,
      "stateMutability": "view",
      "type": "function"
    },
    {
      "constant": false,
      "inputs": [
        {
          "name": "tradeNumber",
          "type": "uint256"
        }
      ],
      "name": "RaiseTradeFieldUpdated",
      "outputs": [],
      "payable": false,
      "stateMutability": "nonpayable",
      "type": "function"
    },
    {
      "constant": false,
      "inputs": [
        {
          "name": "tradeNumber",
          "type": "uint256"
        },
        {
          "name": "partyType",
          "type": "uint256"
        },
        {
          "name": "partyAddress",
          "type": "address"
        }
      ],
      "name": "RaiseTradePartyUpdated",
      "outputs": [],
      "payable": false,
      "stateMutability": "nonpayable",
      "type": "function"
    },
    {
      "constant": false,
      "inputs": [],
      "name": "buyToken",
      "outputs": [
        {
          "name": "",
          "type": "uint256"
        }
      ],
      "payable": false,
      "stateMutability": "nonpayable",
      "type": "function"
    },
    {
      "constant": true,
      "inputs": [],
      "name": "oracleAddress",
      "outputs": [
        {
          "name": "",
          "type": "address"
        }
      ],
      "payable": false,
      "stateMutability": "view",
      "type": "function"
    },
    {
      "constant": false,
      "inputs": [],
      "name": "CreateTrade",
      "outputs": [
        {
          "name": "",
          "type": "uint256"
        }
      ],
      "payable": false,
      "stateMutability": "nonpayable",
      "type": "function"
    },
    {
      "constant": true,
      "inputs": [],
      "name": "nextTradeNumber",
      "outputs": [
        {
          "name": "",
          "type": "uint256"
        }
      ],
      "payable": false,
      "stateMutability": "view",
      "type": "function"
    },
    {
      "inputs": [],
      "payable": false,
      "stateMutability": "nonpayable",
      "type": "constructor"
    },
    {
      "anonymous": false,
      "inputs": [
        {
          "indexed": true,
          "name": "tradeNumber",
          "type": "uint256"
        }
      ],
      "name": "TradeCreated",
      "type": "event"
    },
    {
      "anonymous": false,
      "inputs": [
        {
          "indexed": true,
          "name": "tradeNumber",
          "type": "uint256"
        }
      ],
      "name": "TradeFieldUpdated",
      "type": "event"
    },
    {
      "anonymous": false,
      "inputs": [
        {
          "indexed": true,
          "name": "tradeNumber",
          "type": "uint256"
        },
        {
          "indexed": false,
          "name": "partyType",
          "type": "uint256"
        },
        {
          "indexed": false,
          "name": "partyAddress",
          "type": "address"
        }
      ],
      "name": "TradePartyUpdated",
      "type": "event"
    }
  ],
  "bytecode": "0x6060604052341561000f57600080fd5b33600160006101000a81548173ffffffffffffffffffffffffffffffffffffffff021916908373ffffffffffffffffffffffffffffffffffffffff1602179055506103e96000819055506107fd806100686000396000f30060606040526004361061008e576000357c0100000000000000000000000000000000000000000000000000000000900463ffffffff1680631e6c598e14610093578063474da79a146100f657806390c6868d14610159578063a087620a1461017c578063a4821719146101c7578063a89ae4ba146101f0578063c670e07614610245578063d0b666df1461026e575b600080fd5b341561009e57600080fd5b6100b46004808035906020019091905050610297565b604051808273ffffffffffffffffffffffffffffffffffffffff1673ffffffffffffffffffffffffffffffffffffffff16815260200191505060405180910390f35b341561010157600080fd5b61011760048080359060200190919050506102d4565b604051808273ffffffffffffffffffffffffffffffffffffffff1673ffffffffffffffffffffffffffffffffffffffff16815260200191505060405180910390f35b341561016457600080fd5b61017a6004808035906020019091905050610307565b005b341561018757600080fd5b6101c5600480803590602001909190803590602001909190803573ffffffffffffffffffffffffffffffffffffffff169060200190919050506103a6565b005b34156101d257600080fd5b6101da610486565b6040518082815260200191505060405180910390f35b34156101fb57600080fd5b61020361049d565b604051808273ffffffffffffffffffffffffffffffffffffffff1673ffffffffffffffffffffffffffffffffffffffff16815260200191505060405180910390f35b341561025057600080fd5b6102586104c3565b6040518082815260200191505060405180910390f35b341561027957600080fd5b6102816106e1565b6040518082815260200191505060405180910390f35b60006002600083815260200190815260200160002060009054906101000a900473ffffffffffffffffffffffffffffffffffffffff169050919050565b60026020528060005260406000206000915054906101000a900473ffffffffffffffffffffffffffffffffffffffff1681565b806002600082815260200190815260200160002060009054906101000a900473ffffffffffffffffffffffffffffffffffffffff1673ffffffffffffffffffffffffffffffffffffffff163373ffffffffffffffffffffffffffffffffffffffff1614151561037557600080fd5b817f461f2a9c7e2fd358dd31941039bccc22253d1f9dc110aa628dbfc9515a4969a460405160405180910390a25050565b826002600082815260200190815260200160002060009054906101000a900473ffffffffffffffffffffffffffffffffffffffff1673ffffffffffffffffffffffffffffffffffffffff163373ffffffffffffffffffffffffffffffffffffffff1614151561041457600080fd5b837f3dff846abe6b942c94d99e6a04bac5ed5ce0dd345b4bed99f6a04904194e8e058484604051808381526020018273ffffffffffffffffffffffffffffffffffffffff1673ffffffffffffffffffffffffffffffffffffffff1681526020019250505060405180910390a250505050565b600080600081548092919060010191905055905090565b600160009054906101000a900473ffffffffffffffffffffffffffffffffffffffff1681565b6000806000600160009054906101000a900473ffffffffffffffffffffffffffffffffffffffff1673ffffffffffffffffffffffffffffffffffffffff163373ffffffffffffffffffffffffffffffffffffffff1614151561052457600080fd5b61052c6106ea565b604051809103906000f080151561054257600080fd5b915061054c610486565b90508173ffffffffffffffffffffffffffffffffffffffff16631794bb3c30600160009054906101000a900473ffffffffffffffffffffffffffffffffffffffff16846040518463ffffffff167c0100000000000000000000000000000000000000000000000000000000028152600401808473ffffffffffffffffffffffffffffffffffffffff1673ffffffffffffffffffffffffffffffffffffffff1681526020018373ffffffffffffffffffffffffffffffffffffffff1673ffffffffffffffffffffffffffffffffffffffff1681526020018281526020019350505050600060405180830381600087803b151561064657600080fd5b6102c65a03f1151561065757600080fd5b505050816002600083815260200190815260200160002060006101000a81548173ffffffffffffffffffffffffffffffffffffffff021916908373ffffffffffffffffffffffffffffffffffffffff160217905550807f47a04fa00a09d140923dcfbeb2757b5576b75cdce002471b05afac2b598dd5f860405160405180910390a2809250505090565b60008054905090565b60405160d8806106fa8339019056006060604052341561000f57600080fd5b60bb8061001d6000396000f30060606040526053733c33129719d96644b29ebcfb8775f5e1aac73f3b6000368080601f0160208091040260200160405190810160405280939291908181526020018383808284378201915050505050506055565b005b813b600081146062576067565b600080fd5b50611000806000835160208501866127105a03f480600081146087576089565bfe5b50816000f300a165627a7a7230582087784bca1c68f61580c0de3aed0f8d3e884a609d2847dae996f8a60b74fba8b20029a165627a7a7230582008ef9a5126012445553030e872793e1f3b1ae178bb0e77fad6bb78ed021f9e5f0029",
  "source": "pragma solidity ^0.4.17;\r\n\r\nimport \"./TradeProxy.sol\";\r\nimport \"./TradeInterface.sol\";\r\nimport \"./GovernedSmartContractFactory.sol\";\r\n\r\ncontract TradeFactory is GovernedSmartContractFactory {\r\n    function nextTradeNumber() view public returns (uint) {\r\n        return nextTokenNumber;\r\n    }\r\n    \r\n    function trades(uint tradeNumber) view public returns(address) {\r\n        return contracts[tradeNumber];\r\n    }\r\n\r\n    function TradeFactory() {\r\n        oracleAddress = msg.sender;\r\n        nextTokenNumber = 1001;\r\n    }\r\n    \r\n    function CreateTrade() onlyOracle returns (uint)  {\r\n        var tradeProxy = address(new TradeProxy());\r\n        var tradeNumber = buyToken();\r\n        TradeInterface(tradeProxy).initialize(this, oracleAddress, tradeNumber);\r\n        contracts[tradeNumber] = tradeProxy;\r\n        TradeCreated(tradeNumber);\r\n        return tradeNumber;\r\n    }\r\n    \r\n    function RaiseTradeFieldUpdated(uint tradeNumber) onlyContractOwner(tradeNumber) {\r\n        TradeFieldUpdated(tradeNumber);\r\n    }\r\n\r\n    function RaiseTradePartyUpdated(uint tradeNumber,uint partyType, address partyAddress) onlyContractOwner(tradeNumber) {\r\n        TradePartyUpdated(tradeNumber,partyType,partyAddress);\r\n    }\r\n    \r\n    event TradeCreated(uint indexed tradeNumber);\r\n    event TradeFieldUpdated(uint indexed tradeNumber);\r\n    event TradePartyUpdated(uint indexed tradeNumber, uint partyType, address partyAddress);\r\n}\r\n\r\n",
  "sourcePath": "C:\\Code\\BlockChain\\privy\\Contracts\\contracts\\TradeFactory.sol",
  "compiler": {
    "name": "solc",
    "version": "0.4.18+commit.9cf6e910.Emscripten.clang"
  },
  "schemaVersion": "1.0.1",
  "updatedAt": "2018-02-12T19:57:11.701Z"
}