{
  "contractName": "Trade",
  "abi": [
    {
      "constant": true,
      "inputs": [
        {
          "name": "",
          "type": "address"
        },
        {
          "name": "",
          "type": "uint256"
        }
      ],
      "name": "accessibleSymmetricKeysByUser",
      "outputs": [
        {
          "name": "",
          "type": "string"
        }
      ],
      "payable": false,
      "stateMutability": "view",
      "type": "function"
    },
    {
      "constant": false,
      "inputs": [
        {
          "name": "symmetricKey",
          "type": "string"
        }
      ],
      "name": "cancel",
      "outputs": [],
      "payable": false,
      "stateMutability": "nonpayable",
      "type": "function"
    },
    {
      "constant": false,
      "inputs": [
        {
          "name": "partyType",
          "type": "uint8"
        },
        {
          "name": "partyAddress",
          "type": "address"
        },
        {
          "name": "companyName",
          "type": "string"
        },
        {
          "name": "accessibleSymKey",
          "type": "string"
        }
      ],
      "name": "updateParty",
      "outputs": [],
      "payable": false,
      "stateMutability": "nonpayable",
      "type": "function"
    },
    {
      "constant": false,
      "inputs": [
        {
          "name": "pFactory",
          "type": "address"
        },
        {
          "name": "pOracleAddress",
          "type": "address"
        },
        {
          "name": "pTradeNumber",
          "type": "uint256"
        }
      ],
      "name": "initialize",
      "outputs": [],
      "payable": false,
      "stateMutability": "nonpayable",
      "type": "function"
    },
    {
      "constant": true,
      "inputs": [
        {
          "name": "",
          "type": "uint256"
        }
      ],
      "name": "fields",
      "outputs": [
        {
          "name": "lastUpdated",
          "type": "uint256"
        }
      ],
      "payable": false,
      "stateMutability": "view",
      "type": "function"
    },
    {
      "constant": true,
      "inputs": [],
      "name": "tradeIsActive",
      "outputs": [
        {
          "name": "",
          "type": "uint256"
        }
      ],
      "payable": false,
      "stateMutability": "view",
      "type": "function"
    },
    {
      "constant": true,
      "inputs": [
        {
          "name": "",
          "type": "bytes32"
        },
        {
          "name": "",
          "type": "address"
        }
      ],
      "name": "signer",
      "outputs": [
        {
          "name": "",
          "type": "string"
        }
      ],
      "payable": false,
      "stateMutability": "view",
      "type": "function"
    },
    {
      "constant": true,
      "inputs": [],
      "name": "createdOn",
      "outputs": [
        {
          "name": "",
          "type": "uint256"
        }
      ],
      "payable": false,
      "stateMutability": "view",
      "type": "function"
    },
    {
      "constant": false,
      "inputs": [
        {
          "name": "symmetricKeyHash",
          "type": "bytes32"
        },
        {
          "name": "fieldEnumIndex",
          "type": "uint8"
        }
      ],
      "name": "canEditField",
      "outputs": [
        {
          "name": "",
          "type": "bool"
        }
      ],
      "payable": false,
      "stateMutability": "nonpayable",
      "type": "function"
    },
    {
      "constant": true,
      "inputs": [
        {
          "name": "",
          "type": "uint256"
        }
      ],
      "name": "partyOTAddresses",
      "outputs": [
        {
          "name": "",
          "type": "address"
        }
      ],
      "payable": false,
      "stateMutability": "view",
      "type": "function"
    },
    {
      "constant": true,
      "inputs": [],
      "name": "oracleAddress",
      "outputs": [
        {
          "name": "",
          "type": "address"
        }
      ],
      "payable": false,
      "stateMutability": "view",
      "type": "function"
    },
    {
      "constant": true,
      "inputs": [
        {
          "name": "",
          "type": "bytes32"
        },
        {
          "name": "",
          "type": "uint256"
        }
      ],
      "name": "accessibleFieldsBySymKey",
      "outputs": [
        {
          "name": "",
          "type": "uint8"
        }
      ],
      "payable": false,
      "stateMutability": "view",
      "type": "function"
    },
    {
      "constant": false,
      "inputs": [
        {
          "name": "symmetricKey",
          "type": "string"
        },
        {
          "name": "signerKey",
          "type": "string"
        }
      ],
      "name": "accept",
      "outputs": [],
      "payable": false,
      "stateMutability": "nonpayable",
      "type": "function"
    },
    {
      "constant": false,
      "inputs": [
        {
          "name": "requiredParties",
          "type": "uint8[]"
        }
      ],
      "name": "hasAllPartiesSigned",
      "outputs": [
        {
          "name": "",
          "type": "bool"
        }
      ],
      "payable": false,
      "stateMutability": "nonpayable",
      "type": "function"
    },
    {
      "constant": true,
      "inputs": [
        {
          "name": "",
          "type": "bytes32"
        },
        {
          "name": "",
          "type": "address"
        }
      ],
      "name": "signatures",
      "outputs": [
        {
          "name": "",
          "type": "uint256"
        }
      ],
      "payable": false,
      "stateMutability": "view",
      "type": "function"
    },
    {
      "constant": true,
      "inputs": [],
      "name": "tradeNumber",
      "outputs": [
        {
          "name": "",
          "type": "uint256"
        }
      ],
      "payable": false,
      "stateMutability": "view",
      "type": "function"
    },
    {
      "constant": false,
      "inputs": [
        {
          "name": "symmetricKey",
          "type": "string"
        },
        {
          "name": "signerKey",
          "type": "string"
        }
      ],
      "name": "acceptInternal",
      "outputs": [],
      "payable": false,
      "stateMutability": "nonpayable",
      "type": "function"
    },
    {
      "constant": true,
      "inputs": [],
      "name": "tradeFactory",
      "outputs": [
        {
          "name": "",
          "type": "address"
        }
      ],
      "payable": false,
      "stateMutability": "view",
      "type": "function"
    },
    {
      "constant": false,
      "inputs": [
        {
          "name": "symmetricKey",
          "type": "string"
        },
        {
          "name": "pTradeDate",
          "type": "string"
        },
        {
          "name": "pProduct",
          "type": "string"
        },
        {
          "name": "pQty",
          "type": "string"
        },
        {
          "name": "pPrice",
          "type": "string"
        },
        {
          "name": "pBuyer",
          "type": "string"
        },
        {
          "name": "pSeller",
          "type": "string"
        }
      ],
      "name": "updateData",
      "outputs": [],
      "payable": false,
      "stateMutability": "nonpayable",
      "type": "function"
    },
    {
      "constant": true,
      "inputs": [
        {
          "name": "symmetricKeyHash",
          "type": "bytes32"
        },
        {
          "name": "pFieldName",
          "type": "uint8"
        }
      ],
      "name": "getFieldValues",
      "outputs": [
        {
          "name": "lastUpdated",
          "type": "uint256"
        },
        {
          "name": "value",
          "type": "string"
        }
      ],
      "payable": false,
      "stateMutability": "view",
      "type": "function"
    }
  ],
  "bytecode": "0x606060405260e060405190810160405280600060068111156200001e57fe5b60ff1660ff168152602001600160068111156200003757fe5b60ff1660ff168152602001600260068111156200005057fe5b60ff1660ff168152602001600360068111156200006957fe5b60ff1660ff168152602001600460068111156200008257fe5b60ff1660ff168152602001600560068111156200009b57fe5b60ff1660ff168152602001600680811115620000b357fe5b60ff1660ff168152506008906007620000ce9291906200012e565b50604080519081016040528060016002811115620000e857fe5b60ff1660ff1681526020016002808111156200010057fe5b60ff1660ff1681525060099060026200011b929190620001dc565b5034156200012857600080fd5b620002bd565b82805482825590600052602060002090601f01602090048101928215620001c95791602002820160005b838211156200019857835183826101000a81548160ff021916908360ff160217905550926020019260010160208160000104928301926001030262000158565b8015620001c75782816101000a81549060ff021916905560010160208160000104928301926001030262000198565b505b509050620001d891906200028a565b5090565b82805482825590600052602060002090601f01602090048101928215620002775791602002820160005b838211156200024657835183826101000a81548160ff021916908360ff160217905550926020019260010160208160000104928301926001030262000206565b8015620002755782816101000a81549060ff021916905560010160208160000104928301926001030262000246565b505b5090506200028691906200028a565b5090565b620002ba91905b80821115620002b657600081816101000a81549060ff02191690555060010162000291565b5090565b90565b6127b980620002cd6000396000f300606060405260043610610112576000357c0100000000000000000000000000000000000000000000000000000000900463ffffffff168063085271ea146101175780630b4f3f3d146101d2578063147ec7761461022f5780631794bb3c146102fa578063191378561461035b578063740d1634146103925780638a3646e3146103bb5780639f2ce5941461047a578063a34b2fb5146104a3578063a4f923e0146104ee578063a89ae4ba14610551578063b50dde34146105a6578063bdee1c6e146105f0578063cb3deec014610690578063dc18fa9514610702578063de5480ce1461075c578063df02bab214610785578063e5e19b4a14610825578063e79c28131461087a578063fe3b059b14610a69575b600080fd5b341561012257600080fd5b610157600480803573ffffffffffffffffffffffffffffffffffffffff16906020019091908035906020019091905050610b1c565b6040518080602001828103825283818151815260200191508051906020019080838360005b8381101561019757808201518184015260208101905061017c565b50505050905090810190601f1680156101c45780820380516001836020036101000a031916815260200191505b509250505060405180910390f35b34156101dd57600080fd5b61022d600480803590602001908201803590602001908080601f01602080910402602001604051908101604052809392919081815260200183838082843782019150505050505091905050610be5565b005b341561023a57600080fd5b6102f8600480803560ff1690602001909190803573ffffffffffffffffffffffffffffffffffffffff1690602001909190803590602001908201803590602001908080601f0160208091040260200160405190810160405280939291908181526020018383808284378201915050505050509190803590602001908201803590602001908080601f01602080910402602001604051908101604052809392919081815260200183838082843782019150505050505091905050610e8a565b005b341561030557600080fd5b610359600480803573ffffffffffffffffffffffffffffffffffffffff1690602001909190803573ffffffffffffffffffffffffffffffffffffffff1690602001909190803590602001909190505061124b565b005b341561036657600080fd5b61037c60048080359060200190919050506112f9565b6040518082815260200191505060405180910390f35b341561039d57600080fd5b6103a5611317565b6040518082815260200191505060405180910390f35b34156103c657600080fd5b6103ff60048080356000191690602001909190803573ffffffffffffffffffffffffffffffffffffffff1690602001909190505061131d565b6040518080602001828103825283818151815260200191508051906020019080838360005b8381101561043f578082015181840152602081019050610424565b50505050905090810190601f16801561046c5780820380516001836020036101000a031916815260200191505b509250505060405180910390f35b341561048557600080fd5b61048d6113da565b6040518082815260200191505060405180910390f35b34156104ae57600080fd5b6104d460048080356000191690602001909190803560ff169060200190919050506113e0565b604051808215151515815260200191505060405180910390f35b34156104f957600080fd5b61050f6004808035906020019091905050611477565b604051808273ffffffffffffffffffffffffffffffffffffffff1673ffffffffffffffffffffffffffffffffffffffff16815260200191505060405180910390f35b341561055c57600080fd5b6105646114aa565b604051808273ffffffffffffffffffffffffffffffffffffffff1673ffffffffffffffffffffffffffffffffffffffff16815260200191505060405180910390f35b34156105b157600080fd5b6105d46004808035600019169060200190919080359060200190919050506114d0565b604051808260ff1660ff16815260200191505060405180910390f35b34156105fb57600080fd5b61068e600480803590602001908201803590602001908080601f0160208091040260200160405190810160405280939291908181526020018383808284378201915050505050509190803590602001908201803590602001908080601f01602080910402602001604051908101604052809392919081815260200183838082843782019150505050505091905050611512565b005b341561069b57600080fd5b6106e860048080359060200190820180359060200190808060200260200160405190810160405280939291908181526020018383602002808284378201915050505050509190505061173f565b604051808215151515815260200191505060405180910390f35b341561070d57600080fd5b61074660048080356000191690602001909190803573ffffffffffffffffffffffffffffffffffffffff169060200190919050506118e9565b6040518082815260200191505060405180910390f35b341561076757600080fd5b61076f61190e565b6040518082815260200191505060405180910390f35b341561079057600080fd5b610823600480803590602001908201803590602001908080601f0160208091040260200160405190810160405280939291908181526020018383808284378201915050505050509190803590602001908201803590602001908080601f01602080910402602001604051908101604052809392919081815260200183838082843782019150505050505091905050611914565b005b341561083057600080fd5b610838611c0e565b604051808273ffffffffffffffffffffffffffffffffffffffff1673ffffffffffffffffffffffffffffffffffffffff16815260200191505060405180910390f35b341561088557600080fd5b610a67600480803590602001908201803590602001908080601f0160208091040260200160405190810160405280939291908181526020018383808284378201915050505050509190803590602001908201803590602001908080601f0160208091040260200160405190810160405280939291908181526020018383808284378201915050505050509190803590602001908201803590602001908080601f0160208091040260200160405190810160405280939291908181526020018383808284378201915050505050509190803590602001908201803590602001908080601f0160208091040260200160405190810160405280939291908181526020018383808284378201915050505050509190803590602001908201803590602001908080601f0160208091040260200160405190810160405280939291908181526020018383808284378201915050505050509190803590602001908201803590602001908080601f0160208091040260200160405190810160405280939291908181526020018383808284378201915050505050509190803590602001908201803590602001908080601f01602080910402602001604051908101604052809392919081815260200183838082843782019150505050505091905050611c34565b005b3415610a7457600080fd5b610a9a60048080356000191690602001909190803560ff16906020019091905050611f55565b6040518083815260200180602001828103825283818151815260200191508051906020019080838360005b83811015610ae0578082015181840152602081019050610ac5565b50505050905090810190601f168015610b0d5780820380516001836020036101000a031916815260200191505b50935050505060405180910390f35b600260205281600052604060002081815481101515610b3757fe5b9060005260206000209001600091509150508054600181600116156101000203166002900480601f016020809104026020016040519081016040528092919081815260200182805460018160011615610100020316600290048015610bdd5780601f10610bb257610100808354040283529160200191610bdd565b820191906000526020600020905b815481529060010190602001808311610bc057829003601f168201915b505050505081565b6000816000806000600260003373ffffffffffffffffffffffffffffffffffffffff1673ffffffffffffffffffffffffffffffffffffffff168152602001908152602001600020925060009150600090505b8280549050811015610d4b578281815481101515610c5157fe5b90600052602060002090016040518082805460018160011615610100020316600290048015610cb75780601f10610c95576101008083540402835291820191610cb7565b820191906000526020600020905b815481529060010190602001808311610ca3575b5050915050604051809103902060001916846040518082805190602001908083835b602083101515610cfe5780518252602082019150602081019050602083039250610cd9565b6001836020036101000a0380198251168184511680821785525050505050509050019150506040518091039020600019161415610d3e5760019150610d4b565b8080600101915050610c37565b610dca6009805480602002602001604051908101604052809291908181526020018280548015610dc057602002820191906000526020600020906000905b82829054906101000a900460ff1660ff1681526020019060010190602082600001049283019260010382029150808411610d895790505b505050505061173f565b9450841515610e82576000600c81905550600b60009054906101000a900473ffffffffffffffffffffffffffffffffffffffff1673ffffffffffffffffffffffffffffffffffffffff166390c6868d600a546040518263ffffffff167c010000000000000000000000000000000000000000000000000000000002815260040180828152602001915050600060405180830381600087803b1515610e6d57600080fd5b6102c65a03f11515610e7e57600080fd5b5050505b505050505050565b600660009054906101000a900473ffffffffffffffffffffffffffffffffffffffff1673ffffffffffffffffffffffffffffffffffffffff163373ffffffffffffffffffffffffffffffffffffffff16141515610ee657600080fd5b6001600c54141515610ef757600080fd5b610f0c846002811115610f0657fe5b84612094565b610f1683826120ed565b610f96816008805480602002602001604051908101604052809291908181526020018280548015610f8c57602002820191906000526020600020906000905b82829054906101000a900460ff1660ff1681526020019060010190602082600001049283019260010382029150808411610f555790505b505050505061216a565b60016002811115610fa357fe5b846002811115610faf57fe5b14156110785760408051908101604052804281526020018381525060008060056006811115610fda57fe5b60ff168152602001908152602001600020600101600060056040518082600681111561100257fe5b60ff167f010000000000000000000000000000000000000000000000000000000000000002815260010191505060405180910390206000191660001916815260200190815260200160002060008201518160000155602082015181600101908051906020019061107392919061257a565b509050505b60028081111561108457fe5b84600281111561109057fe5b1415611158576040805190810160405280428152602001838152506000806006808111156110ba57fe5b60ff16815260200190815260200160002060010160006006604051808260068111156110e257fe5b60ff167f010000000000000000000000000000000000000000000000000000000000000002815260010191505060405180910390206000191660001916815260200190815260200160002060008201518160000155602082015181600101908051906020019061115392919061257a565b509050505b600b60009054906101000a900473ffffffffffffffffffffffffffffffffffffffff1673ffffffffffffffffffffffffffffffffffffffff1663a087620a600a548660028111156111a557fe5b866040518463ffffffff167c0100000000000000000000000000000000000000000000000000000000028152600401808481526020018381526020018273ffffffffffffffffffffffffffffffffffffffff1673ffffffffffffffffffffffffffffffffffffffff1681526020019350505050600060405180830381600087803b151561123157600080fd5b6102c65a03f1151561124257600080fd5b50505050505050565b600060075414151561125c57600080fd5b80600a819055504260078190555082600b60006101000a81548173ffffffffffffffffffffffffffffffffffffffff021916908373ffffffffffffffffffffffffffffffffffffffff16021790555081600660006101000a81548173ffffffffffffffffffffffffffffffffffffffff021916908373ffffffffffffffffffffffffffffffffffffffff1602179055506001600c81905550505050565b60006020528060005260406000206000915090508060000154905081565b600c5481565b6004602052816000526040600020602052806000526040600020600091509150508054600181600116156101000203166002900480601f0160208091040260200160405190810160405280929190818152602001828054600181600116156101000203166002900480156113d25780601f106113a7576101008083540402835291602001916113d2565b820191906000526020600020905b8154815290600101906020018083116113b557829003601f168201915b505050505081565b60075481565b60008060006005600086600019166000191681526020019081526020016000209150600090505b81805490508160ff16101561146a57818160ff1681548110151561142757fe5b90600052602060002090602091828204019190069054906101000a900460ff1660ff168460ff16141561145d576001925061146f565b8080600101915050611407565b600092505b505092915050565b60016020528060005260406000206000915054906101000a900473ffffffffffffffffffffffffffffffffffffffff1681565b600660009054906101000a900473ffffffffffffffffffffffffffffffffffffffff1681565b6005602052816000526040600020818154811015156114eb57fe5b9060005260206000209060209182820401919006915091509054906101000a900460ff1681565b816000806000600260003373ffffffffffffffffffffffffffffffffffffffff1673ffffffffffffffffffffffffffffffffffffffff168152602001908152602001600020925060009150600090505b828054905081101561167657828181548110151561157c57fe5b906000526020600020900160405180828054600181600116156101000203166002900480156115e25780601f106115c05761010080835404028352918201916115e2565b820191906000526020600020905b8154815290600101906020018083116115ce575b5050915050604051809103902060001916846040518082805190602001908083835b6020831015156116295780518252602082019150602081019050602083039250611604565b6001836020036101000a03801982511681845116808217855250505050505090500191505060405180910390206000191614156116695760019150611676565b8080600101915050611562565b6001600c5414151561168757600080fd5b6116918686611914565b600b60009054906101000a900473ffffffffffffffffffffffffffffffffffffffff1673ffffffffffffffffffffffffffffffffffffffff166390c6868d600a546040518263ffffffff167c010000000000000000000000000000000000000000000000000000000002815260040180828152602001915050600060405180830381600087803b151561172357600080fd5b6102c65a03f1151561173457600080fd5b505050505050505050565b600080600080600092505b84518310156118dc5760016000868581518110151561176557fe5b9060200190602002015160ff16815260200190815260200160002060009054906101000a900473ffffffffffffffffffffffffffffffffffffffff169150600260008373ffffffffffffffffffffffffffffffffffffffff1673ffffffffffffffffffffffffffffffffffffffff16815260200190815260200160002090506000600360008360008154811015156117f957fe5b9060005260206000209001604051808280546001816001161561010002031660029004801561185f5780601f1061183d57610100808354040283529182019161185f565b820191906000526020600020905b81548152906001019060200180831161184b575b505091505060405180910390206000191660001916815260200190815260200160002060008473ffffffffffffffffffffffffffffffffffffffff1673ffffffffffffffffffffffffffffffffffffffff1681526020019081526020016000205414156118cf57600093506118e1565b828060010193505061174a565b600193505b505050919050565b6003602052816000526040600020602052806000526040600020600091509150505481565b600a5481565b816000806000600260003373ffffffffffffffffffffffffffffffffffffffff1673ffffffffffffffffffffffffffffffffffffffff168152602001908152602001600020925060009150600090505b8280549050811015611a7857828181548110151561197e57fe5b906000526020600020900160405180828054600181600116156101000203166002900480156119e45780601f106119c25761010080835404028352918201916119e4565b820191906000526020600020905b8154815290600101906020018083116119d0575b5050915050604051809103902060001916846040518082805190602001908083835b602083101515611a2b5780518252602082019150602081019050602083039250611a06565b6001836020036101000a0380198251168184511680821785525050505050509050019150506040518091039020600019161415611a6b5760019150611a78565b8080600101915050611964565b4260036000886040518082805190602001908083835b602083101515611ab35780518252602082019150602081019050602083039250611a8e565b6001836020036101000a03801982511681845116808217855250505050505090500191505060405180910390206000191660001916815260200190815260200160002060003373ffffffffffffffffffffffffffffffffffffffff1673ffffffffffffffffffffffffffffffffffffffff168152602001908152602001600020819055508460046000886040518082805190602001908083835b602083101515611b725780518252602082019150602081019050602083039250611b4d565b6001836020036101000a03801982511681845116808217855250505050505090500191505060405180910390206000191660001916815260200190815260200160002060003373ffffffffffffffffffffffffffffffffffffffff1673ffffffffffffffffffffffffffffffffffffffff1681526020019081526020016000209080519060200190611c059291906125fa565b50505050505050565b600b60009054906101000a900473ffffffffffffffffffffffffffffffffffffffff1681565b6000876000806000600260003373ffffffffffffffffffffffffffffffffffffffff1673ffffffffffffffffffffffffffffffffffffffff168152602001908152602001600020925060009150600090505b8280549050811015611d9a578281815481101515611ca057fe5b90600052602060002090016040518082805460018160011615610100020316600290048015611d065780601f10611ce4576101008083540402835291820191611d06565b820191906000526020600020905b815481529060010190602001808311611cf2575b5050915050604051809103902060001916846040518082805190602001908083835b602083101515611d4d5780518252602082019150602081019050602083039250611d28565b6001836020036101000a0380198251168184511680821785525050505050509050019150506040518091039020600019161415611d8d5760019150611d9a565b8080600101915050611c86565b6001600c54141515611dab57600080fd5b8b6040518082805190602001908083835b602083101515611de15780518252602082019150602081019050602083039250611dbc565b6001836020036101000a03801982511681845116808217855250505050505090500191505060405180910390209450611e278560016006811115611e2157fe5b8d6122ef565b611e3e8560026006811115611e3857fe5b8c6122ef565b611e558560036006811115611e4f57fe5b8b6122ef565b611e6c8560046006811115611e6657fe5b8a6122ef565b611e838560056006811115611e7d57fe5b896122ef565b611e9985600680811115611e9357fe5b886122ef565b611ea16123ce565b600b60009054906101000a900473ffffffffffffffffffffffffffffffffffffffff1673ffffffffffffffffffffffffffffffffffffffff166390c6868d600a546040518263ffffffff167c010000000000000000000000000000000000000000000000000000000002815260040180828152602001915050600060405180830381600087803b1515611f3357600080fd5b6102c65a03f11515611f4457600080fd5b505050505050505050505050505050565b6000611f5f61267a565b6000808460ff168152602001908152602001600020600001546000808560ff168152602001908152602001600020600101600085604051808260ff1660ff167f0100000000000000000000000000000000000000000000000000000000000000028152600101915050604051809103902060001916600019168152602001908152602001600020600101808054600181600116156101000203166002900480601f01602080910402602001604051908101604052809291908181526020018280546001816001161561010002031660029004801561207e5780601f106120535761010080835404028352916020019161207e565b820191906000526020600020905b81548152906001019060200180831161206157829003601f168201915b5050505050905080925081935050509250929050565b80600160008460ff16815260200190815260200160002060006101000a81548173ffffffffffffffffffffffffffffffffffffffff021916908373ffffffffffffffffffffffffffffffffffffffff1602179055505050565b600260008373ffffffffffffffffffffffffffffffffffffffff1673ffffffffffffffffffffffffffffffffffffffff168152602001908152602001600020805480600101828161213e919061268e565b9160005260206000209001600083909190915090805190602001906121649291906125fa565b50505050565b6000600182510360056000856040518082805190602001908083835b6020831015156121ab5780518252602082019150602081019050602083039250612186565b6001836020036101000a0380198251168184511680821785525050505050509050019150506040518091039020600019166000191681526020019081526020016000208054905010156122ea57600190505b81518110156122e95760056000846040518082805190602001908083835b602083101515612240578051825260208201915060208101905060208303925061221b565b6001836020036101000a038019825116818451168082178552505050505050905001915050604051809103902060001916600019168152602001908152602001600020805480600101828161229591906126ba565b916000526020600020906020918282040191900684848151811015156122b757fe5b90602001906020020151909190916101000a81548160ff021916908360ff1602179055505080806001019150506121fd565b5b505050565b6122f983836113e0565b156123c957426000808460ff168152602001908152602001600020600001819055506040805190810160405280428152602001828152506000808460ff168152602001908152602001600020600101600084604051808260ff1660ff167f01000000000000000000000000000000000000000000000000000000000000000281526001019150506040518091039020600019166000191681526020019081526020016000206000820151816000015560208201518160010190805190602001906123c492919061257a565b509050505b505050565b6123e3600160028111156123de57fe5b6123f9565b6123f76002808111156123f257fe5b6123f9565b565b6000806000600160008560ff16815260200190815260200160002060009054906101000a900473ffffffffffffffffffffffffffffffffffffffff169250600260008473ffffffffffffffffffffffffffffffffffffffff1673ffffffffffffffffffffffffffffffffffffffff1681526020019081526020016000209150600090505b818054905081101561257457600060036000848481548110151561249d57fe5b906000526020600020900160405180828054600181600116156101000203166002900480156125035780601f106124e1576101008083540402835291820191612503565b820191906000526020600020905b8154815290600101906020018083116124ef575b505091505060405180910390206000191660001916815260200190815260200160002060008573ffffffffffffffffffffffffffffffffffffffff1673ffffffffffffffffffffffffffffffffffffffff16815260200190815260200160002081905550808060010191505061247d565b50505050565b828054600181600116156101000203166002900490600052602060002090601f016020900481019282601f106125bb57805160ff19168380011785556125e9565b828001600101855582156125e9579182015b828111156125e85782518255916020019190600101906125cd565b5b5090506125f691906126f4565b5090565b828054600181600116156101000203166002900490600052602060002090601f016020900481019282601f1061263b57805160ff1916838001178555612669565b82800160010185558215612669579182015b8281111561266857825182559160200191906001019061264d565b5b50905061267691906126f4565b5090565b602060405190810160405280600081525090565b8154818355818115116126b5578183600052602060002091820191016126b49190612719565b5b505050565b8154818355818115116126ef57601f016020900481601f016020900483600052602060002091820191016126ee91906126f4565b5b505050565b61271691905b808211156127125760008160009055506001016126fa565b5090565b90565b61274291905b8082111561273e57600081816127359190612745565b5060010161271f565b5090565b90565b50805460018160011615610100020316600290046000825580601f1061276b575061278a565b601f01602090049060005260206000209081019061278991906126f4565b5b505600a165627a7a7230582073688972b27df46332773a73cc5d89370030b04d92c032caa7a2e623d01407d70029",
  "source": "pragma solidity ^0.4.17;\r\n\r\nimport \"./GovernedSmartContract.sol\";\r\nimport \"./TradeInterface.sol\";\r\nimport \"./TradeFactory.sol\";\r\n\r\ncontract Trade is GovernedSmartContract, TradeInterface {\r\n    \r\n    uint8[] ALL_FIELDS = [uint8(Field.unassigned), uint8(Field.tradeDate), uint8(Field.product), uint8(Field.qty), \r\n        uint8(Field.price), uint8(Field.buyer), uint8(Field.seller)];\r\n    \r\n    uint8[] signatureRequiredParties = [uint8(Party.Buyer), uint8(Party.Seller)];\r\n\r\n    uint public tradeNumber;\r\n    TradeFactory public tradeFactory;\r\n\r\n\tuint public tradeIsActive;\r\n\r\n\tmodifier onlyIfTradeIsActive() {\r\n\t\trequire(tradeIsActive == 1);\r\n\r\n\t\t_;\r\n\t}\r\n\r\n    function initialize(TradeFactory pFactory, \r\n            address pOracleAddress, uint pTradeNumber) {\r\n        require(createdOn == 0);\r\n        tradeNumber = pTradeNumber;\r\n        createdOn = now;\r\n        tradeFactory = pFactory;\r\n        oracleAddress = pOracleAddress;\r\n\t\ttradeIsActive = 1;\r\n    }\r\n    \r\n    function updateData(string symmetricKey, string pTradeDate, string pProduct, \r\n            string pQty, string pPrice, string pBuyer, string pSeller) onlyByPartiesToTheTransaction(symmetricKey) onlyIfTradeIsActive { //\r\n        var symmetricKeyHash = keccak256(symmetricKey);\r\n        updateField(symmetricKeyHash, uint8(Field.tradeDate), pTradeDate);\r\n        updateField(symmetricKeyHash, uint8(Field.product), pProduct);\r\n        updateField(symmetricKeyHash, uint8(Field.qty), pQty);\r\n        updateField(symmetricKeyHash, uint8(Field.price), pPrice);\r\n        updateField(symmetricKeyHash, uint8(Field.buyer), pBuyer);\r\n        updateField(symmetricKeyHash, uint8(Field.seller), pSeller);\r\n        resetSignatures();\r\n        tradeFactory.RaiseTradeFieldUpdated(tradeNumber);\r\n    }\r\n\r\n    function updateParty(Party partyType, address partyAddress, string companyName, string accessibleSymKey) onlyOracle onlyIfTradeIsActive {\r\n        assignOTAddressToParty(uint8(partyType), partyAddress);\r\n        grantSymmetricKeyAccessToParty(partyAddress, accessibleSymKey);\r\n        grantFieldAccessToSymmetricKey(accessibleSymKey, ALL_FIELDS);\r\n        if(partyType == Party.Buyer)\r\n            fields[uint8(Field.buyer)].field[keccak256(Field.buyer)] = EncryptedValue({lastUpdated: now, value: companyName});\r\n        if(partyType == Party.Seller)\r\n            fields[uint8(Field.seller)].field[keccak256(Field.seller)] = EncryptedValue({lastUpdated: now, value: companyName});\r\n        tradeFactory.RaiseTradePartyUpdated(tradeNumber,uint(partyType), partyAddress);\r\n    }\r\n    \r\n    function accept(string symmetricKey, string signerKey) onlyByPartiesToTheTransaction(symmetricKey) onlyIfTradeIsActive {\r\n        acceptInternal(symmetricKey, signerKey);\r\n        tradeFactory.RaiseTradeFieldUpdated(tradeNumber);\r\n    }\r\n\r\n\tfunction cancel(string symmetricKey) onlyByPartiesToTheTransaction(symmetricKey) {\r\n\t\t\r\n\t\tbool allSigned = hasAllPartiesSigned(signatureRequiredParties);\r\n\r\n\t\tif(!allSigned){ \r\n\t\t\ttradeIsActive = 0;\r\n\t\t\ttradeFactory.RaiseTradeFieldUpdated(tradeNumber);\r\n\t\t}\r\n\t}\r\n    \r\n    function resetSignatures() internal {\r\n        resetSignature(uint8(Party.Buyer));\r\n        resetSignature(uint8(Party.Seller));\r\n    }\r\n}\r\n",
  "sourcePath": "C:\\Code\\BlockChain\\privy\\Contracts\\contracts\\Trade.sol",
  "compiler": {
    "name": "solc",
    "version": "0.4.18+commit.9cf6e910.Emscripten.clang"
  },
  "schemaVersion": "1.0.1",
  "updatedAt": "2018-02-12T19:57:11.699Z"
}